S01300007572735F70726F6A656B742E7372656359
S11300000C94EF0D0C940C0E0C940C0E0C940C0E22
S11300100C940C0E0C940C0E0C940C0E0C940C0EF4
S11300200C940C0E0C940C0E0C940C0E0C940C0EE4
S11300300C940C0E0C94F1160C9416170C940C0ED4
S11300400C940C0E0C940C0E0C940C0E0C940C0EC4
S11300500C940C0E072C7AA5BA6CC590DA3B936508
S1130060FC8BBC53F810FD3C5692834DBD879D3AE2
S1130070B63DCBC9BF5BBE73DA0FC93F05A84CCDF3
S1130080B2D44EB93836A9020C50B9918688083CCE
S1130090A6AAAA2ABE000000803F1B081021012046
S11300A0F90A02060A090E090306060708030703EC
S11300B0070A0A0A0A0A0A0A0A0A0A0303060706B8
S11300C0090F0A0A0A0A09080B0A02060A080F0C91
S11300D00C0A0C0A0B0A0A0C0E0B0C0A040804087E
S11300E00905090908090A070A0902030A020E098F
S11300F009090906090709090E0909080602060A79
S113010000000000000000000000000000000000EB
S113011000000000000000000000000000000000DB
S113012000000A09090A0A0D07090C0B0B0E0E0C34
S11301300C0A0D0F0F0A0A090C090D0C0C09090D04
S11301400D0C0A090909090C080B0E0A0C0D090A01
S113015009080907070A0A0A0A040503000000003F
S113016008050A0808090708080208090607000024
S1130170000B0B0D0A0C0C0C0D0C0E000000000003
S1130180000000000000000000000000000000006B
S1130190000000000000000000000000000000005B
S11301A00000000000C0FF0D0080FF1B00000800DD
S11301B000000E0000000400000060000000700059
S11301C00000200000000044000000881F0000F030
S11301D00700007C0200004C04000080E8010000DD
S11301E07F0000C02F0000C0450000008800000010
S11301F0380C0000F838000018C300003006010075
S1130200F0FF0F00C010040080610C00008E0F008E
S113021000180E000078000000F801000008040136
S11302200010080300C08F0100008F010000C0000F
S11302300000C0000000603C000060FC00003004CE
S113024002002008040000E007000080070000808E
S1130250070000BC1F0000FC43000018870000B02A
S11302601B0100C06302000080070000800F000033
S1130270001B0000080000000E0000000400000045
S1130280C07F0000E0FF0700F0001E007000E000E7
S1130290300080033000000C20000018800100189A
S11302A00006001C0078001F00C0FF0F0000FE03C2
S11302B000800D0000001A00000008000000FE018C
S11302C0000020000000A0000000600300000020E7
S11302D00000004000000080000000F01F0000E06B
S11302E03F000000040000000800000010000000AF
S11302F0004C0000005800000070000000010000E5
S113030000020000000400000008000000100000CB
S113031000200000004000000000300000007000D9
S11303200000C0000000C0010000C0000000600028
S113033000007000000030000000180000001C00E5
S11303400000E01F0000E07F00006080010060000A
S11303500600400008008000100000033000000C7C
S1130360300000F03F0000C01F000000000000004B
S11303700000000003000000030000000300000070
S1130380FE7F0000FCFF00000000000000000000F1
S11303900000000000060F00000F1F0000032300F0
S11303A0000247000004860000080E0100100C0241
S11303B000601C0400801F0800001E100000080CD0
S11303C000001C3800000CC00000080001001004EC
S11303D0020020080400401008008051180000BEEC
S11303E01900003C3E0000000C0000001E0000004C
S11303F02600000046000000870000000301000002
S113040003020000FE7F0000FCFF0000001000005B
S113041080C30000E087030040040C008004100047
S113042000092000001240000024800000C8C1011F
S11304300010FF010000FC000000FE010000FE0FA0
S113044000002210000022400000448000008800C8
S11304500100100102006006060080F9070000E2B6
S113046007000001000000020000000480000008F2
S1130470F0010010F80300203C0000401E00008042
S11304800E0000000700000006000000703C0000A1
S1130490F0FD0000300A01002008040040100800AC
S11304A080201000004120000046210000F87E005A
S11304B000E0780000C0C70000C09F0300C0600CCB
S11304C0008080100000012100000242000004C6E8
S11304D0000030C60000E0FF0000007F0000800143
S11304E00C0000071C000006300000086002003801
S11304F0C002002080030000080000002800000063
S1130500D8000000100100001004000030180000A2
S113051080080000001100000022000000440000D8
S113052000880000001001000020020000301800C4
S113053000401000000011000000360000002800F8
S11305400000200000000E0000001E000000060055
S113055000000400000008BC0100107C0300200C13
S1130560000080080000000F000000E0030000F01D
S11305700F00007030000020C00000203C0100404B
S1130580FC040040060900800C110000192300003F
S1130590E24F0000CCD10000902001006020000058
S11305A080730000003C000000001E000080070073
S11305B000E0070000F808000038100000F02000F8
S11305C000C04F000000FC000000C00F0000003C11
S11305D00000FE7F0000FCFF000008020100100480
S11305E0020020080400401008008020100000B71A
S11305F03000007C3F0000203C0000801F0000C051
S1130600FF0000C0810300C0000C00800010000047
S1130610012000000240000004800000108000005F
S1130620E0E00100E0FF0700C0FF0F0080001000C1
S1130630000120000002400000048000001080003F
S113064000E0C0010080FF010000FC000080FF1FEB
S11306500000FF3F00008240000004810000080207
S1130660010010040200200804004010080080006B
S1130670100000FF3F0000FE7F000004010000089E
S11306800200001004000020080000401000008058
S113069000000000F0030000F81F000038700000A4
S11306A01080000010000200200004004020080018
S11306B08041180000861800001C3F000020FE0046
S11306C000F8FF0100F0FF03000008000000100024
S11306D00000200000004000000080000000000135
S11306E00000F8FF0100F0FF0300E0FF0700C0FF77
S11306F00F00000010000000200000004000000077
S1130700C00000F8FF0000F0FF0000E0FF0700C099
S1130710FF0F0000C0010000C0000000C000000086
S1130720E0010000600E00006078000060C003007B
S113073040000E0080FF1F0000FF3F00000040004B
S1130740000080000000000100000002000000041E
S1130750000000080080FF1F0000FF3F00000E00A3
S1130760000078000000C0070000003C000000E02A
S1130770030000000E0000000F000080030000E0F2
S11307800100007000000018000000F0FF0300E00A
S1130790FF0700C0FF0F0080FF1F000003000000E0
S11307A01C0000006000000080030000001C00002A
S11307B0007000000080030000001C0000FF3F00E8
S11307C000FE7F0000C00F0000E07F0000E0C001D9
S11307D000400002004000080080001000000120DA
S11307E00000024000000840000070E00000C0FF6C
S11307F00000007E0000C0FF0F0080FF1F0000818A
S113080000000002010000040200000804000010BF
S113081008000060180000801F0000001E00000097
S1130820F0030000F81F0000387000001080000082
S11308301000020020000400400038008000D000B6
S113084000033001001C380200F03F0400801F0048
S113085000F0FF0300E0FF0700402000008040009C
S113086000008100000002010000040E000018FED8
S11308700000E087030080070400000F0300003F2E
S11308800C000063300000C2400000048300000834
S1130890060100100C0200601804008063040000CC
S11308A0C20F0000000F000002000000040000005E
S11308B00800000010000000E0FF0700C0FF0F0068
S11308C0800000000001000000020000000400009D
S11308D000F87F0000F0FF0100000006000000089F
S11308E0000000100000002000000040000000C0D4
S11308F00000F8FF0000F0FF000020000000C0032B
S11309000000003F000000F0030000001F00000092
S1130910F0000000C0010000F00000007C000000B6
S11309201F00008007000000010000007E0000009E
S1130930FC07000000FE000000C0030000C0070028
S113094000FE0000801F0000003F000000F00700D0
S113095000007E000000C0010000F00300E07F0002
S113096000C00F00008000100000033000000E38AB
S11309700000701C0000C00F0000000E0000007E8C
S1130980000000C7030080030E00000138000000CF
S11309904000000400000018000000F00000008087
S11309A0070000001E000000F01F0000C03F000010
S11309B0E0000000E00000007000000030000000D3
S11309C02000000040000C0080001C0000012E00EC
S11309D000024E0000048700008803010090030217
S11309E000E0010400C00108008000100000FFFFC7
S11309F00100FEFF030004000400080008003000AA
S1130A00000080010000000E0000003000000080A3
S1130A10010000000E000000300000008001001002
S1130A2000100020002000C0FF7F0080FFFF0000B6
S1130A3080010000C00100007000000038000000C8
S1130A4070000000000300000038000000C0000037
S1130A500000000100000002000000040000000883
S1130A600000001000000020000000400000008092
S1130A700000000001000300000006000000080060
S1130A8000002000000040000000000807000038BB
S1130A901F000018330000104200002084000040B2
S1130AA00801008011010000FE070000F80F00801B
S1130AB0FF1F0000FF1F0000202000002080000016
S1130AC040000100800002000007060000FC07004F
S1130AD000E0030000C0070000E03F0000E0E00089
S1130AE00040000100800002000001040000040432
S1130AF0000038060000C0070000E03F0000E0E00E
S1130B000000400001008000020000010400000415
S1130B10040080FF1F0000FF3F0000800F000080E2
S1130B207F000080C9000080110300002104000040
S1130B30420800008410000010310000E03300007F
S1130B40002700004000000080000000C0FF0700F4
S1130B50C0FF0F0080040000000900000002000034
S1130B60000000020000E70E0000FF1300006324F1
S1130B700000824800000491000018230100F8439B
S1130B8002009083070000000600F0FF0300E0FF6E
S1130B900700000800000008000000080000001022
S1130BA00000006000000080FF010000FE03002040
S1130BB0FF070040FE0F000000800000F9FF010065
S1130BC0F2FF0100FCFF0000F8FF0100003000000C
S1130BD0003000000030000000F0010000300F0081
S1130BE0003038000020C0000000000100F0FF03C6
S1130BF000E0FF070000FE0F0000FC1F00001000D3
S1130C0000001000000020000000C000000000FFF1
S1130C10030000FC070000040000000400000008BA
S1130C2000000030000000E0FF000000FF01008031
S1130C30FF030000FF0700000C0000000800000094
S1130C4018000000300000006000000080FF010078
S1130C5000FE030000F8000000FC0700001C180060
S1130C6000082000001040000020800000C0800127
S1130C700000FF010000F8000000FE7F0000FCFF00
S1130C800000101800001040000020800000400008
S1130C9001008081030000FE030000F0010000E079
S1130CA0030000F01F00007070000020800000406E
S1130CB0000100800002000002030000FC7F00002D
S1130CC0FCFF0000F83F0000F07F0000C0000000BF
S1130CD0C0000000800000000001000000100200BD
S1130CE000780C00009831000010430000208400BC
S1130CF000C01801008031020000E60300009003E8
S1130D0000000400000008000000FE3F0000FCFF9B
S1130D10000040000100800002000000040000FE0A
S1130D20030000FC0F000000300000004000000041
S1130D30800000000001000080010000FF070000A7
S1130D40FE0F00000400000078000000C00700004F
S1130D50007C000000C0010000C0030000F8000097
S1130D60003E0000000C00000018000000F001002C
S1130D7000001F000000F0010000C0030000F800A4
S1130D8000003E0000007C000000C0070000007C62
S1130D90000000F00000007C0000800F0000000351
S1130DA0000000020800000C180000381C0000C0FD
S1130DB00F0000000E0000003F000000C30100000F
S1130DC00106000000080000048000007800010013
S1130DD0C0070200007C030000C0030000E0000024
S1130DE000780000001E000000040000000830002D
S1130DF0001070000020B8000040380100801C0280
S1130E0000001F0400000E08000004100000000190
S1130E10000000070000F8FB0300F8E30F001000D7
S1130E20100020002000C0FF0F0080FF1F00000101
S1130E3000010002000200FCF10700F0F7070000C7
S1130E403800000020000000C0000000C0000000C6
S1130E50C00000008001000000060000000800003F
S1130E60003000000040000000C0000000C000008E
S1130E7000DC3F0000F87F0000C800000090000084
S1130E80002000000040000000800000000003007B
S1130E900000FC3F0000F87F000070000000A0018B
S1130EA0000060F20300C0F4070080360800003E32
S1130EB010000000200000FC7F0000F8FF0000E0AC
S1130EC001000060020000C0E4070080EF0F000092
S1130ED0621000007E20000000400000F8FF0000C7
S1130EE0F0FF0100C0FF030080FF070080E1030062
S1130EF000F1000000F20100004402000088030039
S1130F000030000000C0FF030080FF070000FE0F58
S1130F100000FE1F0000060F00008C030000B00755
S1130F20000060090000601C0000C000000000FF19
S1130F300F0000FC1F00001800000078000000985B
S1130F4078000030F90100E011020080F907008008
S1130F50F90700009F00000000030000000C0000DF
S1130F6000300000F0FF0100E0FF0300001C00005F
S1130F7000E00000000E07000016300000244000CE
S1130F8000F8FF0000E0FF0000C00000008038000F
S1130F90008058000000B1000000C20F000004608F
S1130FA0000018800000F0FF0100C0FF01000030C5
S1130FB00000009300000022010000C23F00000472
S1130FC07F0000086000001060000020E00100C005
S1130FD0C0040000FF090000FE1E0000001800000D
S1130FE030000000D000000030F9010060FA030076
S1130FF0C01B0400001B0800000C100000082000A7
S113100000F87F0000DCFF000018000000C00300AF
S113101000C004000080C90F0000DF1F0000CC20C6
S11310200000CC400000F080000040000100C0FF40
S11310300300E0FE0700C000000000EE0F0000FE09
S11310403F0000644800004890000010C0000020E9
S1131050000000C080030000FF090000FE13000030
S1131060003E00000008000000200000F0FF010026
S1131070E0FF030080FB030080FF0F000019120053
S113108000122400000430000008000000300018A2
S113109000C0FF790080FFD7000000E801000010C5
S11310A0020000200400FC7F0F00F87F0E0000C047
S11310B00000004002000080E40000F76F0300FF1E
S11310C0CF06003280050024000700080006001047
S11310D00018002000600080FFFF0100FFFF0100F6
S11310E0000C00000024070000480E0070FF3400CC
S11310F0F0FF280020037C004002380080008001BB
S11311000001C0000006000300F8FF0F00F0FF1FFD
S1131110000000F000800120018033C00180B5E0B0
S1131120030029010F00D2030C002C781700D08093
S11311304A00A0FFF50060FEF1008007000080096E
S1131140000000130000003A000000987F0000989F
S1131150FF0000F0790000C01C0000000600000041
S11311600300000003000000FE3F0000F87F0000C1
S1131170E0FF0000E0FF010060000300C018010070
S1131180005B010000B6010000C61D00000C7C00DD
S113119000F09F0000C03F010000E001000080005B
S11311A0000000020000FF1F0000FE3F0000B83FE7
S11311B00000F8FF000090210100204102004000DF
S11311C00300800000000003000000FC3F0000F862
S11311D07F00000020000000E0000000600300C069
S11311E0FF0400807F0D0000000E0000FC3F0000A3
S11311F0F87F000018C0000010470000207B0000AA
S113120040760000803800000003000000FC3F002E
S113121000F87F0000E0FF0000E0FF010060000331
S113122000C0180100005B010000B6010000C60107
S113123000000C000000F0FF0000C0FF0100C0FD32
S11312400100C0FF0700800C090000091E00000215
S11312501000000400000018000000E0FF0100C0BE
S1131260FF03008003000080050000000900000067
S1131270FE3F0000F87F0000001E00000003000095
S113128080010000800000008001000000FF1F00BA
S113129000FC3F0000383F000050FE0000B0000199
S11312A000200102004002040080050800001A101A
S11312B00000E43F0000CC3F000070000000B000DC
S11312C0000020010000C0FF070000FF0F00000025
S11312D00E0000000600000006000000040000F0FC
S11312E0FF0000E0FF03000060060000800700002C
S11312F00E0000001600000024000000F87F00002B
S1131300E0FF0100000002000000040000000800EB
S1131310000010000000200000FC7F0000F87F00A7
S113132000E0000000600100004002000080FF07B0
S11313300000FE1F000000200000004000000080AC
S113134000000000010000000200FFFF0700FEFF94
S1131350070000FE1F0000FE3F000024700000781C
S11313603800000018000000E000000000070080C2
S1131370FF0F0000FF1F0000FC3F0000FC7F000087
S113138048E00000F07000000030000000C00100E0
S113139000000E00FCFF1F00F8FF3F0000380000B3
S11313A0005800000090000000E0FF030080FF07E9
S11313B00000C0070000F80000003E0000007C00B0
S11313C00000800F000000F00000E0FF0300C0FFF9
S11313D0070000070000000B00000012000000FCE2
S11313E07F0000F0FF000000F80000001F0000C0B4
S11313F0030000800F000000F0010000001E00F058
S1131400FF7F00E0FFFF000000C00000004002007A
S11314100080040000F70F0000FF0F0000320000FE
S1131420002400000008000000100000006000001C
S11314300080FF070000FF0F00000E0F00001E3F9A
S1131440000024420000F8FF0000E0FF000000302C
S1131450000000C000000000030000FF1F0000FEA9
S11314603F0000783C000078FD00001005010020DA
S11314700A020080130400000008000000100000AD
S1131480FE3F0000FC3F000060000000E0000000A0
S1131490600100004002000080040600001B1200EE
S11314A00026240000C87F0000187F0000E0FE0032
S11314B000E0FF03004086040080040F00000108E0
S11314C00000020000000C000000F0FF1F00E0FF1D
S11314D03F00C0FC0100C0FD07008018090000198E
S11314E01E000022100000C4000000180E0000E0DE
S11314F0FF0100C0FF03000000030000000900001A
S113150000120000DC3F0000FC3F0000C8000000A7
S11315109000000020000000400000008001000056
S113152000FEFF0300FCFF07001800000018000085
S113153000100000002080010040800400800009A9
S11315400000FF1F0000FC1F0000F87F0000F0FFF8
S11315500000307C0000201E0000403E0000804857
S11315600000007100000006000000FC7F0000FE87
S1131570FF00000C000000C0010000C00200008059
S113158004000000FF0F0000FC3F000000400000CA
S113159000870000001A0100003C02000040040023
S11315A080FF0F0000FF0F00000003000080030015
S11315B000307F000070FF010020460200408607D3
S11315C00080080400003100000086030000FC7F56
S11315D00000FEFF00000C000000C0010000C0027B
S11315E000008004000000FF1F0000FC3F0000001A
S11315F00700000003000060030000200300004017
S113160006000080FF0F0000E61F00001C00000021
S11316102C00000048000000F0FF0100C0FF0300A0
S11316200080030000C0010080E300000005070003
S1131630000A380000FCFF0000F8FF01003C000035
S11316400080F9030080FB0F00009110000062216C
S11316500000044100000880000030000100C0FFC9
S1131660030080FF030000F3070000B51F00002AF9
S1131670220000944700002880000050000100E090
S1131680000200C0FF0700C0FF0700800000000048
S11316900C0000003C000000C8000000F001000045
S11316A0C00200000002040000060C0000FF1F003E
S11316B000FC1F000030180000904800002091003A
S11316C00080C3010000040200000C0400001E0F8F
S11316D000000C0E00600000002001000040020029
S11316E000000700000008000000180000001800B7
S11316F0000018000000100000000030000000305E
S113170000000020000000400000008000000000F5
S1131710FF1F0000FC3F000018000000180000003C
S113172010000000200000004000000000FF0F0037
S113173000FE1F003000000050000000A000000068
S1131740200100004002000080040000000A0000A4
S113175000140000003000000060000000C0000021
S11317600040010000400200008004000000090065
S11317700000120000002800000060000000F000DB
S11317800000E00100000003000000050000000963
S1131790000000120000002400000050000000E0DF
S11317A000000020010000400200000003000000CF
S11317B00C00000014000000240000004800000099
S11317C090000000400100000003000080070000BA
S11317D000080000001E000000000080030000005C
S11317E0050000003E0000007C00000038000000FE
S11317F050000000E003000000040000800F00001F
S113180000070000000A0000001C00E0FF0300C005
S1131810FF070080200800C0FF7F0080FFFF00005A
S11318200441000018C50000E0FB0000E0FF0100D7
S1131830C0FF0700000009000000120000001800AB
S113184000FC3F0000F8FF00000020010000C0037E
S1131850000000000080FF070000FF1F00000024BC
S1131860000000480000006000300000007000002C
S113187000A000000060FFFF07C0FCFF1F80010004
S113188024000600480008006000F0000000500238
S113189000002003000040F0FF0780FBFF1F001E34
S11318A0002400000048000000600078000000C030
S11318B001000080030000C003000080F8FF0F0057
S11318C0FFFF3F001E004800000090000000C00021
S11318D000C0000000400000008000000000010083
S11318E0000002000000F8FF0F00F0FF1F00E001FD
S11318F0000060020000C007000080010000000E2C
S113190080000006800100FCFF0100F0FF01E00000
S11319100000200100002001000040040000800CB1
S1131920000000150000001B000000020000000F72
S11319300000001E0000002C00000068000000B041
S1131940000000000100000002000000060000008A
S1131950070000000600000030000000B000000096
S1131960A00100008001000080000000000B0000C6
S1131970000C00000010000000180000001000001F
S11319800020000000F0010000E00300000001005E
S11319900000020000003800000050000000E000D9
S11319A00000400000000001000080010000000170
S11319B000000000003C000000FE0100000C0300D9
S11319C0000C0C0000081000001020000020400053
S11319D00040800000808101000086010000F801C1
S11319E00000E0030000E00C000040200000405C28
S11319F0000080A8000000D1010000E20100008482
S1131A0009000010180000E01F0000001F00000281
S1131A100000000C000000F8FF0000E0FF030000DD
S1131A2000040000F0090000F01700002029000065
S1131A30405E0000809100000001010000FE0300F0
S1131A4000FC030000F0070000301C00002024000C
S1131A50004048000080770000000E0000000200F3
S1131A60000004000000F80F0000E01F0000800FD9
S1131A700000803F000080C10000000101000072EE
S1131A80020000B405000068070000900B0000206D
S1131A90100000606000007480000070000000000E
S1131AA0F8000000F8030000180C000010100000FB
S1131AB02C27000068590000D8720000E0B900002B
S1131AC000020100000606004006080000070000AE
S1131AD00007000000FC010000C07B000000920031
S1131AE00000A2030000C405000008080000101054
S1131AF000002030000080200000007F0000007CF7
S1131B00000000FC0100000C0700000809000010A0
S1131B10120000E01D0000800100008000000000B1
S1131B2081010000FE030000F8030000FF0700002D
S1131B30FF03000003000000001F0000007F0000FE
S1131B400083010000C203000084000000080300B9
S1131B5000900F00002035000040520000C0FC003F
S1131B6000C8F00000E000000000F0010000F807E9
S1131B70000070180000602C00004054000080C970
S1131B80000000F30000009C00000078000000B892
S1131B90030000300C0000C030000080410000F859
S1131BA001004E414E494E495459494E46CDCCCC84
S1131BB03D0AD7233C17B7D13877CC2B329595E61D
S1131BC0241FB14F0A000020410000C84200401CFD
S1131BD04620BCBE4CCA1B0E5AAEC59D74001124CF
S1131BE01FBECFE5D8E0DEBFCDBF12E0A0E6B0E077
S1131BF0ECE3F9E702C005900D92A030B107D9F7E4
S1131C0022E0A0E0B2E001C01D92A23FB207E1F7DA
S1131C100E94242F0C949C3C0C940000909310027E
S1131C2080930F02FC013296E491E0930D02FC01D3
S1131C303396849180930E0208952F923F924F928F
S1131C405F926F927F928F929F92AF92BF92CF9248
S1131C50DF92EF92FF920F931F93CF93DF93CDB751
S1131C60DEB72A970FB6F894DEBF0FBECDBF209122
S1131C700F0230911002F901A591B491F901359642
S1131C80949131961491682F70E0492F50E0FB0134
S1131C903796E41BF50BE20FF31F04910C831982B2
S1131CA0E0917800F0917900F887EF838A30A1F40D
S1131CB0F090610000910E02E0910002F0910102A7
S1131CC0F09EE00DF11D1124F0930102E093000257
S1131CD01092030210920202891708F464C11817C3
S1131CE008F463C1AB2B09F462C10C81002309F42D
S1131CF060C190910502992321F000910D020C839B
S1131D0019C09CE2980F973030F099E1980F963003
S1131D1010F0813D79F490916200E0910202F0911B
S1131D2003020C81099FE019F1091124F0930302C5
S1131D30E093020280538A3030F4F901E41BF50B7E
S1131D40F79604910C8380916200FC81EF2FF0E000
S1131D50FA87E987E0910202F09103020C81809FE7
S1131D60E00DF11D1124E03FF105A0F09091610018
S1131D7080910E02E0910002F0910102989FE00D23
S1131D80F11D1124F0930102E0930002109203026A
S1131D9010920202641B750B1616170694F4A0E049
S1131DA080E090E0EA2FF0E03796E20FF31FE49131
S1131DB08E0F911DAF5FEA2FF0E0E617F70794F35B
S1131DC002C080E090E060910E02689F9001699FDC
S1131DD0300D1124812F90E0841B950B0796880FFA
S1131DE0991F880F991F880F991F820F931F9C01B9
S1131DF0369527953695279536952795482F47701C
S1131E00442E0C81002309F4ABC01B821A82812C5E
S1131E10912CC90101969E838D83212C522C9AC04A
S1131E2097E0941520F4AFEF8A1A9A0A422CE091B5
S1131E300F02F09110028D819E81880D991DE80F8B
S1131E40F91FE491E98320916200EA81FB812E9FCE
S1131E5050012F9FB00C1124809102029091030233
S1131E60A80EB91E80916100C0900002D0900102BA
S1131E70389EC00CD11C1124222309F45BC001E05C
S1131E8010E0042C02C0000F111F0A94E2F7622C28
S1131E9048C0898190E080239123892BD1F08091DF
S1131EA0630090916400909379008093780080910E
S1131EB00802882339F0B701C601870D911D0E94DD
S1131EC0311924C0B601670D711DC7010E94311973
S1131ED01DC0809104028823C9F08091060290916C
S1131EE007029093790080937800809108028823F8
S1131EF039F0B701C601870D911D0E94311906C042
S1131F00B601670D711DC7010E9431197394809148
S1131F106100781608F4BDCF63948091620068165E
S1131F2048F4809161008823B9F3752C7501E60C9F
S1131F30F11CAFCF4394339480910E02381608F409
S1131F406FCF2A813B812F5F3F4F3B832A830C81D4
S1131F50201730F480910E02882399F3312C60CF3E
S1131F602F81388530937900209378005091620056
S1131F7040916000E985FA855E9FC0015F9F900DE6
S1131F801124840F911D2091020230910302820FCB
S1131F90931F9093030280930202842F0C81059F68
S1131FA0800D112407C080E005C080E003C080E0FC
S1131FB001C080E02A960FB6F894DEBF0FBECDBFF5
S1131FC0DF91CF911F910F91FF90EF90DF90CF9011
S1131FD0BF90AF909F908F907F906F905F904F9045
S1131FE03F902F900895AF92BF92CF92DF92EF92DD
S1131FF0FF920F931F93CF93DF9300910F021091E1
S11320001002F8013596C4903196B490DC01EC913D
S1132010EE23A9F1D0900502A0900D026091620018
S113202070E0A69EE001A79ED00D112420916000CF
S113203030E0119680E090E0EC2CF12CDD2019F0DA
S11320408C0F9D1F16C0EC1550F0BE1650F0F0E03A
S11320503796EE19FF09E00FF11FE49103C0EA2D52
S113206001C0EA2DE69FA001E79F500D1124840FC3
S1132070951F820F931FED91E111E0CF02C080E024
S113208090E0DF91CF911F910F91FF90EF90DF903F
S1132090CF90BF90AF9008950F931F93CF93DF938A
S11320A0EC018881882369F010E000E00E941D0E95
S11320B0080F1F5FFE01E10FF11D80818111F6CF32
S11320C001C000E0802F90E0DF91CF911F910F912C
S11320D008958F929F92AF92BF92CF92DF92EF9228
S11320E00F931F93CF93DF93EC016B014A015901C6
S11320F0C8010E94F30FAC18BD0820910E02A21A69
S1132100B108B694A794CA0CDB1C21E0E21621F0B6
S113211022E0E21651F00FC08C1A9D0A881A990A1F
S113212096948794C80DD91D06C08815990518F48E
S1132130E401C81BD90BD0930302C0930202D092CE
S11321400102C0920002C8010E944C10DF91CF919D
S11321501F910F91EF90DF90CF90BF90AF909F9021
S11321608F9008952F923F924F925F926F927F9239
S11321708F929F92AF92BF92CF92DF92EF92FF9293
S11321800F931F93CF93DF93CDB7DEB72A970FB684
S1132190F894DEBF0FBECDBF4817590750F4F62F91
S11321A0E72FB9012F2F3E2FF82FE92FCA014F2F08
S11321B05E2F8417950719F06217730739F400919D
S11321C07800109179000E943A19DEC0FA01E81BE8
S11321D0F90B3F0122F4662477246E1A7F0AF90171
S11321E0E61BF70B2F0122F4442455244E1A5F0AF0
S11321F07C018B014817590720F022242394312CA9
S113220003C022242A94322C2617370728F021E011
S113221030E03E832D8304C04FEF5FEF5E834D8338
S1132220641475040CF459C04201AA2497FCA094C8
S1132230BA2C880C991CAA1CBB1CC301AA2797FDA5
S1132240A095BA2F881A990AAA0ABB0A77200CF417
S11322509BC0C201880F991F9C01442737FD4095FC
S1132260542F2F83388749875A8746185708440CB8
S1132270551CC201AA2797FDA095BA2F89839A837A
S1132280AB83BC836101E20CF31C412C512CB801DB
S1132290C7018C199D090E943119BB204CF42F8170
S11322A0388549855A85820E931EA41EB51E0CC01E
S11322B089819A81AB81BC81880E991EAA1EBB1E9E
S11322C0AD81BE810A0F1B1FBFEF4B1A5B0AEC0CDA
S11322D0FD1C64147504DCF657C04301AA2497FC62
S11322E0A094BA2C880C991CAA1CBB1CC201AA2756
S11322F097FDA095BA2F881A990AAA0ABB0A5520F5
S11323000CF442C0C301880F991F9C01442737FD78
S11323104095542F2F83388749875A876418750846
S1132320660C771CC301AA2797FDA095BA2F898351
S11323309A83AB83BC83CD80DE800C0D1D1D612C84
S1132340712CB8016C197D09C7010E943119BB2099
S11323504CF42F81388549855A85820E931EA41E1C
S1132360B51E0AC089819A81AB81BC81880E991EF1
S1132370AA1EBB1EE20CF31C9FEF691A790A0C0D0E
S11323801D1D46145704ECF62A960FB6F894DEBFCA
S11323900FBECDBFDF91CF911F910F91FF90EF90B2
S11323A0DF90CF90BF90AF909F908F907F906F9071
S11323B05F904F903F902F900895AF92BF92CF922D
S11323C0DF92EF92FF920F931F93CF93DF935C0101
S11323D07B01EA01690100917800109179009B0169
S11323E00E943A1900917800109179009601AE018B
S11323F0B601C5010E943A19009178001091790044
S11324009601A501B701C5010E943A19009178000F
S1132410109179009601AE01B701CE010E943A19DC
S1132420DF91CF911F910F91FF90EF90DF90CF90AC
S1132430BF90AF9008952F923F924F925F926F9208
S11324407F928F929F92AF92BF92CF92DF92EF9240
S1132450FF920F931F93CF93DF93CDB7DEB72D97E2
S11324600FB6F894DEBF0FBECDBF3C012B8781E0D1
S113247090E06C01C41AD50A1B015B01430123E0FF
S113248030E03C832B8344244394512C5D874C8758
S11324907E826D8278876F83A201415051095A87E9
S11324A049875B85552309F43FC00091780010915A
S11324B079006F8178858C859D85680F791F9B01D4
S11324C0A401C3010E943A19009178001091790087
S11324D06F817885EC85FD856E1B7F0B9B01A401C4
S11324E0C3010E943A190091780010917900950176
S11324F04D815E818C859D85480F591F5A83498380
S1132500B501ED80FE80E81AF90AC7010E943A1964
S11325100091780010917900910149815A81B101AB
S1132520C7010E943A1938C00F811885EC85FD85D2
S11325300E0F1F1FB801C4010E943119B501ED80AF
S1132540FE802C853D85E20EF31EC7010E943119E1
S1132550B801C3010E943119B5010D811E814C855A
S11325605D85041B150BC8010E943119B101C70117
S11325700E943119EF80F8848C859D85E81AF90A48
S1132580B701C4010E943119B701C3010E94311976
S1132590B101C8010E943119DD2034F4C201EB817C
S11325A0FC81CE0EDF1E11C0C20129853A854C85FF
S11325B05D85241B350B220F331F2B5F3F4FC20E4B
S11325C0D31E415051095D874C875FEF451A550A68
S11325D0EB81FC813296FC83EB83F1E06F1A710886
S11325E02FEF821A920A3FEFA31AB30A41E0241A8A
S11325F03108EC85FD85E817F9070CF04DCF2D96D1
S11326000FB6F894DEBF0FBECDBFDF91CF911F91FF
S11326100F91FF90EF90DF90CF90BF90AF909F907D
S11326208F907F906F905F904F903F902F90089580
S11326302F923F924F925F926F927F928F929F92CE
S1132640AF92BF92CF92DF92EF92FF920F931F93BC
S1132650CF93DF93CDB7DEB72C970FB6F894DEBFD8
S11326600FBECDBF98878F832B013A0119011C87B8
S11326700B87EE2009F4C1C0480181E090E07C01A1
S1132680E01AF10A00917800109179002150310983
S1132690280D391D6F5F7F4F681979098F819885DF
S11326A00E943A1903E010E0CC24C394D12CA12C4D
S11326B0B12C5C824B8226017A82698237013A8688
S11326C0298618012DC08F81988588199909009150
S11326D0780010917900C984DA84CA0CDB1C960155
S11326E0AC01EB80FC80EA18FB08B7010E943A19A0
S11326F089819A81880D991D009178001091790043
S11327009601AC01B7010E943A198D809E802FEF8B
S1132710A21AB20A3FEF431A530A42E0240E311CB4
S11327206501A814B90431F1009178001091790081
S1132730E984FA84E80CF91C97014F8158858B8150
S11327409C81881999099E838D83BC01CA018A19C9
S11327509B090E943A190091780010917900970121
S113276049815A814A0D5B1D6D817E8189819A81DF
S11327700E943A19772064F4620C731C8414950443
S113278034F64B805C8069807A8029843A8435C031
S1132790F4013197FE83ED83C60188199909880FE6
S11327A0991F0596680E791EE415F5050CF08BCF7C
S11327B04B805C8069807A8029843A845601A20C1B
S11327C0B31C7201EC18FD088F819885881999094A
S11327D000917800109179009501AC01B7010E9435
S11327E03A19C401860D971D009178001091790063
S11327F09501AC01B7010E943A198B849C8481E055
S113280090E05C01A818B9080F2EF3E0CF2ED12C6C
S1132810F02DEE24E394F12C00E010E09A828982FA
S11328205A86498626017E826D82350130C0009722
S113283031F129813A818217930709F1C984DA8435
S1132840CE18DF08B601AF80B884A21AB30AC50156
S11328500E9431194701820C931CB401C5010E94E6
S11328603119B601CD80DE8049815A81C40ED51E4E
S1132870C6010E943119B401C6010E9431190F5FCB
S11328801F4F5FEFE51AF50A82E0480E511CC98418
S1132890DA84E981FA81CE1ADF0AB6018F8098843E
S11328A0801A910AC4010E943119B601CD80DE80DC
S11328B0C00ED11EC6010E943119A980BA80A20C93
S11328C0B31CB501C4010E943119B501C6010E94AF
S11328D03119772024F4C701640C751C10C0C7019A
S11328E0980149815A81241B350B220F331F2B5F1A
S11328F03F4F620E731E415051095A834983E98147
S1132900FA81E817F9070CF092CF49845A846D8054
S11329107E80B2012B853C85621B730B009178008D
S1132920109179009B01A3018F8198850E943A1927
S11329306B857C85620D731D009178001091790080
S11329409B01A3018F8198850E943A198F819885F4
S11329504B855C85841B950B009178001091790060
S11329609101AC01B2010E943A198B859C85860DB8
S1132970971D00917800109179009101AC01B2018A
S11329800E943A192C960FB6F894DEBF0FBECDBF45
S1132990DF91CF911F910F91FF90EF90DF90CF9037
S11329A0BF90AF909F908F907F906F905F904F906B
S11329B03F902F90089581E0089581115EC0109298
S11329C01B0210921A02109212021092110210921B
S11329D0150210921402109217021092160281E04E
S11329E080931902109218028093130210924C02E1
S11329F0E0917000F091710081E090E0AC010090F2
S1132A00660002C0440F551F0A94E2F79C0100902F
S1132A10650002C0220F331F0A94E2F7242B20839F
S1132A20E0917400F09175007083E0917600F0916C
S1132A3077006083EEE6F0E0A081B1819C01009014
S1132A40670002C0220F331F0A94E2F72C9301900F
S1132A50F081E02D40819C010090680002C0220FAB
S1132A60331F0A94E2F70090690002C0880F991F8F
S1132A700A94E2F7822B842B8083089581110EC07F
S1132A8040911A0250911B022091110230911202BE
S1132A9081E04217530719F480E0089580E0089517
S1132AA081116CC080914C02815080934C028091C2
S1132AB01302811133C080914C02863078F58091E5
S1132AC018028111FCCF81E18093180281E0809388
S1132AD0130280911902882309F110921902E091DE
S1132AE06E00F0916F00408181E090E09C010090C5
S1132AF06A0002C0220F331F0A94E2F7242B2083BA
S1132B00E0917200F0917300208100906B0002C08C
S1132B10880F991F0A94E2F7822B808320911A026E
S1132B2030911B02809111029091120228173907EB
S1132B3039F1E0911A02F0911B02E45EFD4F8081AD
S1132B40E0911A02F0911B02E45EFD4F1082209185
S1132B501A0230911B022F31310558F420911A02C8
S1132B6030911B022F5F3F4F30931B0220931A02B8
S1132B70089510921B0210921A02089580E008959D
S1132B8080E00895CF93DF9390E09C01220F331FE0
S1132B90F901EF5EFD4F40815181280F391FD901A2
S1132BA0AA0FBB1FAA0FBB1FA459BF4F0D90BC9106
S1132BB0A02D2C91DC01AA0FBB1FA295B295B07F6A
S1132BC0BA27A07FBA27A40FB51FA45EBD4F2C93CC
S1132BD0208131812F31310560F4FC01EE0FFF1F9C
S1132BE0EF5EFD4F208131812F5F3F4F3183208382
S1132BF007C0FC01EE0FFF1FEF5EFD4F1182108234
S1132C00FC01E45BFD4F20812F5F2083FC01ED5E1E
S1132C10FD4F2081213009F04DC0FC01E45BFD4FE4
S1132C2020812B3108F446C023E1FC01E85EFD4F0E
S1132C302083FC01ED5EFD4F1082FC01E75EFD4F39
S1132C4020812223B9F1FC01E75EFD4F1082FC01D3
S1132C50EE0FFF1FE80FF91FEE0FFF1FEE0FFF1F10
S1132C60E459FF4FC281D3814881DC01AA0FBB1F05
S1132C70AA0FBB1FAA0FBB1FA81BB90BAB59BF4F91
S1132C8081E090E09C0115960C90159702C0220FEC
S1132C90331F0A94E2F7242B28830680F781E02D62
S1132CA0208116960C9002C0880F991F0A94E2F7AF
S1132CB0822B8083DF91CF910895CF93DF9390E0AF
S1132CC0FC01E85EFD4F20812223A1F0FC01EE0F00
S1132CD0FF1FE80FF91FEE0FFF1FEE0FFF1FE45950
S1132CE0FF4FA081B181FC01E85EFD4F80818C9390
S1132CF0108274C09C01220F331FF901EC5EFD4F5A
S1132D0040815181F901EA5EFD4F208131814217F2
S1132D105307C1F1FC01EE0FFF1FDF01A80FB91F1C
S1132D20AA0FBB1FAA0FBB1FA459BF4F0D90BC9184
S1132D30A02DEC5EFD4F20813181EC01C295D2952E
S1132D40D07FDC27C07FDC27C20FD31FC45CDD4FDC
S1132D5028812C93208131812F30310558F4FC01D6
S1132D60EE0FFF1FEC5EFD4F8081918101969183F0
S1132D70808334C0FC01EE0FFF1FEC5EFD4F118217
S1132D8010822CC0FC01E75EFD4F21E02083FC0192
S1132D90EE0FFF1FE80FF91FEE0FFF1FEE0FFF1FCF
S1132DA0E459FF4F0280F381E02D4081DC01AA0F3A
S1132DB0BB1FAA0FBB1FAA0FBB1FA81BB90BAB5984
S1132DC0BF4F21E030E0C90115960C9002C0880F76
S1132DD0991F0A94E2F7809584238083DF91CF9131
S1132DE008951F920F920FB60F9211242F933F93C1
S1132DF04F935F936F937F938F939F93AF93BF93FF
S1132E00EF93FF9380E00E94C215FF91EF91BF9171
S1132E10AF919F918F917F916F915F914F913F916E
S1132E202F910F900FBE0F901F9018951F920F9225
S1132E300FB60F9211242F933F934F935F936F9389
S1132E407F938F939F93AF93BF93EF93FF9380E010
S1132E500E945D16FF91EF91BF91AF919F918F9169
S1132E607F916F915F914F913F912F910F900FBE82
S1132E700F901F9018950F930061202B422B642B09
S1132E80862B8DB9BD9ABF9A6E9A0F9108956E984C
S1132E90089521E0209309029093500280934F02F9
S1132EA010924E0210924D02109252021092510250
S1132EB01816190659F1E0915102F0915202E60FE9
S1132EC0F71F80818FB9809151029091520201962F
S1132ED09093520280935102779BFECF8FB1E09181
S1132EE04D02F0914E02E60FF71F808380914D0250
S1132EF090914E02019690934E0280934D02209140
S1132F004F023091500228173907A9F6109209028E
S1132F10089556E646E006C0000021503109211507
S1132F203105D1F7019718F0252F342FF5CF0895E7
S1132F30939892988BBB15BA9598959A939A0895FD
S1132F409398929A8BBB95BB9598959A939A08956A
S1132F50CF93DF93EB010E949817CE010E94A01734
S1132F60DF91CF910895939892988BBB15BA959859
S1132F70959A1ABA14BA9498000083B390E0982FE3
S1132F80882739B3949A939A2FEF2ABB24BB832BB7
S1132F9008958FEF85BB8BBB8ABB84BB939A929AAF
S1132FA0959A949A97988B9A8A9A8D9A8C9A8F9AD2
S1132FB084E190E00E948917979A84E190E00E944E
S1132FC0891708950E94C91780E00E94B3172FEF54
S1132FD02ABB24BB8BBB95BB80E00E94981781E081
S1132FE090E00E94A0178FE090E00E94891783E090
S1132FF00E9498178CEA9AEA0E94A0178CE00E941B
S1133000981782E090E00E94A0178DE00E94981724
S11330108AE090E00E94A0178EE00E94981780E05A
S11330209CE20E94A0178EE10E94981788EB90E022
S11330300E94A0178FE090E00E94891781E00E940F
S113304098178FE39BE20E94A01782E00E949817D2
S113305080E096E00E94A01780E10E94981780E02B
S113306090E00E94A01781E10E94981780E390E607
S11330700E94A01784E190E00E94891785E00E94D5
S1133080981780E090E00E94A01786E00E949817AD
S113309080E090E00E94A01786E10E9498178CE1DE
S11330A09FEE0E94A01787E10E94981783E090E0AA
S11330B00E94A01787E00E94981783E392E00E9481
S11330C0A0178BE00E94981782E193E50E94A01755
S11330D08FE00E94981780E090E00E94A01784E19E
S11330E090E00E94891781E40E94981780E090E0A4
S11330F00E94A01782E40E94981780E090E00E944A
S1133100A01788E40E94981780E090E00E94A0171E
S113311089E40E9498178FE391E00E94A01784E449
S11331200E94981780E09FEE0E94A01785E40E94F9
S1133130981780E090E00E94A01786E40E949817F8
S11331408FE391E00E94A01784E190E00E94891728
S113315080E30E94981787E097E00E94A01781E31C
S11331600E94981784E097E00E94A01782E30E94CF
S1133170981784E092E00E94A01783E30E949817B6
S113318081E092E00E94A01784E30E94981783E0F4
S113319092E00E94A01785E30E94981784E092E0D1
S11331A00E94A01786E30E94981784E092E00E9490
S11331B0A01787E30E94981782E095E00E94A01769
S11331C08AE30E94981782E093E00E94A0178BE3A1
S11331D00E94981780E095E00E94A01784E190E097
S11331E00E9489170895CF93DF93EB01BC018EE40D
S11331F00E94A817BE018FE40E94A81782E20E94D1
S11332009817DF91CF910895DF92EF92FF920F9379
S11332101F93CF93DF93EC018B01D42E790184E4C7
S11332200E94981780E090E09D2D8C2B9D2B0E948E
S1133230A01785E40E949817C8010E94A01786E48D
S11332400E949817C7010E94A017B801CE010E94DE
S1133250F318DF91CF911F910F91FF90EF90DF90C2
S113326008950E94F31880917800909179000E944B
S1133270A01708956F927F928F929F92AF92BF9200
S1133280CF92DF92EF92FF920F931F93CF93DF932E
S11332905C016B017A0149010E9404198C149D049C
S11332A0B0F06A2C7B2C0DC0C8010E94A017219697
S11332B0EC16FD06C8F78FEFC81AD80A8C149D04C3
S11332C030F0EA14FB04B8F3C62DD72DEDCF2FE36D
S11332D031E04FEE50E060E070E080E090E00E946A
S11332E00419DF91CF911F910F91FF90EF90DF9020
S11332F0CF90BF90AF909F908F907F906F900895E4
S11333000F931F938C012FE331E04FEE50E060E008
S113331070E080E090E00E943A191F910F910895A7
S113332080915B0290915C02089580915D0290917E
S11333305E02089586B382FB882780F991E089278D
S11333400895AF92BF92CF92DF92EF92FF920F93C4
S1133350CF93DF9380E9809353020F2EF4E5AF2ED1
S1133360F2E0BF2EF02DF50110820F2EF5E5CF2EE1
S1133370F2E0DF2EF02D80EDF60180830F2EF6E5CE
S1133380EF2EF2E0FF2EF02DF7011082C7E5D2E018
S1133390188200E020E042E060E080E00E943B17F9
S11333A0BC9AC49863E572E085E090E00E944917F6
S11333B0C49A0E944717F5018081F0E28F9FC001F3
S11333C0112490935E0280935D0280915D0290913E
S11333D05E02F6012081269526952695822B9093F0
S11333E05E0280935D02F7018081F0E28F9FC0014D
S11333F0112490935C0280935B0280915D02909112
S11334005E022881269526952695822B90935E024E
S113341080935D02DF91CF910F91FF90EF90DF9049
S1133420CF90BF90AF900895C49A0E94A1190895B7
S1133430EF92FF920F931F93A0E0B0E040918E00B3
S113344050918F0060919000709191007C018D01EA
S1133450E41AF50A060B170BA801970160918A007C
S113346070918B0080918C0090918D000E94403768
S11334702091860030918700409188005091890006
S11334800E945037CA01B90160567F4F8F4F9F4F3A
S11334901F910F91FF90EF900895EF92FF920F9379
S11334A01F93A0E0B0E040918200509183006091AE
S11334B08400709185007C018D01E41AF50A060BE5
S11334C0170BA801970160917E0070917F00809195
S11334D08000909181000E94403720917A003091C1
S11334E07B0040917C0050917D000E945037CA01BE
S11334F0B90168587F4F8F4F9F4F1F910F91FF90D5
S1133500EF9008954F925F926F927F928F929F9265
S1133510AF92BF92CF92DF92EF92FF920F931F93DD
S1133520CF93DF93CDB7DEB76C970FB6F894DEBFB9
S11335300FBECDBF3A01890120E030E044EB52E4F4
S11335400E9401346B017C0120E030E044EB53E441
S11335500E943036181654F420E030E044EB53E473
S1133560C701B6010E9400346B017C012BED3FE0E2
S113357049E450E4C701B6010E94343620E030E04B
S113358044E353E40E946C344B015C012BED3FE0B7
S113359049E450E40E94013469837A838B839C83D9
S11335A020E030E044EB53E40E943036181654F423
S11335B020E030E044EB53E4C501B4010E94003440
S11335C04B015C01C501B4010E9469346B017C01AB
S11335D0B301882777FD8095982F0E9407352B012A
S11335E03C019B01AC01C701B6010E94343620E0C6
S11335F030E04EEE52E40E9401346D837E838F836B
S11336009887C501B4010E94B7369B01AC01C30180
S1133610B2010E9434369B01AC0160E070E081E5A8
S113362093E40E9400346B017C01012B99F40E9405
S1133630D4346B017C016D817E818F8198850E94D9
S1133640D4349601AB0161ED70E087E790E00E940D
S1133650B21080C12BED3FE049E450E4C501B40150
S11336600E94013423EC38EB42E35EE30E94003411
S11336704B015C010E9469346D877E878F87988B2C
S1133680C501B4010E94B7369B01AC01C301B2016C
S11336900E9434369B01AC01C701B6010E9400347C
S11336A00E94D43469877A878B879C872D853E85D1
S11336B04F855889C301B2010E9434369B01AC0185
S11336C06D817E818F8198850E9401340E94D4345B
S11336D06D877E878F87988BC701B6010E94D4348B
S11336E0698B7A8B8B8B9C8B6D817E818F81988586
S11336F00E94D4346D8B7E8B8F8B988F29853A856D
S11337004D855E8569897A898D899E890E94B2106A
S113371023EC38EB42EB5EE3C501B4010E940134B3
S11337204B015C010E946934698F7A8F8B8F9C8F67
S1133730C501B4010E94B7369B01AC01C301B201BB
S11337400E9434369B01AC01C701B6010E940034CB
S11337500E94D4344B015C01298D3A8D4B8D5C8DD4
S1133760C301B2010E9434369B01AC016D817E819C
S11337708F8198850E9401340E94D4346B017C01AE
S11337809401AB0169897A898D899E890E94B2105E
S11337909401A60169857A858D859E850E94B21063
S11337A069817A818B819C810E9469349B01AC017F
S11337B0C301B2010E94343620E030E04EEE52E400
S11337C00E9401346D837E838F83988769817A8117
S11337D08B819C810E94B7369B01AC01C301B2016D
S11337E00E9434369B01AC0160E070E081E593E413
S11337F00E9400346B017C018EE99FEE9093790066
S1133800809378002BED3FE049E450E469817A81AC
S11338108B819C810E94013423EC38EB42E35EE30C
S11338200E9400344B015C010E94693469877A87E5
S11338308B879C87C501B4010E94B7369B01AC01FC
S1133840C301B2010E9434369B01AC01C701B60129
S11338500E9400340E94D43469837A838B839C83CE
S113386029853A854B855C85C301B2010E943436B3
S11338709B01AC016D817E818F8198850E9401340A
S11338800E94D43469877A878B879C87C701B601E5
S11338900E94D4346D877E878F87988B6D817E815B
S11338A08F8198850E94D434698B7A8B8B8B9C8B07
S11338B029813A8149855A856D857E8589899A89C8
S11338C00E94B21023EC38EB42EB5EE3C501B40175
S11338D00E9401344B015C010E9469346D8B7E8B24
S11338E08F8B988FC501B4010E94B7369B01AC0140
S11338F0C301B2010E9434369B01AC01C701B60179
S11339000E9400340E94D4346B017C012D893E89CD
S11339104F89588DC301B2010E9434369B01AC011A
S11339206D817E818F8198850E9401340E94D434F8
S11339304B015C019601AB016D857E8589899A896D
S11339400E94B2109601A40169817A8189859A85C1
S11339500E94B2106C960FB6F894DEBF0FBECDBFB6
S1133960DF91CF911F910F91FF90EF90DF90CF9057
S1133970BF90AF909F908F907F906F905F904F908B
S11339800895CF92DF92EF92FF920F931F93CF93FC
S1133990DF936C017B011092790010927800C0E0F3
S11339A0D0E08C01065F1F4FBE01882777FD80950C
S11339B0982F0E94073520E030E0A8010E94821A67
S11339C0CE0DDF1DC83681E0D80771F783EF9DE186
S11339D09093790080937800A6014550510921E025
S11339E061ED70E087E790E00E941B12DF91CF91B8
S11339F01F910F91FF90EF90DF90CF9008956F92F9
S1133A007F928F929F92AF92BF92CF92DF92EF926A
S1133A10FF920F931F93CF93DF93CDB7DEB7CB58AD
S1133A20D1090FB6F894DEBF0FBECDBF10929D0230
S1133A300F2EFEEAEF2EF2E0FF2EF02DA12CB12C7A
S1133A4020C0802F0E943E15882399F0D701CD9085
S1133A50DC90802F0E945015EBE0F0E0EC0FFD1F8E
S1133A60EC0DFD1D8083F701808191810196918386
S1133A7080830F5F1F4F0E94DB1490E00817190723
S1133A8004F3D7018D919C91883791051CF40A2D7C
S1133A901B2DF1CF873791050CF4F1C21092AF02C0
S1133AA01092AE02FE013B96DF010D900020E9F773
S1133AB09D012E1B3F0B25503109E20FF31F80811E
S1133AC08A3261F42330310508F4DCC242E04F5FEE
S1133AD0842F90E082179307D0F3D7C2CD57DF4FDE
S1133AE0188219821A82C358D040CA57DF4F1882ED
S1133AF019821A82C658D040C757DF4F18821982DC
S1133B001A82C958D040FE0131968AE0DF011D9225
S1133B108A95E9F710929C0262E970E0CE010B9657
S1133B200E940E38009709F4B3C26CE270E00E9460
S1133B30F4378C01BC016F5F7F4F42E050E0CE014F
S1133B408D579F4F0E94FF37B8016D5F7F4F42E052
S1133B5050E0CE018A579F4F0E94FF376801B5E0BD
S1133B60CB0ED11C42E050E0B601CE0187579F4FE7
S1133B700E94FF3706E812E0F8018081918190935A
S1133B80D7028093D602CE018D579F4F0E94AF3744
S1133B907C01D8018D939C9308E812E0F8018081A0
S1133BA091819093D9028093D802CE018A579F4F76
S1133BB00E94AF37D8018D939C93CE0187579F4FB6
S1133BC00E94AF3790938B0280938A02B6E1EB1682
S1133BD0F10444F4E2E0EE0EF11CF0928702E0926C
S1133BE086020FC0F6E1EF16F10429F41092870261
S1133BF01092860206C081E090E090938702809341
S1133C0086026CE270E0C6010E94F4379C012F5FCB
S1133C103F4FDC0111968C91813469F481E490E08A
S1133C209093B7028093B60281E090E09093B5023E
S1133C308093B4020FC0863569F486E590E09093D2
S1133C40B7028093B6021092B5021092B40280E0DB
S1133C5090E028C26CE270E0C9010E94F4377C0154
S1133C608C010F5F1F4FFC0181818C3209F4BEC0AF
S1133C7042E050E0B801CE0101960E94FF37CE0128
S1133C8001960E94CD379B01AC0160E876E988E992
S1133C9090E00E9440374B015C01B7016D5F7F4F9C
S1133CA042E050E0CE0101960E94FF370B5F1F4FA8
S1133CB044E050E0B801CE0103960E94FF370F2E76
S1133CC0FCE86F2EF2E07F2EF02DF30180819181CC
S1133CD0A281B3818093DE029093DF02A093E0027D
S1133CE0B093E102CE0101960E94CD379B01AC0155
S1133CF0A2E3B0E00E946F3723E030E040E050E000
S1133D000E94503769017A012093980230939902F6
S1133D1040939A0250939B02D501C401820F931FD2
S1133D20A41FB51F8093940290939502A0939602CA
S1133D30B0939702C501B40120EA36E841E050E0AF
S1133D400E945037CA01B9010E9407354B015C013A
S1133D50C701B6010E9407352CE933E549EC56E367
S1133D600E9434369B01AC01C501B4010E940134A8
S1133D700E94D4346B017C01D3016D937D938D93A8
S1133D809C93139724E630E040E050E00E945037C3
S1133D9049015A0124E6289DC001299D900D112452
S1133DA0AA2797FDA095BA2FA7019601281B390BC6
S1133DB04A0B5B0BCA01B9010E94073520E030E0D1
S1133DC040E752E40E946C340E94D434AA2497FC45
S1133DD0A094BA2C860E971EA81EB91E809290023B
S1133DE090929102A0929202B09293026CE270E0DF
S1133DF0C8010E94F4376C017C013FEFE31AF30A17
S1133E00DC0111968C918C3239F1833509F046C16D
S1133E1000E912E0F80160817181828193810E943E
S1133E20073590580E94D434D8016D937D938D93B7
S1133E309C931397F60181818E3421F48EE4809350
S1133E409C020AC0833519F480939C0205C08C320D
S1133E5019F48FE280939C026CE270E0C7010E9427
S1133E60F4377C018C010F5F1F4FDC0111968C919C
S1133E708C3209F4AEC043E050E0B801CE010196A3
S1133E800E94FF371C82CE0101960E94CD379B0110
S1133E90AC0160E876E988E990E00E9440374B0184
S1133EA05C01B7016C5F7F4F42E050E0CE010196A8
S1133EB00E94FF370A5F1F4F44E050E0B801CE0173
S1133EC003960E94FF37CE0101960E94CD379B01D5
S1133ED0AC01A2E3B0E00E946F3723E030E040E0A1
S1133EE050E00E94503769017A012093AA0230936E
S1133EF0AB024093AC025093AD02D501C401820FD2
S1133F00931FA41FB51F8093A6029093A702A093AA
S1133F10A802B093A902C501B40120EA36E841E041
S1133F2050E00E945037CA01B9010E9407354B0185
S1133F305C01C701B6010E9407352CE933E549EC61
S1133F4056E30E9434369B01AC01C501B4010E94C2
S1133F5001340E94D4346B017C0160939E027093FF
S1133F609F028093A0029093A10224E630E040E0F7
S1133F7050E00E94503749015A0124E6289DC001AF
S1133F80299D900D1124AA2797FDA095BA2FA7016A
S1133F909601281B390B4A0B5B0BCA01B9010E941D
S1133FA0073520E030E040E752E40E946C340E9480
S1133FB0D434AA2497FCA094BA2C860E971EA81E6B
S1133FC0B91E8092A2029092A302A092A402B0927F
S1133FD0A5026CE270E0C8010E94F4377C013FEF57
S1133FE0E31AF30ADC0111968C91873591F402EA05
S1133FF012E0F80160817181828193810E9407350A
S113400090580E94D434D8016D937D938D939C93E2
S113401013976CE270E0C7010E94F4378C010F5FC4
S11340201F4FFC0181818C3291F0C8010E94AB3793
S11340306093B8027093B9028093BA029093BB0262
S113404044E150E0B80180EC92E00E94FF376CE25A
S113405070E0C8010E94F437DC0111962C912C32D7
S1134060D1F001960E94AB376093BC027093BD02FD
S11340708093BE029093BF0281E090E013C081E080
S113408090E010C080E090E00DC080E090E00AC0B5
S113409081E090E007C081E090E004C08E3409F034
S11340A0DBCECCCEC557DF4F0FB6F894DEBF0FBEC4
S11340B0CDBFDF91CF911F910F91FF90EF90DF90D3
S11340C0CF90BF90AF909F908F907F906F90089506
S11340D04F925F926F927F928F929F92AF92BF9214
S11340E0CF92DF92EF92FF920F931F93CF93DF93C0
S11340F0CDB7DEB760970FB6F894DEBF0FBECDBF65
S11341002D833E834F83588727013801182D0E9441
S1134110073520E836E948E15BE40E946C342BED76
S11341203FE049E450E40E94343620E030E044E3C8
S113413053E40E946C3469837A838B839C830E944A
S1134140B73669877A878B879C872BED3FE049E4F4
S113415050E4C301B2010E94343620E030E044E36D
S113416053E40E946C342B013C010E94B7366D87E6
S11341707E878F87988B69817A818B819C810E944D
S1134180693469837A838B839C83C301B2010E945F
S113419069342B013C016D817E818F8198850E9459
S11341A0073520E836E948E15BE40E946C34A60157
S11341B095010E9400342BED3FE049E450E40E9455
S11341C0343620E030E044E353E40E946C340E942F
S11341D069346D837E838F8398872D853E854F85D3
S11341E0588969857A858B859C850E9434364B0174
S11341F05C01A301920169817A818B819C810E9477
S113420034362D813E814F8158850E9434369B017E
S1134210AC01C501B4010E9401340E94F23320E0D4
S113422030E044E353E40E9434362BED3FE049E4AC
S113423050E40E946C3420E030E040E752E40E94F5
S113424034362AE534E643E95FE30E9434361B340E
S113425019F01E3441F00DC02CEF3EEF4DEC5FE33E
S11342600E94343606C026E73FE44EE55FE30E9431
S1134270343660960FB6F894DEBF0FBECDBFDF9123
S1134280CF911F910F91FF90EF90DF90CF90BF904F
S1134290AF909F908F907F906F905F904F90089514
S11342A0803350F08A3310F4805308959FEB980FB5
S11342B0963020F48753089580E0089580E00895AF
S11342C02F923F924F925F926F927F928F929F9222
S11342D0AF92BF92CF92DF92EF92FF920F931F9310
S11342E0CF93DF93CDB7DEB7CF58D1090FB6F8948B
S11342F0DEBF0FBECDBF10929D020F2EFEEAEF2E41
S1134300F2E0FF2EF02DA12CB12C20C0802F0E94B2
S11343103E15882399F0D701CD90DC90802F0E9420
S11343205015EBE0F0E0EC0FFD1FEC0DFD1D80835C
S1134330F701808191810196918380830F5F1F4FE4
S11343400E94DB1490E00817190704F3D7018D913C
S11343509C91883791051CF40A2D1B2DF1CF8737CA
S113436091050CF43CC31092AF021092AE02FE0110
S11343703B96DF010D900020E9F711977D01EE1ABD
S1134380FF0A870104501109E00FF11F80818A326E
S113439051F5FE01EE0DFF1D80850E945021B0E114
S11343A08B9F60011124DE01AE0DBF1D19968C9107
S11343B00E945021F601E80FF11DCF0102301105D2
S11343C078F041E0EBE0F0E0EC0FFD1FE40FF11DAD
S11343D0208182274F5F242F30E02017310790F38C
S11343E0892B09F0FCC2CD57DF4F188219821A823B
S11343F0C358D040CA57DF4F188219821A82C65850
S1134400D040C757DF4F188219821A82C958D0404A
S1134410FE0131968AE0DF011D928A95E9F7109238
S11344209C0262E970E0CE010B960E940E38009760
S113443009F4D5C26CE270E00E94F4378C01BC012F
S11344406F5F7F4F42E050E0CE018D579F4F0E9437
S1134450FF37B8016D5F7F4F42E050E0CE018A57CD
S11344609F4F0E94FF376801B5E0CB0ED11C42E09C
S113447050E0B601CE0187579F4F0E94FF3706E8F0
S113448012E0F801808191819093D7028093D60243
S1134490CE018D579F4F0E94AF377C01D8018D9379
S11344A09C9308E812E0F801808191819093D902ED
S11344B08093D802CE018A579F4F0E94AF37D8010C
S11344C08D939C93CE0187579F4F0E94AF37909353
S11344D08B0280938A02B6E1EB16F10444F4E2E025
S11344E0EE0EF11CF0928702E09286020FC0F6E114
S11344F0EF16F10429F4109287021092860206C086
S113450081E090E090938702809386026CE270E0F1
S1134510C6010E94F437FC0101962181213459F42B
S113452021E030E03093B7022093B6023093B50215
S11345302093B4020AC0263541F41092B7021092B7
S1134540B6021092B5021092B4026CE270E00E94BE
S1134550F4377C018C010F5F1F4FDC0111968C91A5
S11345608C3209F4CFC042E050E0B801CE0101968C
S11345700E94FF37CE0101960E94CD379B01AC010A
S113458060E876E988E990E00E9440374B015C01DD
S1134590B7016D5F7F4F42E050E0CE0101960E946B
S11345A0FF370B5F1F4F44E050E0B801CE01039684
S11345B00E94FF37CE0101960E94CD379B01AC01CA
S11345C0A2E3B0E00E946F3723E030E040E050E027
S11345D00E94503769017A0120939802309399021E
S11345E040939A0250939B020F2EFCE82F2EF2E088
S11345F03F2EF02DF10180819181A281B3818093BE
S1134600DE029093DF02A093E002B093E102C501C1
S1134610B40120EA36E841E050E00E945037CA0174
S1134620B9010E9407352B013C01C701B6010E9464
S113463007352CE933E549EC56E30E9434369B01F7
S1134640AC01C301B2010E9401340E94D4342B0195
S11346503C01D1016D937D938D939C93139724E634
S113466030E040E050E00E945037C457DF4F2883C9
S113467039834A835B83CC58D04024E6C457DF4F48
S1134680E881F981CC58D0402E9FC0012F9F900D16
S11346901124AA2797FDA095BA2FA3019201281BE4
S11346A0390B4A0B5B0BCA01B9010E94073520E0A4
S11346B030E040E752E40E946C340E94D434C45782
S11346C0DF4F48815981CC58D0402A01662457FCD9
S11346D06094762C460E571E681E791E40929002F6
S11346E0509291026092920270929302C80CD91C6B
S11346F0EA1CFB1CC0929402D0929502E0929602AE
S1134700F09297026CE270E0C8010E94F4378C01C9
S11347106C015FEFC51AD50ADC0111968C918C32BD
S113472059F1833509F057C10F2EF0E9EF2EF2E06D
S1134730FF2EF02DF70160817181828193810E94A7
S1134740073590580E94D434D7016D937D938D938F
S11347509C931397F80181818E3421F48EE4809325
S11347609C020AC0833519F480939C0205C08C32E4
S113477019F48FE280939C026CE270E0C6010E94FF
S1134780F4377C018C010F5F1F4FDC0111968C9173
S11347908C3209F4D0C043E050E0B801CE01019658
S11347A00E94FF371C82CE0101960E94CD379B01E7
S11347B0AC0160E876E988E990E00E9440374B015B
S11347C05C01B7016C5F7F4F42E050E0CE0101967F
S11347D00E94FF370A5F1F4F44E050E0B801CE014A
S11347E003960E94FF37CE0101960E94CD379B01AC
S11347F0AC01A2E3B0E00E946F3723E030E040E078
S113480050E00E94503769017A012093AA02309344
S1134810AB024093AC025093AD020F2EFEE92F2E53
S1134820F2E03F2EF02DF10180819181A281B381CC
S11348308093E2029093E302A093E402B093E50232
S1134840C501B40120EA36E841E050E00E94503747
S1134850CA01B9010E9407352B013C01C701B60109
S11348600E9407352CE933E549EC56E30E943436BF
S11348709B01AC01C301B2010E9401340E94D434F3
S11348802B013C01D1016D937D938D939C931397E0
S113489024E630E040E050E00E945037C457DF4F38
S11348A0288339834A835B83CC58D04024E6C45799
S11348B0DF4FE881F981CC58D0402E9FC0012F9F53
S11348C0900D1124AA2797FDA095BA2FA301920158
S11348D0281B390B4A0B5B0BCA01B9010E9407352F
S11348E020E030E040E752E40E946C340E94D4346B
S11348F0C457DF4F48815981CC58D0402A016624DF
S113490057FC6094762C460E571E681E791E409202
S1134910A2025092A3026092A4027092A502C80C53
S1134920D91CEA1CFB1CC092A602D092A702E092FA
S1134930A802F092A9026CE270E0C8010E94F43768
S11349408C010F5F1F4FDC0111968C918735B1F4F8
S11349500F2EF2EAEF2EF2E0FF2EF02DF701608128
S11349607181828193810E94073590580E94D434CA
S1134970D7016D937D938D939C9313976CE270E0B4
S1134980C8010E94F4378C010F5F1F4FFC01818125
S11349908C3259F0C8010E94AB376093B80270930F
S11349A0B9028093BA029093BB026CE270E0C80132
S11349B00E94F437DC0111962C912C3281F001967F
S11349C00E94AB376093BC027093BD028093BE0219
S11349D09093BF0204C08E3409F0CECEBFCEC1572F
S11349E0DF4F0FB6F894DEBF0FBECDBFDF91CF917E
S11349F01F910F91FF90EF90DF90CF90BF90AF90F9
S1134A009F908F907F906F905F904F903F902F90EA
S1134A1008952F923F924F925F926F927F928F925E
S1134A209F92AF92BF92CF92DF92EF92FF920F9339
S1134A301F93CF93DF93CDB7DEB764970FB6F89487
S1134A40DEBF0FBECDBF10929D0283EF9DE1909318
S1134A5079008093780003EF1DE120E530E04FEE0C
S1134A6050E068E270E080E090E00E943A1980E152
S1134A7095E1909379008093780000E115E120E5B9
S1134A8030E048E250E068E270E080E090E00E94AC
S1134A903A190F2EFEE9CF2EFFEEDF2EF02DD09225
S1134AA06400C0926300EE24E39409E910E020E579
S1134AB030E048E250E068E270E080E090E00E947C
S1134AC069100BE910E020E530E04FEE50E068E2B9
S1134AD070E080E090E00E946910D0927900C0926A
S1134AE0780000E010E02FE331E04FEE50E061E5A4
S1134AF070E080E090E00E94181310927900109208
S1134B007800109264001092630004EA10E024E636
S1134B1030E040EE50E06AE570E08FE090E00E9403
S1134B20691025E530E04AE050E065E570E085E095
S1134B3090E00E94B21027E131E045E050E065E5E5
S1134B4070E085E090E00E94B21025E530E045EE8B
S1134B5050E065E570E08AEE90E00E94B21027E133
S1134B6031E04AEE50E065E570E08AEE90E00E94A4
S1134B70B2108BED94E390937900809378000BED61
S1134B8014E32AE331E04AEE50E067E171E085E0A6
S1134B9090E00E943A19D0926400C09263000BEA3C
S1134BA010E02EE231E040EE50E064E271E08FE08C
S1134BB090E00E94691001E010E09E012F5F3F4FDA
S1134BC059010F2EF2EBCF2EF2E0DF2EF02D0F2E37
S1134BD0FEE98F2EFFEE9F2EF02DF12C0F2E412C8F
S1134BE0F8EF5F2EF02D0F2EFDE06F2E77247394D7
S1134BF0F02D0F2EF3E02F2E33243394F02DBEC06E
S1134C000E94DE260E946021D501E4E11D92EA950E
S1134C10E9F72BE432E33093640020936300D60178
S1134C208D919C91ECEDF2E0208131818217930704
S1134C3019F4012B09F4A0C0181619060CF09CC035
S1134C4090927900809278008BE09F2D0BE01F2DCD
S1134C5021E045E050E067E171E00E941B12045F2F
S1134C601F4F802F912F0F3E110591F790927900DD
S1134C7080927800840127E131E049EE50E06EE64D
S1134C8070E086E090E00E943A19509279004092D8
S1134C9078005092640040926300D60111968C9182
S1134CA011978F938C918F93A6EEB1E0BF93AF933E
S1134CB0BF92AF920E944538D6016D917C918827AE
S1134CC077FD8095982F0E94073529E739EE46E253
S1134CD05EE30E9434360E94D4349301261B370BC2
S1134CE0F101E61BF70BBF01E12C85014FEE50E00B
S1134CF08FE090E00E946910D6016D917C91882725
S1134D0077FD8095982F0E94073529E739EE46E212
S1134D105EE30E9434360E94D43407E111E0F801C6
S1134D20E61BF70BBF019F0144E650E086E090E0EC
S1134D300E94B210D6016D917C91882777FD8095F1
S1134D40982F0E94073529E739EE46E25EE30E9478
S1134D5034360E94D434F801E61BF70BBF019F01DF
S1134D604AE850E089EE90E00E94B2100F900F9054
S1134D700F900F900F900F9000E010E0809175025B
S1134D8090917602049709F43BCF64960FB6F89499
S1134D90DEBF0FBECDBFDF91CF911F910F91FF906A
S1134DA0EF90DF90CF90BF90AF909F908F907F90C7
S1134DB06F905F904F903F902F9008952F923F9265
S1134DC04F925F926F927F928F929F92AF92BF9217
S1134DD0CF92DF92EF92FF920F931F93CF93DF93C3
S1134DE0CDB7DEB728970FB6F894DEBF0FBECDBFA0
S1134DF00E949A19882309F4BEC40E94A1190E9432
S1134E0095194C010E9490199A8389830E949519DF
S1134E106C010E9490198C010E9495197C010E94DA
S1134E20901998878F830E94A1190E9495195C019B
S1134E300E9490191C010E949519C816D90618F4ED
S1134E400E9495196C010E9495198E159F0518F4FE
S1134E500E9495197C010E9490190817190718F4EB
S1134E600E9490198C010E9490192F813885821715
S1134E70930720F40E94901998878F830E94A119A8
S1134E800E9495193C010E9490199C838B830E9477
S1134E909519C816D90618F40E9495196C010E9438
S1134EA095198E159F0518F40E9495197C010E948E
S1134EB090190817190718F40E9490198C010E9480
S1134EC09019EF81F8858E179F0720F40E9490199E
S1134ED098878F830E94A1190E9495192C010E9422
S1134EE090199E838D830E949519C816D90618F4CB
S1134EF00E9495196C010E9495198E159F0518F44E
S1134F000E9495197C010E9490190817190718F43A
S1134F100E9490198C010E9490192F813885821764
S1134F20930720F40E94901998878F830E949A19FE
S1134F30882309F42CC4A80CB91CA60CB71CC50101
S1134F40840D951D8C199D098E199F099695879539
S1134F500E94181A6B017C0189819A81820D931D2C
S1134F60EB81FC818E0F9F1F2D813E81820F931F49
S1134F70801B910BEF81F8858E1B9F0B969587956F
S1134F800E944D1A20910A02222321F022E020934C
S1134F90770203C021E02093770297018601015034
S1134FA01109210931090F3311402105310508F098
S1134FB0DEC38B019C0101501109210931090F3E07
S1134FC011052105310508F0D2C3D092D502C09253
S1134FD0D4029B017093850260938402409177020E
S1134FE0413009F0C4C340917502509176024230B9
S1134FF0510509F402C144F44115510581F04130D1
S1135000510509F4B9C0B3C34430510509F4A3C12F
S11350100CF44AC14530510509F4DEC1A8C3AB0103
S113502045505109463E510508F0A1C3C601CE972B
S1135030C89708F580E195E1909379008093780012
S113504000E115E125E730E04FEE50E06EE370E05B
S11350508AEE90E00E943A198EE99FEE90937900CF
S11350608093780081E090E09093760280937502BB
S11350700E94E02B7CC3C6018A579109C89778F532
S113508080E195E1909379008093780000E115E147
S113509021EB30E04FEE50E06AE770E08AEE90E0FA
S11350A00E943A198EE99FEE9093790080937800DC
S11350B082E090E09093760280937502EE24E3946C
S11350C000E010E02FE331E04FEE50E069E270E0E1
S11350D080E090E00E9418130E94842F48C3C60108
S11350E0865B9109C89708F580E195E19093790072
S11350F08093780000E115E12DEE30E04FEE50E0B2
S113510066EB70E08AEE90E00E943A198EE99FEE19
S1135110909379008093780084E090E090937602F5
S1135120809375020E94092522C322EFC21AD10876
S113513038E3C316D10408F01AC380E195E19093D3
S113514079008093780000E115E129E231E04FEE27
S113515050E062EF70E08AEE90E00E943A198EE926
S11351609FEE909379008093780085E090E090938F
S1135170760280937502FBC26932710508F0F7C2AA
S113518048E2C41AD10889E2C816D10408F0EFC273
S11351908BE492E390937900809378000BE412E31C
S11351A020E530E048E250E068E270E080E090E022
S11351B00E943A190F2EFEE9CF2EFFEEDF2EF02DBE
S11351C0D0926400C0926300EE24E39409E910E0F5
S11351D020E530E048E250E068E270E080E090E0F2
S11351E00E946910D0927900C092780010927602E1
S11351F0109275020E94182EBAC269327105D8F550
S113520096012852310929323105A8F58BE492E33D
S113521090937900809378000BE412E320E530E06A
S113522048E250E068E270E080E090E00E943A19C1
S11352300F2EFEE9CF2EFFEEDF2EF02DD09264006C
S1135240C0926300EE24E39409E910E020E530E025
S113525048E250E068E270E080E090E00E9469106B
S1135260D0927900C0927800109276021092750262
S11352700E94182E7CC2AB0147575109453651058F
S113528008F075C2EDE0CE1AE1E0DE0AFFE1CF16C8
S1135290D10408F06CC283E090E09093760280938E
S11352A075020E94842F63C269327105D8F5960194
S11352B02852310929323105A8F58BE492E3909301
S11352C07900809378000BE412E320E530E048E2B3
S11352D050E068E270E080E090E00E943A190F2EFE
S11352E0FEE9CF2EFFEEDF2EF02DD0926400C092A7
S11352F06300EE24E39409E910E020E530E048E29D
S113530050E068E270E080E090E00E946910D09282
S11353107900C092780010927602109275020E9471
S1135320182E25C2AB01445151094436510508F0E9
S11353301EC22DE0C21A21E0D20A3FE1C316D104F5
S113534008F015C282E090E0909376028093750293
S11353500E94842F0CC26932710508F008C248E229
S1135360C41AD10889E2C816D10408F000C28BE43B
S113537092E390937900809378000BE412E320E5A4
S113538030E048E250E068E270E080E090E00E94A3
S11353903A190F2EFEE9CF2EFFEEDF2EF02DD0921C
S11353A06400C0926300EE24E39409E910E020E570
S11353B030E048E250E068E270E080E090E00E9473
S11353C06910D0927900C0927800109276021092FF
S11353D075020E94182ECBC1FB0169327105D8F504
S11353E0A6014852510949325105A8F58BE492E3CC
S11353F090937900809378000BE412E320E530E089
S113540048E250E068E270E080E090E00E943A19DF
S11354100F2EFEE9CF2EFFEEDF2EF02DD09264008A
S1135420C0926300EE24E39409E910E020E530E043
S113543048E250E068E270E080E090E00E94691089
S1135440D0927900C0927800109276021092750280
S11354500E94182E8CC100910B0210910C02023094
S113546011050CF084C1DB011A97999708F057C015
S1135470D601A25CB1099497C0F4012B59F4EFE56D
S1135480F2E001900020E9F7319787E390E09183FF
S113549080836DC1EAE6F2E001900020E9F73197DC
S11354A087E390E09183808362C1D601AA5EB1094B
S11354B09497C0F4012B59F4EFE5F2E00190002039
S11354C0E9F7319784E390E09183808350C1EAE661
S11354D0F2E001900020E9F7319784E390E09183B2
S11354E0808345C1D601A251B1409497C0F4012BE9
S11354F059F4EFE5F2E001900020E9F7319781E3F8
S113550090E09183808333C1EAE6F2E001900020C9
S1135510E9F7319781E390E09183808328C1DB012F
S1135520D797999708F057C0D601A25CB109949710
S1135530C0F4012B59F4EFE5F2E001900020E9F703
S1135540319788E390E09183808311C1EAE6F2E029
S113555001900020E9F7319788E390E091838083FC
S113556006C1D601AA5EB1099497C0F4012B59F47F
S1135570EFE5F2E001900020E9F7319785E390E050
S113558091838083F4C0EAE6F2E001900020E9F719
S1135590319785E390E091838083E9C0D601A251DD
S11355A0B1409497C0F4012B59F4EFE5F2E0019077
S11355B00020E9F7319782E390E091838083D7C09C
S11355C0EAE6F2E001900020E9F7319782E390E007
S11355D091838083CCC0AB014456510949325105B3
S11355E008F05AC0A601425C510944325105C0F486
S11355F0012B59F4EFE5F2E001900020E9F731972F
S113560089E390E091838083B2C0EAE6F2E00190FE
S11356100020E9F7319789E390E091838083A7C064
S1135620A6014A5E510944325105C0F4012B59F4D4
S1135630EFE5F2E001900020E9F7319786E390E08E
S11356409183808394C0EAE6F2E001900020E9F7B8
S1135650319786E390E09183808389C0A60142510B
S1135660514044325105C0F4012B59F4EFE5F2E006
S113567001900020E9F7319783E390E091838083E0
S113568076C0EAE6F2E001900020E9F7319783E37F
S113569090E0918380836BC0263931050CF453C0AC
S11356A0E63EF10578F5A601425C51094432510504
S11356B058F4EAE6F2E001900020E9F7319783E339
S11356C090E09183808353C0A6014A5E510944321D
S11356D05105C0F4012B59F4EFE5F2E001900020EC
S11356E0E9F731978EE290E09183808340C0EAE647
S11356F0F2E001900020E9F731978EE290E0918387
S1135700808335C02F3B3105F4F4A601425151404A
S113571044325105C0F4012B59F4EFE5F2E0019055
S11357200020E9F7319780E390E0918380831FC0E4
S1135730EAE6F2E001900020E9F7319780E390E097
S11357409183808314C0233C31058CF0E63EF1053F
S113575070F4E2E1CE1AE1E0DE0AF4E2CF16D104FD
S113576030F4C801019690930C0280930B0281E0FF
S113577080930A020CC080910A02882321F083E0FE
S11357808093770202C01092770210920A02289640
S11357900FB6F894DEBF0FBECDBFDF91CF911F913E
S11357A00F91FF90EF90DF90CF90BF90AF909F90BC
S11357B08F907F906F905F904F903F902F900895BF
S11357C02F923F924F925F926F927F928F929F920D
S11357D0AF92BF92CF92DF92EF92FF920F931F93FB
S11357E0CF93DF93CDB7DEB766970FB6F894DEBFDD
S11357F00FBECDBF10929D020F2EFEE9CF2EFFEEFD
S1135800DF2EF02DD0927900C0927800EE24E3943C
S113581000E010E02FE331E04FEE50E069E270E089
S113582080E090E00E9418136AE070E08AE590E05E
S11358300E94C11C83EF9DE19093790080937800CE
S113584020E530E04FEE50E068E270E080E090E068
S11358500E94181380E195E1909379008093780079
S113586020E530E048E250E068E270E080E090E05B
S11358700E941813D0926400C092630009E910E0FA
S113588020E530E048E250E068E270E080E090E03B
S11358900E94691005EB10E020E530E04FEE50E087
S11358A068E270E080E090E00E946910D092790094
S11358B0C09278001E8A1D8A88248394912C0F2E0E
S11358C0F8EBCF2EF2E0DF2EF02D0F2EFCEB6F2E37
S11358D0F2E07F2EF02DCE0101965C01F12C7BC10C
S11358E00E94DE26F60180819181A281B381E8EED7
S11358F0F2E080839183A283B383F3018081918159
S1135900A281B381ECEEF2E080839183A283B3831E
S11359100E94FF1C892B09F41AC1D3016D917D915A
S11359208D919C910E94D4348B01ECEEF2E0608165
S11359307181828193810E94D43406171707C1F4C0
S1135940D6016D917D918D919C910E94D4348B01EF
S1135950E8EEF2E060817181828193810E94D43407
S11359600617170729F48114910409F03CC1EFC00C
S113597084E1D5011D928A95E9F7EBE4F2E3F09313
S11359806400E0936300D6016D917D918D919C91AB
S11359900E94D4348B01E8EEF2E06081718182814F
S11359A093810E94D4340617170719F481149104C3
S11359B0C9F18EE99FEE9093790080937800EE24EC
S11359C0E39400E010E02EE630E04FEE50E063E5B3
S11359D070E08FE790E00E941813D6016D917D91DD
S11359E08D919C910E94D4347F936F93A2ECB0E08C
S11359F0BF93AF93BF92AF920E9445386894EE2450
S1135A00E1F8850124E630E04BED50E06AE570E012
S1135A1084E190E00E9469100F900F900F900F9016
S1135A200F900F9020E030E040E85FE3D6016D91E5
S1135A307D918D919C910E94303618160CF0C9C04E
S1135A40F3012080318042805380C201B1010E9461
S1135A50D4348B01ACEEB2E06D917D918D919C912B
S1135A600E94D4340617170719F4892809F4B1C021
S1135A7020E030E844EB53E4C201B1010E946534F4
S1135A8088230CF0A1C020E030E0A901C201B101DB
S1135A900E94303618160CF09AC0EEE9FFEEF0932F
S1135AA07900E0937800EE24E39400E010E02EE621
S1135AB030E042E850E063E570E08AE090E00E9464
S1135AC01813D3016D917D918D919C910E94D434D2
S1135AD07F936F93ABECB0E0BF93AF93BF92AF9261
S1135AE00E944538E12C850124E630E04BED50E07E
S1135AF06AE570E084E190E00E94691083EF9DE123
S1135B00909379008093780021E045E550E061EDC1
S1135B1070E087E790E00E941B12A0E0B8EFB0931A
S1135B207900A0937800F30160817181828193816F
S1135B3021E03F2D45E550E00E94821A0F900F901E
S1135B400F900F900F900F901E8A1D8A42C08D896E
S1135B509E890197F1F120E030E040E85FE3D6014F
S1135B606D917D918D919C910E94653488238CF573
S1135B70EE24E39400E010E02EE630E042E850E04A
S1135B8063E570E08AE090E00E941813E0E0F8EF2B
S1135B90F0936400E0936300E3EDF0E0D5018BE063
S1135BA001900D928A95E1F7E12C850124E630E01D
S1135BB04BED50E06AE570E08AE090E00E946910E5
S1135BC0F1E0FD8BFE8A05C01E8A1D8A02C01E8A72
S1135BD01D8A812C912C80917502909176020197F7
S1135BE009F47ECE0CC084E1D5011D928A95E9F7B3
S1135BF0EBE4F2E3F0936400E0936300DACE66969C
S1135C000FB6F894DEBF0FBECDBFDF91CF911F91C9
S1135C100F91FF90EF90DF90CF90BF90AF909F9047
S1135C208F907F906F905F904F903F902F9008954A
S1135C30EF920F931F93CF93DF93109276021092FB
S1135C407502CEE9DFEED0937900C0937800EE249C
S1135C50E39400E010E02FE331E04FEE50E068E21F
S1135C6070E080E090E00E94181383EF9DE1909330
S1135C7079008093780003EF1DE125E730E04AEED8
S1135C8050E06EE370E085E090E00E943A190091E4
S1135C9078001091790021EB30E04AEE50E06AE799
S1135CA070E085E090E00E943A190091780010912C
S1135CB079002DEE30E04AEE50E066EB70E085E0CE
S1135CC090E00E943A19009178001091790029E23D
S1135CD031E04AEE50E062EF70E085E090E00E942F
S1135CE03A1980E195E1909379008093780000E17E
