:100000000C94DB0D0C94F80D0C94F80D0C94F80D79
:100010000C94F80D0C94F80D0C94F80D0C94F80D4C
:100020000C94F80D0C94F80D0C94F80D0C94F80D3C
:100030000C94F80D0C94AF160C94D4160C94F80D87
:100040000C94F80D0C94F80D0C94F80D0C94F80D1C
:100050000C94F80D05A84CCDB2D44EB93836A9028F
:100060000C50B9918688083CA6AAAA2ABE000000B6
:10007000803F1B0810210120F90A02060A090E0917
:100080000306060708030703070A0A0A0A0A0A0AF8
:100090000A0A0A0303060706090F0A0A0A0A0908D8
:1000A0000B0A02060A080F0C0C0A0C0A0B0A0A0CAF
:1000B0000E0B0C0A040804080905090908090A07B7
:1000C0000A0902030A020E090909090609070909B2
:1000D0000E0909080602060A0000000000000000E0
:1000E0000000000000000000000000000000000010
:1000F000000000000000000000000A09090A0A0DC3
:1001000007090C0B0B0E0E0C0C0A0D0F0F0A0A0937
:100110000C090D0C0C09090D0D0C0A090909090C33
:10012000080B0E0A0C0D090A09080907070A0A0A32
:100130000A0405030000000008050A08080907086A
:100140000802080906070000000B0B0D0A0C0C0C36
:100150000D0C0E0000000000000000000000000078
:10016000000000000000000000000000000000008F
:1001700000000000000000000000000000C0FF0DB3
:100180000080FF1B0000080000000E0000000400BB
:10019000000060000000700000002000000000442B
:1001A000000000881F0000F00700007C0200004CE7
:1001B00004000080E80100007F0000C02F0000C0A4
:1001C0004500000088000000380C0000F8380000EE
:1001D00018C3000030060100F0FF0F00C01004003B
:1001E00080610C00008E0F0000180E0000780000E7
:1001F00000F80100000804010010080300C08F018E
:1002000000008F010000C0000000C0000000603C42
:10021000000060FC0000300402002008040000E040
:100220000700008007000080070000BC1F0000FCE2
:1002300043000018870000B01B0100C063020000EB
:1002400080070000800F0000001B00000800000075
:100250000E00000004000000C07F0000E0FF070067
:10026000F0001E007000E000300080033000000C41
:1002700020000018800100180006001C0078001FF4
:1002800000C0FF0F0000FE0300800D0000001A00F8
:10029000000008000000FE01000020000000A00097
:1002A000000060030000002000000040000000800B
:1002B000000000F01F0000E03F000000040000000C
:1002C0000800000010000000004C00000058000072
:1002D00000700000000100000002000000040000A7
:1002E0000008000000100000002000000040000096
:1002F00000003000000070000000C0000000C001DD
:100300000000C0000000600000007000000030002D
:100310000000180000001C000000E01F0000E07F4B
:1003200000006080010060000600400008008000BE
:10033000100000033000000C300000F03F0000C04F
:100340001F0000000000000000000000030000008B
:100350000300000003000000FE7F0000FCFF00001F
:1003600000000000000000000000000000060F0078
:10037000000F1F0000032300000247000004860056
:1003800000080E0100100C0200601C0400801F0811
:1003900000001E100000080C00001C3800000CC0FB
:1003A00000000800010010040200200804004010B2
:1003B00008008051180000BE1900003C3E000000FB
:1003C0000C0000001E000000260000004600000097
:1003D000870000000301000003020000FE7F000010
:1003E000FCFF00000010000080C30000E087030055
:1003F00040040C008004100000092000001240009E
:100400000024800000C8C1010010FF010000FC00B2
:100410000000FE010000FE0F00002210000022403C
:100420000000448000008800010010010200600606
:10043000060080F9070000E207000001000000024A
:100440000000000480000008F0010010F803002004
:100450003C0000401E0000800E000000070000006D
:1004600006000000703C0000F0FD0000300A0100B2
:1004700020080400401008008020100000412000E7
:100480000046210000F87E0000E0780000C0C700B0
:1004900000C09F0300C0600C00808010000001219C
:1004A00000000242000004C6000030C60000E0FF69
:1004B0000000007F000080010C0000071C00000607
:1004C0003000000860020038C002002080030000F5
:1004D0000800000028000000D80000001001000003
:1004E0001004000030180000800800000011000017
:1004F00000220000004400000088000000100100FD
:100500000020020000301800004010000000110020
:1005100000003600000028000000200000000E004F
:1005200000001E000000060000000400000008BCDF
:100530000100107C0300200C000080080000000F68
:10054000000000E0030000F00F0000703000002009
:10055000C00000203C010040FC040040060900806F
:100560000C11000019230000E24F0000CCD1000064
:10057000902001006020000080730000003C00001B
:1005800000001E000080070000E0070000F80800DF
:100590000038100000F0200000C04F000000FC00F8
:1005A0000000C00F0000003C0000FE7F0000FCFFC8
:1005B000000008020100100402002008040040109E
:1005C00008008020100000B73000007C3F000020B1
:1005D0003C0000801F0000C0FF0000C0810300C07D
:1005E000000C00800010000001200000024000000C
:1005F0000480000010800000E0E00100E0FF070040
:10060000C0FF0F0080001000000120000002400029
:10061000000480000010800000E0C0010080FF01A5
:100620000000FC000080FF1F0000FF3F0000824030
:1006300000000481000008020100100402002008EC
:100640000400401008008000100000FF3F0000FE82
:100650007F000004010000080200001004000020D8
:10066000080000401000008000000000F0030000BF
:10067000F81F000038700000108000001000020019
:100680002000040040200800804118000086180067
:10069000001C3F000020FE0000F8FF0100F0FF03F7
:1006A00000000800000010000000200000004000D2
:1006B00000008000000000010000F8FF0100F0FFD2
:1006C0000300E0FF0700C0FF0F0000001000000063
:1006D0002000000040000000C00000F8FF0000F013
:1006E000FF0000E0FF0700C0FF0F0000C001000096
:1006F000C0000000C0000000E0010000600E00002B
:100700006078000060C0030040000E0080FF1F0002
:1007100000FF3F00000040000000800000000001DA
:100720000000000200000004000000080080FF1F1D
:100730000000FF3F00000E00000078000000C0072E
:100740000000003C000000E0030000000E0000007C
:100750000F000080030000E001000070000000189E
:10076000000000F0FF0300E0FF0700C0FF0F008063
:10077000FF1F0000030000001C00000060000000DC
:1007800080030000001C00000070000000800300D7
:1007900000001C0000FF3F0000FE7F0000C00F00B3
:1007A00000E07F0000E0C0010040000200400008BF
:1007B00000800010000001200000024000000840FE
:1007C000000070E00000C0FF0000007E0000C0FFDD
:1007D0000F0080FF1F0000810000000201000004E4
:1007E00002000008040000100800006018000080EB
:1007F0001F0000001E000000F0030000F81F0000B2
:10080000387000001080000010000200200004007A
:10081000400038008000D00000033001001C380286
:1008200000F03F0400801F0000F0FF0300E0FF071E
:100830000040200000804000000081000000020114
:100840000000040E000018FE0000E087030080078F
:100850000400000F0300003F0C000063300000C2E2
:100860004000000483000008060100100C02006034
:100870001804008063040000C20F0000000F000095
:10088000020000000400000008000000100000004A
:10089000E0FF0700C0FF0F00800000000001000023
:1008A000000200000004000000F87F0000F0FF01DB
:1008B00000000006000000080000001000000020FA
:1008C00000000040000000C00000F8FF0000F0FF42
:1008D000000020000000C0030000003F000000F006
:1008E000030000001F000000F0000000C001000035
:1008F000F00000007C0000001F00008007000000E6
:10090000010000007E000000FC07000000FE000067
:1009100000C0030000C0070000FE0000801F0000B0
:10092000003F000000F0070000007E000000C00152
:100930000000F00300E07F0000C00F000080001006
:100940000000033000000E380000701C0000C00FD3
:100950000000000E0000007E000000C703008003BE
:100960000E000001380000004000000400000018E4
:10097000000000F000000080070000001E000000E2
:10098000F01F0000C03F0000E0000000E000000099
:1009900070000000300000002000000040000C004B
:1009A00080001C0000012E0000024E0000048700A1
:1009B000008803010090030200E0010400C0010868
:1009C000008000100000FFFF0100FEFF0300040094
:1009D0000400080008003000000080010000000E44
:1009E0000000003000000080010000000E00000048
:1009F000300000008001001000100020002000C026
:100A0000FF7F0080FFFF000080010000C0010000A8
:100A100070000000380000007000000000030000BB
:100A20000038000000C000000000000100000002CB
:100A3000000000040000000800000010000000207A
:100A400000000040000000800000000001000300E2
:100A50000000060000000800000020000000400028
:100A600000000008070000381F00001833000010C5
:100A700042000020840000400801008011010000B5
:100A8000FE070000F80F0080FF1F0000FF1F00009E
:100A900020200000208000004000010080000200B3
:100AA0000007060000FC070000E0030000C007008C
:100AB00000E03F0000E0E000004000010080000294
:100AC0000000010400000404000038060000C00714
:100AD0000000E03F0000E0E0000040000100800076
:100AE0000200000104000004040080FF1F0000FF5A
:100AF0003F0000800F0000807F000080C900008060
:100B000011030000210400004208000084100000CE
:100B100010310000E033000000270000400000001A
:100B200080000000C0FF0700C0FF0F00800400002D
:100B30000009000000020000000000020000E70EB3
:100B40000000FF13000063240000824800000491AD
:100B5000000018230100F843020090830700000002
:100B60000600F0FF0300E0FF070000080000000897
:100B7000000000080000001000000060000000807D
:100B8000FF010000FE030020FF070040FE0F0000F1
:100B900000800000F9FF0100F2FF0100FCFF0000EF
:100BA000F8FF0100003000000030000000300000BD
:100BB00000F0010000300F00003038000020C000BD
:100BC0000000000100F0FF0300E0FF070000FE0F3F
:100BD0000000FC1F000010000000100000002000BA
:100BE0000000C000000000FF030000FC070000043C
:100BF000000000040000000800000030000000E0D9
:100C0000FF000000FF010080FF030000FF0700005D
:100C10000C00000008000000180000003000000078
:100C20006000000080FF010000FE030000F80000EB
:100C300000FC0700001C1800000820000010400005
:100C40000020800000C080010000FF010000F800CB
:100C50000000FE7F0000FCFF0000101800001040A4
:100C6000000020800000400001008081030000FEA1
:100C7000030000F0010000E0030000F01F0000701E
:100C80007000002080000040000100800002000091
:100C900002030000FC7F0000FCFF0000F83F0000A2
:100CA000F07F0000C0000000C000000080000000D5
:100CB000000100000010020000780C0000983100D4
:100CC000001043000020840000C0180100803102A1
:100CD0000000E6030000900300000400000008008C
:100CE0000000FE3F0000FCFF00004000010080000B
:100CF00002000000040000FE030000FC0F000000E2
:100D000030000000400000008000000000010000F2
:100D100080010000FF070000FE0F0000040000003B
:100D200078000000C0070000007C000000C0010047
:100D300000C0030000F80000003E0000000C0000AE
:100D40000018000000F0010000001F000000F0018A
:100D50000000C0030000F80000003E0000007C001E
:100D60000000C0070000007C000000F00000007CD4
:100D70000000800F00000003000000020800000CCB
:100D8000180000381C0000C00F0000000E0000001A
:100D90003F000000C3010000010600000008000041
:100DA0000480000078000100C0070200007C0300FE
:100DB00000C0030000E0000000780000001E0000FA
:100DC0000004000000083000001070000020B8008F
:100DD0000040380100801C0200001F0400000E08C3
:100DE0000000041000000001000000070000F8FBF4
:100DF0000300F8E30F001000100020002000C0FFE7
:100E00000F0080FF1F00000100010002000200FC33
:100E1000F10700F0F7070000380000002000000094
:100E2000C0000000C0000000C00000008001000001
:100E30000006000000080000003000000040000034
:100E400000C0000000C0000000DC3F0000F87F0090
:100E500000C80000009000000020000000400000DA
:100E600000800000000003000000FC3F0000F87F4D
:100E7000000070000000A001000060F20300C0F458
:100E8000070080360800003E10000000200000FC33
:100E90007F0000F8FF0000E001000060020000C0D9
:100EA000E4070080EF0F0000621000007E200000C9
:100EB00000400000F8FF0000F0FF0100C0FF030049
:100EC00080FF070080E1030000F1000000F2010054
:100ED00000440200008803000030000000C0FF034F
:100EE0000080FF070000FE0F0000FE1F0000060F3D
:100EF00000008C030000B007000060090000601CC7
:100F00000000C000000000FF0F0000FC1F000018E0
:100F1000000000780000009878000030F90100E03F
:100F200011020080F9070080F90700009F0000000F
:100F300000030000000C000000300000F0FF010082
:100F4000E0FF0300001C000000E00000000E0700AE
:100F5000001630000024400000F8FF0000E0FF0011
:100F600000C0000000803800008058000000B10080
:100F70000000C20F00000460000018800000F0FFB5
:100F80000100C0FF010000300000009300000022BB
:100F9000010000C23F0000047F0000086000001054
:100FA00060000020E00100C0C0040000FF09000054
:100FB000FE1E00000018000030000000D0000000FD
:100FC00030F9010060FA0300C01B0400001B080098
:100FD000000C10000008200000F87F0000DCFF007B
:100FE0000018000000C0030000C004000080C90F0A
:100FF0000000DF1F0000CC200000CC400000F0808B
:10100000000040000100C0FF0300E0FE0700C00038
:10101000000000EE0F0000FE3F00006448000048A2
:1010200090000010C0000020000000C080030000FD
:10103000FF090000FE130000003E00000008000051
:1010400000200000F0FF0100E0FF030080FB030030
:1010500080FF0F000019120000122400000430006D
:10106000000800000030001800C0FF790080FFD7A2
:10107000000000E801000010020000200400FC7FD6
:101080000F00F87F0E0000C000000040020000804A
:10109000E40000F76F0300FFCF0600328005002454
:1010A0000007000800060010001800200060008003
:1010B000FFFF0100FFFF0100000C000000240700FB
:1010C00000480E0070FF3400F0FF280020037C0071
:1010D00040023800800080010001C00000060003CB
:1010E00000F8FF0F00F0FF1F000000F0008001205B
:1010F000018033C00180B5E0030029010F00D20355
:101100000C002C781700D0804A00A0FFF50060FE8C
:10111000F100800700008009000000130000003A81
:10112000000000987F000098FF0000F0790000C0E8
:101130001C00000006000000030000000300000087
:10114000FE3F0000F87F0000E0FF0000E0FF01002C
:1011500060000300C0180100005B010000B6010040
:1011600000C61D00000C7C0000F09F0000C03F0185
:101170000000E00100008000000000020000FF1FEE
:101180000000FE3F0000B83F0000F8FF0000902183
:101190000100204102004000030080000000000325
:1011A000000000FC3F0000F87F000000200000006D
:1011B000E0000000600300C0FF0400807F0D00001D
:1011C000000E0000FC3F0000F87F000018C0000087
:1011D00010470000207B00004076000080380000AF
:1011E0000003000000FC3F0000F87F0000E0FF006B
:1011F00000E0FF010060000300C0180100005B0177
:101200000000B6010000C60100000C000000F0FF65
:101210000000C0FF0100C0FD0100C0FF0700800CFE
:10122000090000091E000002100000040000001860
:10123000000000E0FF0100C0FF0300800300008009
:101240000500000009000000FE3F0000F87F0000DC
:10125000001E00000003000080010000800000006C
:101260008001000000FF1F0000FC3F0000383F002D
:101270000050FE0000B00001002001020040020406
:101280000080050800001A100000E43F0000CC3F79
:10129000000070000000B000000020010000C0FF4E
:1012A000070000FF0F0000000E0000000600000015
:1012B00006000000040000F0FF0000E0FF03000053
:1012C00060060000800700000E000000160000000D
:1012D00024000000F87F0000E0FF01000000020091
:1012E00000000400000008000000100000002000C2
:1012F00000FC7F0000F87F0000E0000000600100BB
:10130000004002000080FF070000FE1F00000020D8
:10131000000000400000008000000000010000000C
:101320000200FFFF0700FEFF070000FE1F0000FE97
:101330003F00002470000078380000001800000012
:10134000E000000000070080FF0F0000FF1F00000A
:10135000FC3F0000FC7F000048E00000F07000004F
:101360000030000000C0010000000E00FCFF1F0064
:10137000F8FF3F0000380000005800000090000017
:1013800000E0FF030080FF070000C0070000F80036
:1013900000003E0000007C000000800F000000F014
:1013A0000000E0FF0300C0FF070000070000000B83
:1013B00000000012000000FC7F0000F0FF000000B1
:1013C000F80000001F0000C0030000800F000000B4
:1013D000F0010000001E00F0FF7F00E0FFFF0000B2
:1013E00000C00000004002000080040000F70F0071
:1013F00000FF0F0000320000002400000008000081
:1014000000100000006000000080FF070000FF0FD8
:1014100000000E0F00001E3F000024420000F8FFF5
:101420000000E0FF00000030000000C000000000ED
:10143000030000FF1F0000FE3F0000783C00007822
:10144000FD000010050100200A02008013040000C6
:101450000008000000100000FE3F0000FC3F0000FC
:1014600060000000E0000000600100004002000099
:1014700080040600001B12000026240000C87F0024
:1014800000187F0000E0FE0000E0FF03004086043B
:101490000080040F000001080000020000000C00A2
:1014A0000000F0FF1F00E0FF3F00C0FC0100C0FD96
:1014B00007008018090000191E000022100000C457
:1014C000000000180E0000E0FF0100C0FF03000054
:1014D000000300000009000000120000DC3F0000D3
:1014E000FC3F0000C8000000900000002000000049
:1014F000400000008001000000FEFF0300FCFF0729
:1015000000180000001800000010000000208001FA
:1015100000408004008000090000FF1F0000FC1F45
:101520000000F87F0000F0FF0000307C0000201E6B
:101530000000403E000080480000007100000006EE
:10154000000000FC7F0000FEFF00000C000000C057
:10155000010000C00200008004000000FF0F000036
:10156000FC3F00000040000000870000001A01005E
:10157000003C02000040040080FF0F0000FF0F004D
:10158000000003000080030000307F000070FF01B6
:101590000020460200408607008008040000310059
:1015A000000086030000FC7F0000FEFF00000C002E
:1015B0000000C0010000C00200008004000000FF25
:1015C0001F0000FC3F000000070000000300006057
:1015D000030000200300004006000080FF0F000011
:1015E000E61F00001C0000002C0000004800000066
:1015F000F0FF0100C0FF03000080030000C00100F5
:1016000080E3000000050700000A380000FCFF002E
:1016100000F8FF01003C00000080F9030080FB0F90
:1016200000009110000062210000044100000880C9
:10163000000030000100C0FF030080FF030000F342
:10164000070000B51F00002A220000944700002870
:1016500080000050000100E0000200C0FF0700C051
:10166000FF070080000000000C0000003C000000AC
:10167000C8000000F0010000C002000000020400E9
:1016800000060C0000FF1F0000FC1F0000301800C7
:1016900000904800002091000080C3010000040277
:1016A00000000C0400001E0F00000C0E0060000083
:1016B00000200100004002000000070000000800B8
:1016C00000001800000018000000180000001000C2
:1016D000000000300000003000000020000000404A
:1016E0000000008000000000FF1F0000FC3F000021
:1016F000180000001800000010000000200000008A
:101700004000000000FF0F0000FE1F00300000003E
:1017100050000000A0000000200100004002000076
:1017200080040000000A00000014000000300000E7
:101730000060000000C00000004001000040020006
:1017400000800400000009000000120000002800D2
:10175000000060000000F0000000E0010000000355
:101760000000000500000009000000120000002435
:1017700000000050000000E00000002001000040D8
:1017800002000000030000000C0000001400000034
:10179000240000004800000090000000400100000C
:1017A000000300008007000000080000001E000089
:1017B0000000008003000000050000003E00000063
:1017C0007C0000003800000050000000E003000032
:1017D00000040000800F000000070000000A000065
:1017E000001C00E0FF0300C0FF070080200800C0CD
:1017F000FF7F0080FFFF00000441000018C50000CB
:10180000E0FB0000E0FF0100C0FF0700000009004E
:10181000000012000000180000FC3F0000F8FF006C
:10182000000020010000C003000000000080FF074E
:101830000000FF1F000000240000004800000060BE
:10184000003000000070000000A000000060FFFFFA
:1018500007C0FCFF1F8001002400060048000800AC
:101860006000F0000000500200002003000040F083
:10187000FF0780FBFF1F001E00240000004800003F
:1018800000600078000000C001000080030000C07C
:1018900003000080F8FF0F00FFFF3F001E0048001C
:1018A000000090000000C00000C0000000400000E8
:1018B0000080000000000100000002000000F8FFAE
:1018C0000F00F0FF1F00E001000060020000C007F1
:1018D000000080010000000E80000006800100FC76
:1018E000FF0100F0FF01E0000000200100002001E6
:1018F000000040040000800C000000150000001BE8
:10190000000000020000000F0000001E0000002C7C
:1019100000000068000000B00000000001000000AE
:1019200002000000060000000700000006000000A2
:1019300030000000B0000000A001000080010000A5
:1019400080000000000B0000000C000000100000F0
:1019500000180000001000000020000000F001004E
:1019600000E0030000000100000002000000380059
:10197000000050000000E0000000400000000001F6
:10198000000080010000000100000000003C000099
:1019900000FE0100000C0300000C0C000008100009
:1019A00000102000002040000040800000808101E5
:1019B000000086010000F8010000E0030000E00CD8
:1019C000000040200000405C000080A8000000D122
:1019D000010000E20100008409000010180000E08E
:1019E0001F0000001F0000020000000C000000F8B3
:1019F000FF0000E0FF03000000040000F009000009
:101A0000F017000020290000405E000080910000D7
:101A10000001010000FE030000FC030000F00700CD
:101A200000301C00002024000040480000807700A7
:101A300000000E0000000200000004000000F80F8B
:101A40000000E01F0000800F0000803F000080C108
:101A50000000000101000072020000B405000068EF
:101A6000070000900B000020100000606000007470
:101A70008000007000000000F8000000F803000083
:101A8000180C0000101000002C27000068590000FE
:101A9000D8720000E0B90000000201000006060054
:101AA00040060800000700000007000000FC0100DD
:101AB00000C07B00000092000000A2030000C405EB
:101AC00000000808000010100000203000008020F6
:101AD0000000007F0000007C000000FC0100000C02
:101AE0000700000809000010120000E01D0000803F
:101AF000010000800000000081010000FE030000E2
:101B0000F8030000FF070000FF03000003000000CF
:101B1000001F0000007F00000083010000C20300DE
:101B2000008400000008030000900F000020350032
:101B30000040520000C0FC0000C8F00000E00000BF
:101B40000000F0010000F807000070180000602C91
:101B500000004054000080C9000000F30000009C19
:101B600000000078000000B8030000300C0000C046
:101B700030000080410000F801004E414E494E49BE
:101B80005459494E46CDCCCC3D0AD7233C17B7D14A
:101B90003877CC2B329595E6241FB14F0A000020F0
:101BA000410000C84200401C4620BCBE4CCA1B0E6F
:101BB0005AAEC59D740011241FBECFE5D8E0DEBF2C
:101BC000CDBF11E0A0E6B0E0E8E3F5E702C0059084
:101BD0000D92A439B107D9F722E0A4E9B1E001C020
:101BE0001D92A437B207E1F70E945C300C949A3A38
:101BF0000C9400009093B2018093B101FC013296E5
:101C0000E491E093AF01FC01339684918093B0019D
:101C100008952F923F924F925F926F927F928F9290
:101C20009F92AF92BF92CF92DF92EF92FF920F936B
:101C30001F93CF93DF93CDB7DEB72A970FB6F894F3
:101C4000DEBF0FBECDBF2091B1013091B201F901CD
:101C5000A591B491F9013596949131961491682F1C
:101C600070E0492F50E0FB013796E41BF50BE20FC3
:101C7000F31F04910C831982E0917800F0917900B0
:101C8000F887EF838A30A1F4F09061000091B001F1
:101C9000E0919401F0919501F09EE00DF11D112469
:101CA000F0939501E09394011092970110929601A0
:101CB000891708F464C1181708F463C1AB2B09F441
:101CC00062C10C81002309F460C1909199019923AC
:101CD00021F00091AF010C8319C09CE2980F97305E
:101CE00030F099E1980F963010F0813D79F49091A1
:101CF0006200E0919601F09197010C81099FE01933
:101D0000F1091124F0939701E093960180538A30F2
:101D100030F4F901E41BF50BF79604910C838091E4
:101D20006200FC81EF2FF0E0FA87E987E0919601ED
:101D3000F09197010C81809FE00DF11D1124E03F8F
:101D4000F105A0F0909161008091B001E0919401C3
:101D5000F0919501989FE00DF11D1124F0939501EC
:101D6000E09394011092970110929601641B750BF9
:101D70001616170694F4A0E080E090E0EA2FF0E059
:101D80003796E20FF31FE4918E0F911DAF5FEA2F9C
:101D9000F0E0E617F70794F302C080E090E060916E
:101DA000B001689F9001699F300D1124812F90E050
:101DB000841B950B0796880F991F880F991F880F12
:101DC000991F820F931F9C0136952795369527956D
:101DD00036952795482F4770442E0C81002309F42F
:101DE000ABC01B821A82812C912CC90101969E8363
:101DF0008D83212C522C9AC097E0941520F4AFEFDC
:101E00008A1A9A0A422CE091B101F091B2018D81B7
:101E10009E81880D991DE80FF91FE491E9832091B7
:101E20006200EA81FB812E9F50012F9FB00C11248C
:101E30008091960190919701A80EB91E8091610042
:101E4000C0909401D0909501389EC00CD11C1124F3
:101E5000222309F45BC001E010E0042C02C0000F53
:101E6000111F0A94E2F7622C48C0898190E0802318
:101E70009123892BD1F0809163009091640090931D
:101E800079008093780080919C01882339F0B70114
:101E9000C601870D911D0E94EF1824C0B601670D81
:101EA000711DC7010E94EF181DC080919801882301
:101EB000C9F080919A0190919B0190937900809351
:101EC000780080919C01882339F0B701C601870D05
:101ED000911D0E94EF1806C0B601670D711DC70164
:101EE0000E94EF18739480916100781608F4BDCFBA
:101EF000639480916200681648F4809161008823A1
:101F0000B9F3752C7501E60CF11CAFCF43943394F3
:101F10008091B001381608F46FCF2A813B812F5F82
:101F20003F4F3B832A830C81201730F48091B0010E
:101F3000882399F3312C60CF2F8138853093790035
:101F4000209378005091620040916000E985FA8505
:101F50005E9FC0015F9F900D1124840F911D209101
:101F6000960130919701820F931F90939701809370
:101F70009601842F0C81059F800D112407C080E0FD
:101F800005C080E003C080E001C080E02A960FB663
:101F9000F894DEBF0FBECDBFDF91CF911F910F919F
:101FA000FF90EF90DF90CF90BF90AF909F908F9079
:101FB0007F906F905F904F903F902F900895AF92D9
:101FC000BF92CF92DF92EF92FF920F931F93CF9326
:101FD000DF930091B1011091B201F8013596C490E0
:101FE0003196B490DC01EC91EE23A9F1D0909901E7
:101FF000A090AF016091620070E0A69EE001A79EF4
:10200000D00D11242091600030E0119680E090E026
:10201000EC2CF12CDD2019F08C0F9D1F16C0EC1557
:1020200050F0BE1650F0F0E03796EE19FF09E00FC1
:10203000F11FE49103C0EA2D01C0EA2DE69FA00143
:10204000E79F500D1124840F951F820F931FED9170
:10205000E111E0CF02C080E090E0DF91CF911F91CD
:102060000F91FF90EF90DF90CF90BF90AF900895C9
:102070000F931F93CF93DF93EC018881882369F03E
:1020800010E000E00E94090E080F1F5FFE01E10F43
:10209000F11D80818111F6CF01C000E0802F90E01A
:1020A000DF91CF911F910F9108958F929F92AF92E0
:1020B000BF92CF92DF92EF920F931F93CF93DF9354
:1020C000EC016B014A015901C8010E94DF0FAC18F5
:1020D000BD082091B001A21AB108B694A794CA0C09
:1020E000DB1C21E0E21621F022E0E21651F00FC0E5
:1020F0008C1A9D0A881A990A96948794C80DD91D3E
:1021000006C08815990518F4E401C81BD90BD093B3
:102110009701C0939601D0929501C0929401C80195
:102120000E943810DF91CF911F910F91EF90DF90B7
:10213000CF90BF90AF909F908F9008952F923F9235
:102140004F925F926F927F928F929F92AF92BF92C7
:10215000CF92DF92EF92FF920F931F93CF93DF9373
:10216000CDB7DEB72A970FB6F894DEBF0FBECDBF4E
:102170007C016B014A0159014817590748F48D2D1C
:102180006901A62EB82E9E2D8F2D7A01892E982EAC
:10219000E814F90419F0CA14DB04A9F400917800DA
:1021A000109179009501A401B601C7010E94F818A9
:1021B00000917800109179009601A701B501C40142
:1021C0000E94F818DDC0C4018E199F093C0122F459
:1021D00066247724681A790AC5018C199D092C0197
:1021E00022F444245524481A590A86018E149F0467
:1021F00020F022242394312C03C022242A94322C50
:10220000AC14BD0428F021E030E03E832D8304C0EF
:102210004FEF5FEF5E834D83641475040CF459C077
:102220004201AA2497FCA094BA2C880C991CAA1CE1
:10223000BB1CC301AA2797FDA095BA2F881A990A3B
:10224000AA0ABB0A77200CF49BC0C201880F991F11
:102250009C01442737FD4095542F2F8338874987A9
:102260005A8746185708440C551CC201AA2797FDE7
:10227000A095BA2F89839A83AB83BC836101E20C5A
:10228000F31C412C512CB801C7018C199D090E94E7
:10229000EF18BB204CF42F81388549855A85820E72
:1022A000931EA41EB51E0CC089819A81AB81BC818E
:1022B000880E991EAA1EBB1EAD81BE810A0F1B1F70
:1022C000BFEF4B1A5B0AEC0CFD1C64147504DCF6C2
:1022D00057C04301AA2497FCA094BA2C880C991CDF
:1022E000AA1CBB1CC201AA2797FDA095BA2F881A69
:1022F000990AAA0ABB0A55200CF442C0C301880FF0
:10230000991F9C01442737FD4095542F2F83388710
:1023100049875A8764187508660C771CC301AA2779
:1023200097FDA095BA2F89839A83AB83BC83CD8018
:10233000DE800C0D1D1D612C712CB8016C197D09FE
:10234000C7010E94EF18BB204CF42F8138854985C6
:102350005A85820E931EA41EB51E0AC089819A81D9
:10236000AB81BC81880E991EAA1EBB1EE20CF31C19
:102370009FEF691A790A0C0D1D1D46145704ECF6DF
:102380002A960FB6F894DEBF0FBECDBFDF91CF9176
:102390001F910F91FF90EF90DF90CF90BF90AF9083
:1023A0009F908F907F906F905F904F903F902F9075
:1023B00008952F923F924F925F926F927F928F92E9
:1023C0009F92AF92BF92CF92DF92EF92FF920F93C4
:1023D0001F93CF93DF93CDB7DEB72D970FB6F89449
:1023E000DEBF0FBECDBF3C012B8781E090E06C01CA
:1023F000C41AD50A1B015B01430123E030E03C8392
:102400002B8344244394512C5D874C877E826D82BC
:1024100078876F83A201415051095A8749875B85AC
:10242000552309F43FC000917800109179006F8125
:1024300078858C859D85680F791F9B01A401C30158
:102440000E94F81800917800109179006F817885CA
:10245000EC85FD856E1B7F0B9B01A401C3010E94CF
:10246000F818009178001091790095014D815E81F6
:102470008C859D85480F591F5A834983B501ED808E
:10248000FE80E81AF90AC7010E94F8180091780046
:1024900010917900910149815A81B101C7010E94CF
:1024A000F81838C00F811885EC85FD850E0F1F1FA9
:1024B000B801C4010E94EF18B501ED80FE802C85A3
:1024C0003D85E20EF31EC7010E94EF18B801C3015B
:1024D0000E94EF18B5010D811E814C855D85041B9E
:1024E000150BC8010E94EF18B101C7010E94EF1837
:1024F000EF80F8848C859D85E81AF90AB701C4013C
:102500000E94EF18B701C3010E94EF18B101C80182
:102510000E94EF18DD2034F4C201EB81FC81CE0E65
:10252000DF1E11C0C20129853A854C855D85241BBB
:10253000350B220F331F2B5F3F4FC20ED31E41506E
:1025400051095D874C875FEF451A550AEB81FC8185
:102550003296FC83EB83F1E06F1A71082FEF821A39
:10256000920A3FEFA31AB30A41E0241A3108EC851E
:10257000FD85E817F9070CF04DCF2D960FB6F894AE
:10258000DEBF0FBECDBFDF91CF911F910F91FF90A6
:10259000EF90DF90CF90BF90AF909F908F907F9003
:1025A0006F905F904F903F902F9008952F923F92A1
:1025B0004F925F926F927F928F929F92AF92BF9253
:1025C000CF92DF92EF92FF920F931F93CF93DF93FF
:1025D000CDB7DEB72C970FB6F894DEBF0FBECDBFD8
:1025E00098878F832B013A0119011C870B87EE20F6
:1025F00009F4C1C0480181E090E07C01E01AF10AD1
:10260000009178001091790021503109280D391D71
:102610006F5F7F4F681979098F8198850E94F8183C
:1026200003E010E0CC24C394D12CA12CB12C5C820B
:102630004B8226017A82698237013A8629861801FF
:102640002DC08F8198858819990900917800109183
:102650007900C984DA84CA0CDB1C9601AC01EB80DA
:10266000FC80EA18FB08B7010E94F81889819A815A
:10267000880D991D00917800109179009601AC01A8
:10268000B7010E94F8188D809E802FEFA21AB20A1F
:102690003FEF431A530A42E0240E311C6501A8148F
:1026A000B90431F10091780010917900E984FA843D
:1026B000E80CF91C97014F8158858B819C81881902
:1026C00099099E838D83BC01CA018A199B090E94C6
:1026D000F8180091780010917900970149815A818A
:1026E0004A0D5B1D6D817E8189819A810E94F81857
:1026F000772064F4620C731C8414950434F64B80C8
:102700005C8069807A8029843A8435C0F4013197ED
:10271000FE83ED83C60188199909880F991F0596D4
:10272000680E791EE415F5050CF08BCF4B805C80AC
:1027300069807A8029843A845601A20CB31C720104
:10274000EC18FD088F819885881999090091780007
:10275000109179009501AC01B7010E94F818C401ED
:10276000860D971D00917800109179009501AC01BC
:10277000B7010E94F8188B849C8481E090E05C0192
:10278000A818B9080F2EF3E0CF2ED12CF02DEE248F
:10279000E394F12C00E010E09A8289825A864986FF
:1027A00026017E826D82350130C0009731F129818A
:1027B0003A818217930709F1C984DA84CE18DF08B9
:1027C000B601AF80B884A21AB30AC5010E94EF18FF
:1027D0004701820C931CB401C5010E94EF18B60199
:1027E000CD80DE8049815A81C40ED51EC6010E946B
:1027F000EF18B401C6010E94EF180F5F1F4F5FEF83
:10280000E51AF50A82E0480E511CC984DA84E98190
:10281000FA81CE1ADF0AB6018F809884801A910A55
:10282000C4010E94EF18B601CD80DE80C00ED11E1B
:10283000C6010E94EF18A980BA80A20CB31CB50192
:10284000C4010E94EF18B501C6010E94EF1877205D
:1028500024F4C701640C751C10C0C701980149819C
:102860005A81241B350B220F331F2B5F3F4F620E03
:10287000731E415051095A834983E981FA81E8174F
:10288000F9070CF092CF49845A846D807E80B201A2
:102890002B853C85621B730B0091780010917900A9
:1028A0009B01A3018F8198850E94F8186B857C8518
:1028B000620D731D00917800109179009B01A301B6
:1028C0008F8198850E94F8188F8198854B855C854B
:1028D000841B950B00917800109179009101AC0157
:1028E000B2010E94F8188B859C85860D971D00917A
:1028F0007800109179009101AC01B2010E94F818A2
:102900002C960FB6F894DEBF0FBECDBFDF91CF91EE
:102910001F910F91FF90EF90DF90CF90BF90AF90FD
:102920009F908F907F906F905F904F903F902F90EF
:10293000089581E0089581115EC01092BD0110924A
:10294000BC011092B4011092B3011092B701109221
:10295000B6011092B9011092B80181E08093BB01D9
:102960001092BA018093B5011092EE01E0917000CF
:10297000F091710081E090E0AC010090660002C02F
:10298000440F551F0A94E2F79C010090650002C0B5
:10299000220F331F0A94E2F7242B2083E091740066
:1029A000F09175007083E0917600F091770060837C
:1029B000EEE6F0E0A081B1819C010090670002C0CA
:1029C000220F331F0A94E2F72C930190F081E02D3F
:1029D00040819C010090680002C0220F331F0A94BE
:1029E000E2F70090690002C0880F991F0A94E2F78D
:1029F000822B842B8083089581110EC04091BC01ED
:102A00005091BD012091B3013091B40181E0421792
:102A1000530719F480E0089580E0089581116CC097
:102A20008091EE0181508093EE018091B50181117A
:102A300033C08091EE01863078F58091BA01811122
:102A4000FCCF81E18093BA0181E08093B501809150
:102A5000BB01882309F11092BB01E0916E00F09157
:102A60006F00408181E090E09C0100906A0002C00C
:102A7000220F331F0A94E2F7242B2083E091720087
:102A8000F0917300208100906B0002C0880F991FA5
:102A90000A94E2F7822B80832091BC013091BD0122
:102AA0008091B3019091B4012817390739F1E09171
:102AB000BC01F091BD01E254FE4F8081E091BC0168
:102AC000F091BD01E254FE4F10822091BC01309183
:102AD000BD012F31310558F42091BC013091BD0169
:102AE0002F5F3F4F3093BD012093BC01089510929A
:102AF000BD011092BC01089580E0089580E0089522
:102B0000CF93DF9390E09C01220F331FF901ED5426
:102B1000FE4F40815181280F391FD901AA0FBB1FD9
:102B2000AA0FBB1FA459BF4F0D90BC91A02D2C9193
:102B3000DC01AA0FBB1FA295B295B07FBA27A07F78
:102B4000BA27A40FB51FA254BE4F2C932081318108
:102B50002F31310560F4FC01EE0FFF1FED54FE4FE5
:102B6000208131812F5F3F4F3183208307C0FC01DB
:102B7000EE0FFF1FED54FE4F11821082FC01E25157
:102B8000FE4F20812F5F2083FC01EB54FE4F2081FC
:102B9000213009F04DC0FC01E251FE4F20812B3164
:102BA00008F446C023E1FC01E654FE4F2083FC01FB
:102BB000EB54FE4F1082FC01E554FE4F208122238E
:102BC000B9F1FC01E554FE4F1082FC01EE0FFF1F2E
:102BD000E80FF91FEE0FFF1FEE0FFF1FE459FF4F25
:102BE000C281D3814881DC01AA0FBB1FAA0FBB1F82
:102BF000AA0FBB1FA81BB90BAB59BF4F81E090E0D8
:102C00009C0115960C90159702C0220F331F0A9451
:102C1000E2F7242B28830680F781E02D2081169689
:102C20000C9002C0880F991F0A94E2F7822B8083D0
:102C3000DF91CF910895CF93DF9390E0FC01E654AC
:102C4000FE4F20812223A1F0FC01EE0FFF1FE80FB1
:102C5000F91FEE0FFF1FEE0FFF1FE459FF4FA0817A
:102C6000B181FC01E654FE4F80818C93108274C0C8
:102C70009C01220F331FF901EA54FE4F408151811C
:102C8000F901E854FE4F2081318142175307C1F109
:102C9000FC01EE0FFF1FDF01A80FB91FAA0FBB1F1A
:102CA000AA0FBB1FA459BF4F0D90BC91A02DEA5491
:102CB000FE4F20813181EC01C295D295D07FDC2777
:102CC000C07FDC27C20FD31FC252DE4F28812C9356
:102CD000208131812F30310558F4FC01EE0FFF1FA8
:102CE000EA54FE4F8081918101969183808334C0A4
:102CF000FC01EE0FFF1FEA54FE4F118210822CC020
:102D0000FC01E554FE4F21E02083FC01EE0FFF1F84
:102D1000E80FF91FEE0FFF1FEE0FFF1FE459FF4FE3
:102D20000280F381E02D4081DC01AA0FBB1FAA0FB6
:102D3000BB1FAA0FBB1FA81BB90BAB59BF4F21E08C
:102D400030E0C90115960C9002C0880F991F0A94B3
:102D5000E2F7809584238083DF91CF9108951F92BD
:102D60000F920FB60F9211242F933F934F935F93BF
:102D70006F937F938F939F93AF93BF93EF93FF9343
:102D800080E00E948015FF91EF91BF91AF919F91DC
:102D90008F917F916F915F914F913F912F910F9004
:102DA0000FBE0F901F9018951F920F920FB60F92A3
:102DB00011242F933F934F935F936F937F938F9340
:102DC0009F93AF93BF93EF93FF9380E00E941B16F6
:102DD000FF91EF91BF91AF919F918F917F916F91F3
:102DE0005F914F913F912F910F900FBE0F901F90C9
:102DF00018950F930061202B422B642B862B8DB9E5
:102E0000BD9ABF9A6E9A0F9108956E98089521E029
:102E100020939D019093F2018093F1011092F001B3
:102E20001092EF011092F4011092F3011816190696
:102E300059F1E091F301F091F401E60FF71F808161
:102E40008FB98091F3019091F40101969093F40170
:102E50008093F301779BFECF8FB1E091EF01F0916A
:102E6000F001E60FF71F80838091EF019091F00150
:102E700001969093F0018093EF012091F101309140
:102E8000F20128173907A9F610929D01089556E618
:102E900046E006C000002150310921153105D1F767
:102EA000019718F0252F342FF5CF08959398929815
:102EB0008BBB15BA9598959A939A08959398929A80
:102EC0008BBB95BB9598959A939A0895CF93DF9372
:102ED000EB010E945617CE010E945E17DF91CF9141
:102EE0000895939892988BBB15BA9598959A1ABAAB
:102EF00014BA9498000083B390E0982F882739B3D0
:102F0000949A939A2FEF2ABB24BB832B08958FEFBB
:102F100085BB8BBB8ABB84BB939A929A959A949AF1
:102F200097988B9A8A9A8D9A8C9A8F9A84E190E0DE
:102F30000E944717979A84E190E00E9447170895EE
:102F40000E94871780E00E9471172FEF2ABB24BBD5
:102F50008BBB95BB80E00E94561781E090E00E94F9
:102F60005E178FE090E00E94471783E00E9456179B
:102F70008CEA9AEA0E945E178CE00E94561782E063
:102F800090E00E945E178DE00E9456178AE090E064
:102F90000E945E178EE00E94561780E09CE20E941D
:102FA0005E178EE10E94561788EB90E00E945E1734
:102FB0008FE090E00E94471781E00E9456178FE350
:102FC0009BE20E945E1782E00E94561780E096E026
:102FD0000E945E1780E10E94561780E090E00E94F8
:102FE0005E1781E10E94561780E390E60E945E170B
:102FF00084E190E00E94471785E00E94561780E028
:1030000090E00E945E1786E00E94561780E090E0F4
:103010000E945E1786E10E9456178CE19FEE0E9487
:103020005E1787E10E94561783E090E00E945E17CA
:1030300087E00E94561783E392E00E945E178BE0C0
:103040000E94561782E193E50E945E178FE00E946E
:10305000561780E090E00E945E1784E190E00E94A5
:10306000471781E40E94561780E090E00E945E17A7
:1030700082E40E94561780E090E00E945E1788E488
:103080000E94561780E090E00E945E1789E40E943B
:1030900056178FE391E00E945E1784E40E94561752
:1030A00080E09FEE0E945E1785E40E94561780E044
:1030B00090E00E945E1786E40E9456178FE391E02D
:1030C0000E945E1784E190E00E94471780E30E940F
:1030D000561787E097E00E945E1781E30E9456171B
:1030E00084E097E00E945E1782E30E94561784E016
:1030F00092E00E945E1783E30E94561781E092E0FF
:103100000E945E1784E30E94561783E092E00E94BB
:103110005E1785E30E94561784E092E00E945E17D6
:1031200086E30E94561784E092E00E945E1787E3D0
:103130000E94561782E095E00E945E178AE30E9483
:10314000561782E093E00E945E178BE30E945617A9
:1031500080E095E00E945E1784E190E00E944717AE
:103160000895CF93DF93EB01BC018EE40E946617B4
:10317000BE018FE40E94661782E20E945617DF911B
:10318000CF910895DF92EF92FF920F931F93CF9309
:10319000DF93EC018B01D42E790184E40E94561751
:1031A00080E090E09D2D8C2B9D2B0E945E1785E486
:1031B0000E945617C8010E945E1786E40E945617A7
:1031C000C7010E945E17B801CE010E94B118DF91BD
:1031D000CF911F910F91FF90EF90DF9008950E9483
:1031E000B11880917800909179000E945E1708953F
:1031F0006F927F928F929F92AF92BF92CF92DF9207
:10320000EF92FF920F931F93CF93DF935C016B01BB
:103210007A0149010E94C2188C149D04B0F06A2CF6
:103220007B2C0DC0C8010E945E172196EC16FD068E
:10323000C8F78FEFC81AD80A8C149D0430F0EA142E
:10324000FB04B8F3C62DD72DEDCF2FE331E04FEEC1
:1032500050E060E070E080E090E00E94C218DF91F2
:10326000CF911F910F91FF90EF90DF90CF90BF9083
:10327000AF909F908F907F906F9008950F931F93C2
:103280008C012FE331E04FEE50E060E070E080E031
:1032900090E00E94F8181F910F9108958091FD0110
:1032A0009091FE0108958091FF0190910002089590
:1032B00086B382FB882780F991E089270895AF9231
:1032C000BF92CF92DF92EF92FF920F93CF93DF9353
:1032D00080E98093F5010F2EF6EFAF2EF1E0BF2EBF
:1032E000F02DF50110820F2EF7EFCF2EF1E0DF2E3B
:1032F000F02D80EDF60180830F2EF8EFEF2EF1E038
:10330000FF2EF02DF7011082C9EFD1E0188200E006
:1033100020E042E060E080E00E94F916BC9AC49888
:1033200065EF71E085E090E00E940717C49A0E9463
:103330000517F5018081F0E28F9FC0011124909361
:1033400000028093FF018091FF0190910002F6013D
:103350002081269526952695822B909300028093B6
:10336000FF01F7018081F0E28F9FC001112490934B
:10337000FE018093FD018091FF0190910002288160
:10338000269526952695822B909300028093FF0127
:10339000DF91CF910F91FF90EF90DF90CF90BF9092
:1033A000AF900895C49A0E945F190895EF92FF921A
:1033B0000F931F93A0E0B0E04091AE005091AF009A
:1033C0006091B0007091B1007C018D01E41AF50AA2
:1033D000060B170BA80197016091AA007091AB0032
:1033E0008091AC009091AD000E943E352091A600E6
:1033F0003091A7004091A8005091A9000E944E353D
:10340000CA01B90160567F4F8F4F9F4F1F910F9197
:10341000FF90EF900895EF92FF920F931F93A0E01B
:10342000B0E04091A2005091A3006091A40070917F
:10343000A5007C018D01E41AF50A060B170BA80103
:10344000970160919E0070919F008091A0009091E3
:10345000A1000E943E3520919A0030919B0040913E
:103460009C0050919D000E944E35CA01B9016858D8
:103470007F4F8F4F9F4F1F910F91FF90EF900895B7
:103480002F923F924F925F926F927F928F929F9274
:10349000AF92BF92CF92DF92EF92FF920F931F9362
:1034A000CF93DF93CDB7DEB768970FB6F894DEBF42
:1034B0000FBECDBF5A874987190120E030E044EBA9
:1034C00052E40E949E326B017C0120E030E044EB2C
:1034D00053E40E94B23418164CF0C0929E01D09270
:1034E0009F01E092A001F092A10110C020E030E025
:1034F00044EB53E4C701B6010E949D3260939E01E4
:1035000070939F018093A0019093A1010EE911E0B7
:103510002BED3FE049E450E4F80160817181828144
:1035200093810E94B63420E030E044E353E40E94EB
:1035300009336B017C01F80160837183828393837B
:103540002BED3FE049EC5FE30E949E324B015C01B2
:103550006093A2017093A3018093A4019093A501AD
:103560002BED3FE049E450E4C701B6010E949E32D2
:103570002B013C016093A6017093A7018093A801E1
:103580009093A90124EE3BEC46E950E4C701B60153
:103590000E949E326B017C016093AA017093AB0183
:1035A0008093AC019093AD012BED3FE049EC50E4EA
:1035B000C301B2010E94B234181684F42BED3FE02F
:1035C00049EC50E4C301B2010E949D326093A60110
:1035D0007093A7018093A8019093A9012BED3FE080
:1035E00049EC50E4C501B4010E94B234181684F4C9
:1035F0002BED3FE049EC50E4C501B4010E949D323F
:103600006093A2017093A3018093A4019093A501FC
:103610002BED3FE049EC50E4C701B6010E94B23403
:10362000181684F42BED3FE049EC50E4C701B601D5
:103630000E949D326093AA017093AB018093AC010C
:103640009093AD01232809F448C28EE99FEE909330
:103650006400809363000F2EFEE92F2EF1E03F2ED1
:10366000F02D2AE830E03E832D834AE750E05A836C
:10367000498301E010E089859A8544969C0144279E
:1036800037FD4095542F2D873E874F87588B1A8BD7
:10369000098B13C049895A894F5F5F4F5A8B498BF9
:1036A00054E0250E311C8D819E8104969E838D836E
:1036B000E981FA813496FA83E983C988DA88F1E0EE
:1036C000CF1AD10821E0C216D10461F11CF4CD2833
:1036D00061F0CFC042E0C416D10409F440C053E009
:1036E000C516D10409F458C0C4C0EAE7F0E060810F
:1036F0007181828193810E9471334B015C01EAE800
:10370000F0E060817181828193810E947133CB01ED
:103710000597E12C02EB10E09401AC01B4010E948A
:1037200055109DC1EEE7F0E0608171818281938147
:103730000E9471334B015C01EEE8F0E06081718121
:10374000828193810E947133CB010597E12C04EBB8
:1037500010E09401AC01B4010E94551080C1E2E870
:10376000F0E060817181828193810E9471334B010D
:103770005C01E2E9F0E060817181828193810E94C5
:103780007133CB010597E12C02E111E09401AC010A
:10379000B4010E94551063C160918600709187004A
:1037A00080918800909189000E9471334B015C01E7
:1037B0006091960070919700809198009091990087
:1037C0000E947133CB010597E12C06EB10E09401C8
:1037D000AC01B4010E9455101601220C331C220CBE
:1037E000331CF101E256FE4F80809180A280B380AD
:1037F000C501B4010E9406332B013C0169857A851D
:103800006C5E7F4F882777FD8095982F0E94A433A8
:103810006B017C01810106571F4F9B01AC01C30165
:10382000B2010E94B63420E030E04EEE52E40E9435
:103830009E32F8016083718382839383C501B40152
:103840000E9419359B01AC01810106581F4FC70129
:10385000B6010E94B6349B01AC0160E070E081E5E6
:1038600093E40E949D32F801608371838283938385
:1038700043C0F10180809180A280B380C501B40172
:103880000E9406332B013C016D857E858F859889CA
:103890000E94A4336B017C019B01AC01C301B20106
:1038A0000E94B63420E030E04EEE52E40E949E3298
:1038B000ED81FE816083718382839383C501B401AE
:1038C0000E9419359B01AC01C701B6010E94B634B4
:1038D0009B01AC0160E070E081E593E40E949D32C1
:1038E000E981FA81608371838283938329893A898C
:1038F000243031050CF4CECE109264001092630097
:1039000001E010E00F2EFEE7AF2EF0E0BF2EF02D0D
:103910000F2EFEE8CF2EF0E0DF2EF02D0F2EF2E876
:103920008F2EF0E09F2EF02D0F2EF2E92F2EF0E0DB
:103930003F2EF02D1A83098306C049815A814F5FBB
:103940005F4F5A83498389819A810197813091051C
:1039500041F11CF4892B41F07BC082309105E1F1EB
:10396000039709F454C074C0EAE7F0E06081718104
:10397000828193810E9471332B013C01EAE8F0E0DF
:1039800060817181828193810E947133CB0105979F
:10399000E12C02EB10E09201AC01B2010E94551043
:1039A000CCCFF50160817181828193810E94713356
:1039B0002B013C01F60160817181828193810E941B
:1039C0007133CB010597E12C04EB10E09201AC01BF
:1039D000B2010E945510B1CFF401608171818281E2
:1039E00093810E9471332B013C01F101608171814F
:1039F000828193810E947133CB010597E12C02E112
:103A000011E09201AC01B2010E94551096CF609175
:103A100086007091870080918800909189000E94B3
:103A200071334B015C016091960070919700809119
:103A30009800909199000E947133CB010597E12C79
:103A400006EB10E09401AC01B4010E945510C5C012
:103A500029813A81243031050CF46FCFBEC0F101C9
:103A600080809180A280B380C501B4010E9406339A
:103A70002B013C016D857E858F8598890E94A4333A
:103A80006B017C019B01AC01C301B2010E94B63401
:103A900020E030E04EEE52E40E949E32ED81FE8145
:103AA0006083718382839383C501B4010E941935B9
:103AB0009B01AC01C701B6010E94B6349B01AC0169
:103AC00060E070E081E593E40E949D32E981FA8133
:103AD0006083718382839383DDCD80909E0190907B
:103AE0009F01A090A001B090A101C501B4010E9466
:103AF00006332B013C0129853A85B901882777FDDA
:103B00008095982F0E94A4336B017C01C501B401FC
:103B10000E9419359B01AC01C701B6010E94B63461
:103B20009B01AC0160E070E081E593E40E949D326E
:103B30000E9471334B015C01A7019601C301B201E0
:103B40000E94B63420E030E04EEE52E40E949E32F5
:103B50000E9471339401AB0161ED70E087E790E062
:103B60000E949E108090A6019090A701A090A801AD
:103B7000B090A901C501B4010E9406332B013C019C
:103B8000C501B4010E9419359B01AC01C701B60102
:103B90000E94B6349B01AC0160E070E081E593E4E3
:103BA0000E949D320E9476334B015C01A301920179
:103BB000C701B6010E94B63420E030E04EEE52E478
:103BC0000E949E320E9476339401AB0161ED70E059
:103BD00087E790E00E949E10DDC10EE911E0F80138
:103BE00080809180A280B380C501B4010E94063319
:103BF0006B017C0129853A85B901882777FD80957D
:103C0000982F0E94A4332B013C019B01AC01C701FA
:103C1000B6010E94B63420E030E04EEE52E40E943D
:103C20009E3269837A838B839C83C501B4010E9491
:103C300019359B01AC01C301B2010E94B6349B014E
:103C4000AC0160E070E081E593E40E949D326B017D
:103C50007C0180E098EF90937900809378002BEDC1
:103C60003FE049E450E4C501B4010E949E3223ECD8
:103C700038EB42E35EE30E949D324B015C01F801A8
:103C800060837183828393830E94063369877A8776
:103C90008B879C87C501B4010E9419359B01AC013B
:103CA000C301B2010E94B6349B01AC01C701B60149
:103CB0000E949D320E9471336D837E838F8398872B
:103CC00029853A854B855C85C301B2010E94B634D3
:103CD0009B01AC0169817A818B819C810E949E321B
:103CE0000E94713369877A878B879C87C701B601E9
:103CF0000E9471336D877E878F87988B69817A8167
:103D00008B819C810E947133698B7A8B8B8B9C8B0E
:103D10002D813E8149855A856D857E8589899A895F
:103D20000E949E1023EC38EB42EB5EE3F8016081C9
:103D30007181828193810E949E324B015C01F80166
:103D400060837183828393830E9406336D8B7E8BA5
:103D50008F8B988FC501B4010E9419359B01AC016E
:103D6000C301B2010E94B6349B01AC01C701B60188
:103D70000E949D320E9471336B017C012D893E8926
:103D80004F89588DC301B2010E94B6349B01AC012A
:103D900069817A818B819C810E949E320E9471335D
:103DA0004B015C019601AB016D857E8589899A89FD
:103DB0000E949E109601A4016D817E8189859A855D
:103DC0000E949E1006EA11E0F80180809180A28096
:103DD000B380C501B4010E9406339B01AC01C3014D
:103DE000B2010E94B63420E030E04EEE52E40E9470
:103DF0009E3269837A838B839C83C501B4010E94C0
:103E000019359B01AC01C301B2010E94B6349B017C
:103E1000AC0160E070E081E593E40E949D326B01AB
:103E20007C018EE99FEE90937900809378002BEDD2
:103E30003FE049E450E4C501B4010E949E3223EC06
:103E400038EB42E35EE30E949D324B015C01F801D6
:103E500060837183828393830E94063369877A87A4
:103E60008B879C87C501B4010E9419359B01AC0169
:103E7000C301B2010E94B6349B01AC01C701B60177
:103E80000E949D320E9471336D837E838F83988759
:103E900029853A854B855C85C301B2010E94B63401
:103EA0009B01AC0169817A818B819C810E949E3249
:103EB0000E94713369877A878B879C87C701B60117
:103EC0000E9471336D877E878F87988B69817A8195
:103ED0008B819C810E947133698B7A8B8B8B9C8B3D
:103EE0002D813E8149855A856D857E8589899A898E
:103EF0000E949E1023EC38EB42EB5EE3F8016081F8
:103F00007181828193810E949E324B015C01F80194
:103F100060837183828393830E9406336D8B7E8BD3
:103F20008F8B988FC501B4010E9419359B01AC019C
:103F3000C301B2010E94B6349B01AC01C701B601B6
:103F40000E949D320E9471336B017C012D893E8954
:103F50004F89588DC301B2010E94B6349B01AC0158
:103F600069817A818B819C810E949E320E9471338B
:103F70004B015C019601AB016D857E8589899A892B
:103F80000E949E109601A4016D817E8189859A858B
:103F90000E949E1068960FB6F894DEBF0FBECDBF8C
:103FA000DF91CF911F910F91FF90EF90DF90CF9015
:103FB000BF90AF909F908F907F906F905F904F9049
:103FC0003F902F900895CF92DF92EF92FF920F9340
:103FD0001F93CF93DF936C017B01109279001092B5
:103FE0007800C0E0D0E08C010B5F1F4FBE01882736
:103FF00077FD8095982F0E94A43320E030E0A8013F
:104000000E94401ACE0DDF1DC43BD10579F783EF26
:104010009DE19093790080937800A6014550510965
:1040200021E061ED70E087E790E00E94D911DF9117
:10403000CF911F910F91FF90EF90DF90CF90089557
:104040006F927F928F929F92AF92BF92CF92DF92A8
:10405000EF92FF920F931F93CF93DF93CDB7DEB70D
:10406000CB58D1090FB6F894DEBF0FBECDBF10926A
:1040700033020F2EF4E4EF2EF2E0FF2EF02DA12CF0
:10408000B12C20C0802F0E94FC14882399F0D70106
:10409000CD90DC90802F0E940E15EBE0F0E0EC0F4D
:1040A000FD1FEC0DFD1D8083F7018081918101963C
:1040B000918380830F5F1F4F0E94991490E008172F
:1040C000190704F3D7018D919C91883791051CF451
:1040D0000A2D1B2DF1CF873791050CF4EAC21092FF
:1040E000450210924402FE013B96DF010D90002034
:1040F000E9F79D012E1B3F0B25503109E20FF31FFD
:1041000080818A3261F42330310508F4D5C242E05F
:104110004F5F842F90E082179307D0F3D0C2CD5722
:10412000DF4F188219821A82C358D040CA57DF4F16
:10413000188219821A82C658D040C757DF4F18829A
:1041400019821A82C958D040FE0131968AE0DF01F7
:104150001D928A95E9F71092320268EB70E0CE0169
:104160000B960E940C36009709F4ACC26CE270E02A
:104170000E94F2358C01BC016F5F7F4F42E050E03E
:10418000CE018D579F4F0E94FD35B8016D5F7F4F67
:1041900042E050E0CE018A579F4F0E94FD356801F2
:1041A000B5E0CB0ED11C42E050E0B601CE018757FE
:1041B0009F4F0E94FD350CE112E0F8018081918152
:1041C0009093590280935802CE018D579F4F0E94C1
:1041D000AD357C01D8018D939C930EE112E0F8017E
:1041E0008081918190935B0280935A02CE018A571D
:1041F0009F4F0E94AD35D8018D939C93CE01875778
:104200009F4F0E94AD359093210280932002B6E12A
:10421000EB16F10444F4E2E0EE0EF11CF0921D0204
:10422000E0921C020FC0F6E1EF16F10429F410929F
:104230001D0210921C0206C081E090E090931D02C6
:1042400080931C026CE270E0C6010E94F2359C0172
:104250002F5F3F4FDC0111968C91813469F481E42A
:1042600090E090934D0280934C0281E090E0909317
:104270004B0280934A020FC0863569F486E590E0D0
:1042800090934D0280934C0210924B0210924A027E
:1042900080E090E021C26CE270E0C9010E94F2353A
:1042A0007C018C010F5F1F4FFC0181818C3209F46E
:1042B000BEC042E050E0B801CE0101960E94FD353B
:1042C000CE0101960E94CB359B01AC0160E876E9F6
:1042D00088E990E00E943E354B015C01B7016D5FBB
:1042E0007F4F42E050E0CE0101960E94FD350B5F0A
:1042F0001F4F44E050E0B801CE0103960E94FD3507
:104300000F2EF2E26F2EF2E07F2EF02DF30180816E
:104310009181A281B3818093600290936102A09306
:104320006202B0936302CE0101960E94CB359B01DD
:10433000AC01A2E3B0E00E946D3523E030E040E044
:1043400050E00E944E3569017A0120932E0230938D
:104350002F024093300250933102D501C401820FE5
:10436000931FA41FB51F80932A0290932B02A09342
:104370002C02B0932D02C501B40120EA36E841E0D9
:1043800050E00E944E35CA01B9010E94A4334B018E
:104390005C01C701B6010E94A4332CE933E549EC66
:1043A00056E30E94B6349B01AC01C501B4010E94E2
:1043B0009E320E9471336B017C01D3016D937D931A
:1043C0008D939C93139724E630E040E050E00E94E8
:1043D0004E3549015A0124E6289DC001299D900DC2
:1043E0001124AA2797FDA095BA2FA7019601281B93
:1043F000390B4A0B5B0BCA01B9010E94A43320E0C0
:1044000030E040E752E40E9409330E947133AA244D
:1044100097FCA094BA2C860E971EA81EB91E8092F7
:10442000260290922702A0922802B09229026CE202
:1044300070E0C8010E94F2356C017C013FEFE31A85
:10444000F30ADC0111968C918C3239F1833509F035
:104450003FC106E212E0F80160817181828193819F
:104460000E94A43390580E947133D8016D937D93BC
:104470008D939C931397F60181818E3421F48EE401
:10448000809332020AC0833519F48093320205C04A
:104490008C3219F48FE2809332026CE270E0C70133
:1044A0000E94F2357C018C010F5F1F4FDC011196D9
:1044B0008C918C3209F4AEC043E050E0B801CE01DB
:1044C00001960E94FD351C82CE0101960E94CB35DB
:1044D0009B01AC0160E876E988E990E00E943E35F6
:1044E0004B015C01B7016C5F7F4F42E050E0CE01B1
:1044F00001960E94FD350A5F1F4F44E050E0B8016D
:10450000CE0103960E94FD35CE0101960E94CB3567
:104510009B01AC01A2E3B0E00E946D3523E030E0E6
:1045200040E050E00E944E3569017A01209340023C
:10453000309341024093420250934302D501C4019B
:10454000820F931FA41FB51F80933C0290933D02DE
:10455000A0933E02B0933F02C501B40120EA36E8C1
:1045600041E050E00E944E35CA01B9010E94A433D7
:104570004B015C01C701B6010E94A4332CE933E56D
:1045800049EC56E30E94B6349B01AC01C501B4016D
:104590000E949E320E9471336B017C016093340251
:1045A00070933502809336029093370224E630E010
:1045B00040E050E00E944E3549015A0124E6289D12
:1045C000C001299D900D1124AA2797FDA095BA2F0F
:1045D000A7019601281B390B4A0B5B0BCA01B901D5
:1045E0000E94A43320E030E040E752E40E94093307
:1045F0000E947133AA2497FCA094BA2C860E971EB1
:10460000A81EB91E8092380290923902A0923A02F6
:10461000B0923B026CE270E0C8010E94F2357C016E
:104620003FEFE31AF30ADC0111968C91873591F480
:1046300008E312E0F80160817181828193810E9418
:10464000A43390580E947133D8016D937D938D935C
:104650009C9313976CE270E0C7010E94F2358C01C5
:104660000F5F1F4FFC0181818C3259F0C8010E94FD
:10467000A93560934E0270934F028093500290933D
:1046800051026CE270E0C8010E94F235DC01119623
:104690002C912C32D1F001960E94A93560935202E0
:1046A00070935302809354029093550281E090E0FE
:1046B00013C081E090E010C080E090E00DC080E089
:1046C00090E00AC081E090E007C081E090E004C083
:1046D0008E3409F0E2CED3CEC557DF4F0FB6F89433
:1046E000DEBF0FBECDBFDF91CF911F910F91FF9025
:1046F000EF90DF90CF90BF90AF909F908F907F9082
:104700006F900895803350F08A3310F480530895E9
:104710009FEB980F963020F48753089580E008951A
:1047200080E008952F923F924F925F926F927F9216
:104730008F929F92AF92BF92CF92DF92EF92FF92B1
:104740000F931F93CF93DF93CDB7DEB7CF58D10927
:104750000FB6F894DEBF0FBECDBF109233020F2EFE
:10476000F4E4EF2EF2E0FF2EF02DA12CB12C20C0AE
:10477000802F0E94FC14882399F0D701CD90DC9003
:10478000802F0E940E15EBE0F0E0EC0FFD1FEC0D0A
:10479000FD1D8083F7018081918101969183808343
:1047A0000F5F1F4F0E94991490E00817190704F338
:1047B000D7018D919C91883791051CF40A2D1B2DF2
:1047C000F1CF873791050CF444C310924502109243
:1047D0004402FE013B96DF010D900020E9F711979E
:1047E0007D01EE1AFF0A870104501109E00FF11F45
:1047F00080818A3251F5FE01EE0DFF1D80850E94F9
:104800008223B0E18B9F60011124DE01AE0DBF1D3C
:1048100019968C910E948223F601E80FF11DCF01B9
:104820000230110578F041E0EBE0F0E0EC0FFD1F05
:10483000E40FF11D208182274F5F242F30E02017E5
:10484000310790F3892B09F004C3CD57DF4F18824D
:1048500019821A82C358D040CA57DF4F1882198272
:104860001A82C658D040C757DF4F188219821A8261
:10487000C958D040FE0131968AE0DF011D928A9529
:10488000E9F7109232026FEB70E0CE010B960E94B6
:104890000C36009709F4DDC26CE270E00E94F2353C
:1048A0008C01BC016F5F7F4F42E050E0CE018D571D
:1048B0009F4F0E94FD35B8016D5F7F4F42E050E091
:1048C000CE018A579F4F0E94FD356801B5E0CB0E9F
:1048D000D11C42E050E0B601CE0187579F4F0E94A5
:1048E000FD350CE112E0F80180819181909359022D
:1048F00080935802CE018D579F4F0E94AD357C01A9
:10490000D8018D939C930EE112E0F8018081918192
:1049100090935B0280935A02CE018A579F4F0E9468
:10492000AD35D8018D939C93CE0187579F4F0E9440
:10493000AD359093210280932002B6E1EB16F1048D
:1049400044F4E2E0EE0EF11CF0921D02E0921C0233
:104950000FC0F6E1EF16F10429F410921D02109237
:104960001C0206C081E090E090931D0280931C021F
:104970006CE270E0C6010E94F2357C018C010F5F91
:104980001F4FDC0111968C918C3209F4CFC042E0AC
:1049900050E0B801CE0101960E94FD35CE0101968E
:1049A0000E94CB359B01AC0160E876E988E990E094
:1049B0000E943E354B015C01B7016D5F7F4F42E0C5
:1049C00050E0CE0101960E94FD350B5F1F4F44E081
:1049D00050E0B801CE0103960E94FD35CE0101964C
:1049E0000E94CB359B01AC01A2E3B0E00E946D3583
:1049F00023E030E040E050E00E944E3569017A014A
:104A000020932E0230932F024093300250933102B4
:104A10000F2EF2E22F2EF2E03F2EF02DF1018081D9
:104A20009181A281B3818093600290936102A093EF
:104A30006202B0936302C501B40120EA36E841E0A6
:104A400050E00E944E35CA01B9010E94A4332B01E7
:104A50003C01C701B6010E94A4332CE933E549ECBF
:104A600056E30E94B6349B01AC01C301B2010E941F
:104A70009E320E9471332B013C01D1016D937D93D5
:104A80008D939C93139724E630E040E050E00E9421
:104A90004E35C457DF4F288339834A835B83CC5814
:104AA000D04024E6C457DF4FE881F981CC58D0408C
:104AB0002E9FC0012F9F900D1124AA2797FDA0952E
:104AC000BA2FA3019201281B390B4A0B5B0BCA01B9
:104AD000B9010E94A43320E030E040E752E40E9494
:104AE00009330E947133C457DF4F48815981CC5834
:104AF000D0402A01662457FC6094762C460E571E3F
:104B0000681E791E40922602509227026092280267
:104B100070922902C80CD91CEA1CFB1CC0922A0204
:104B2000D0922B02E0922C02F0922D026CE270E007
:104B3000C8010E94F2358C016C015FEFC51AD50ADD
:104B4000DC0111968C918C3259F1833509F07DC1CD
:104B50000F2EF6E2EF2EF2E0FF2EF02DF70160812E
:104B60007181828193810E94A43390580E94713395
:104B7000D7016D937D938D939C931397F801818159
:104B80008E3421F48EE4809332020AC0833519F406
:104B90008093320205C08C3219F48FE28093320286
:104BA0006CE270E0C6010E94F2357C018C010F5F5F
:104BB0001F4FDC0111968C918C3209F4D0C043E078
:104BC00050E0B801CE0101960E94FD351C82CE0155
:104BD00001960E94CB359B01AC0160E876E988E93B
:104BE00090E00E943E354B015C01B7016C5F7F4F46
:104BF00042E050E0CE0101960E94FD350A5F1F4F52
:104C000044E050E0B801CE0103960E94FD35CE018C
:104C100001960E94CB359B01AC01A2E3B0E00E945B
:104C20006D3523E030E040E050E00E944E356901F0
:104C30007A01209340023093410240934202509304
:104C400043020F2EF4E32F2EF2E03F2EF02DF10160
:104C500080819181A281B3818093640290936502E7
:104C6000A0936602B0936702C501B40120EA36E85A
:104C700041E050E00E944E35CA01B9010E94A433C0
:104C80002B013C01C701B6010E94A4332CE933E596
:104C900049EC56E30E94B6349B01AC01C301B2015A
:104CA0000E949E320E9471332B013C01D1016D9311
:104CB0007D938D939C93139724E630E040E050E081
:104CC0000E944E35C457DF4F288339834A835B8364
:104CD000CC58D04024E6C457DF4FE881F981CC5846
:104CE000D0402E9FC0012F9F900D1124AA2797FD21
:104CF000A095BA2FA3019201281B390B4A0B5B0B1D
:104D0000CA01B9010E94A43320E030E040E752E438
:104D10000E9409330E947133C457DF4F4881598183
:104D2000CC58D0402A01662457FC6094762C460E5D
:104D3000571E681E791E40923802509239026092C6
:104D40003A0270923B02C80CD91CEA1CFB1CC092B0
:104D50003C02D0923D02E0923E02F0923F026CE2B1
:104D600070E0C8010E94F2358C010F5F1F4FDC011B
:104D700011968C918735B1F40F2EF8E3EF2EF2E007
:104D8000FF2EF02DF70160817181828193810E9455
:104D9000A43390580E947133D7016D937D938D9306
:104DA0009C9313976CE270E0C8010E94F2358C016D
:104DB0000F5F1F4FFC0181818C3239F0C8010E94C6
:104DC000AD3590934B0280934A026CE270E0C801CB
:104DD0000E94F2358C010F5F1F4FDC0111968C9100
:104DE0008C3299F00F2EF6E4EF2EF2E0FF2EF02D2C
:104DF000F7018081918190935D0280935C02C801EC
:104E00000E94AD35D7018D939C936CE270E0C80190
:104E10000E94F2356CE270E001960E94F235FC01CE
:104E200021812C32B1F008E412E0D8012D913C919F
:104E300030935F0220935E0201960E94A9350E9482
:104E40007133F8017183608304C08E3409F0A8CEF9
:104E500099CEC157DF4F0FB6F894DEBF0FBECDBF5E
:104E6000DF91CF911F910F91FF90EF90DF90CF9046
:104E7000BF90AF909F908F907F906F905F904F907A
:104E80003F902F9008952F923F924F925F926F9292
:104E90007F928F929F92AF92BF92CF92DF92EF92CA
:104EA000FF920F931F93CF93DF93CDB7DEB7649735
:104EB0000FB6F894DEBF0FBECDBF1092330283EF62
:104EC0009DE1909379008093780003EF1DE120E548
:104ED00030E04FEE50E068E270E080E090E00E9449
:104EE000F81880E195E1909379008093780000E1D3
:104EF00015E120E530E048E250E068E270E080E053
:104F000090E00E94F8180F2EFEE9CF2EFFEEDF2E64
:104F1000F02DD0926400C0926300EE24E39406EC7E
:104F200010E020E530E048E250E068E270E080E028
:104F300090E00E94551008EC10E020E530E04FEEC4
:104F400050E068E270E080E090E00E945510D0925E
:104F50007900C092780000E010E02FE331E04FEEDE
:104F600050E061E570E080E090E00E94D61210927F
:104F7000790010927800109264001092630001EDA5
:104F800010E024E630E040EE50E06AE570E08FE0AB
:104F900090E00E94551025E530E04AE050E065E5DC
:104FA00070E085E090E00E949E1027E131E045E04E
:104FB00050E065E570E085E090E00E949E1025E5F8
:104FC00030E045EE50E065E570E08AEE90E00E944A
:104FD0009E1027E131E04AEE50E065E570E08AEE90
:104FE00090E00E949E108BED94E390937900809363
:104FF00078000BED14E32AE331E04AEE50E067E17C
:1050000071E085E090E00E94F818D0926400C092B0
:10501000630008ED10E02EE231E040EE50E064E283
:1050200071E08FE090E00E94551001E010E09E01D9
:105030002F5F3F4F59010F2EF8E4CF2EF2E0DF2E05
:10504000F02D0F2EFEE98F2EFFEE9F2EF02DF12C6E
:105050000F2E412CF8EF5F2EF02D0F2EFDE06F2E5E
:1050600077247394F02D0F2EF3E02F2E33243394F6
:10507000F02DDAC00E9434290E949223D501E4E188
:105080001D92EA95E9F72BE432E330936400209314
:105090006300D6018D919C91EEE5F2E02081318193
:1050A0008217930719F4012B09F4BCC018161906CE
:1050B0000CF0B8C090927900809278008BE09F2D20
:1050C0000BE01F2D21E045E050E067E171E00E9418
:1050D000D911045F1F4F802F912F0F3E110591F7BB
:1050E0009092790080927800840127E131E049EEC6
:1050F00050E06EE670E086E090E00E94F818509272
:105100007900409278005092640040926300D6018A
:1051100011968C9111978F938C918F93ABE7B1E09F
:10512000BF93AF93BF92AF920E944336D6016D9169
:105130007C91882777FD8095982F0E94A43329E7DA
:1051400039EE46E25EE30E94B6340E947133930169
:10515000261B370BF101E61BF70BBF01E12C850184
:105160004FEE50E08FE090E00E945510D6016D9117
:105170007C91882777FD8095982F0E94A43329E79A
:1051800039EE46E25EE30E94B6340E94713307E1D5
:1051900011E0F801E61BF70BBF019F0144E650E068
:1051A00086E090E00E949E10D6016D917C91882748
:1051B00077FD8095982F0E94A43329E739EE46E2C7
:1051C0005EE30E94B6340E947133F801E61BF70BD0
:1051D000BF019F014AE850E089EE90E00E949E10D6
:1051E000D6016D917C91882777FD8095982F0E943C
:1051F000A43329E739EE46E25EE30E94B6340E940A
:105200007133F801E61BF70BBF0121E045E050E0E8
:1052100087E790E00E94D9110F900F900F900F90A8
:105220000F900F9000E010E080911702909118020B
:10523000049709F41FCF64960FB6F894DEBF0FBE33
:10524000CDBFDF91CF911F910F91FF90EF90DF9035
:10525000CF90BF90AF909F908F907F906F905F9016
:105260004F903F902F9008952F923F924F925F92D0
:105270006F927F928F929F92AF92BF92CF92DF9266
:10528000EF92FF920F931F93CF93DF93CDB7DEB7CB
:1052900028970FB6F894DEBF0FBECDBF0E945819F5
:1052A000882309F445C30E945F190E9453194C01D9
:1052B0000E944E199A8389830E9453196C010E949F
:1052C0004E198C010E9453197C010E944E19988737
:1052D0008F830E945F190E9453195C010E944E192E
:1052E0001C010E945319C816D90618F40E945319BC
:1052F0006C010E9453198E159F0518F40E945319D2
:105300007C010E944E190817190718F40E944E19C3
:105310008C010E944E192F8138858217930720F443
:105320000E944E1998878F830E945F190E9453191B
:105330003C010E944E199C838B830E945319C8160E
:10534000D90618F40E9453196C010E9453198E1546
:105350009F0518F40E9453197C010E944E190817EA
:10536000190718F40E944E198C010E944E19EF8102
:10537000F8858E179F0720F40E944E1998878F8317
:105380000E945F190E9453192C010E944E199E839E
:105390008D830E945319C816D90618F40E94531918
:1053A0006C010E9453198E159F0518F40E94531921
:1053B0007C010E944E190817190718F40E944E1913
:1053C0008C010E944E192F8138858217930720F493
:1053D0000E944E1998878F830E945819882309F4D8
:1053E000B3C2A80CB91CA60CB71CC501840D951D31
:1053F0008C199D098E199F09969587950E94D6193B
:105400006B017C0189819A81820D931DEB81FC8166
:105410008E0F9F1F2D813E81820F931F801B910B4A
:10542000EF81F8858E1B9F0B969587950E940B1A2E
:105430002091AE01222321F022E02093190203C023
:1054400021E02093190297018601015011092109D9
:1054500031090F3311402105310508F065C28B0178
:105460009C0101501109210931090F3E1105210547
:10547000310508F059C2D0925702C092560270937B
:105480001B0260931A0220911902213009F04CC2CC
:1054900020911702309118022230310509F417C10A
:1054A00044F42115310581F02130310509F4CEC0D5
:1054B0003BC22430310509F4B8C10CF45FC1263079
:1054C000310509F4F3C130C2AB0145505109463EE4
:1054D000510508F029C2C6018D97C39708F580E1F0
:1054E00095E1909379008093780000E115E12FE534
:1054F00030E04FEE50E06DE270E08AEE90E00E9406
:10550000F8188EE99FEE909379008093780081E0FF
:1055100090E090931802809317020E94BC3004C25E
:10552000C60184569109C39778F580E195E190937F
:1055300079008093780000E115E126E930E04FEE34
:1055400050E064E670E08AEE90E00E94F8188EE980
:105550009FEE909379008093780082E090E09093A2
:10556000180280931702EE24E39400E010E02FE38A
:1055700031E04FEE50E069E270E080E090E00E94A0
:10558000D61210923302D0C1C6018B599109C3972C
:1055900008F580E195E1909379008093780000E12F
:1055A00015E12DEC30E04FEE50E06BE970E08AEE53
:1055B00090E00E94F8188EE99FEE90937900809316
:1055C000780084E090E090931802809317020E9484
:1055D0004327AAC1C601825D9109C39768F48EE989
:1055E0009FEE909379008093780085E090E090930F
:1055F00018028093170298C129E0C21A21E0D20A4A
:1056000033E3C316D10408F08FC180E195E1909394
:1056100079008093780000E115E12BE331E04FEE53
:1056200050E069E071E08AEE90E00E94F8188EE99F
:105630009FEE909379008093780086E090E09093BD
:105640001802809317020E94BD2C6EC16932710549
:1056500008F06AC148E2C41AD10889E2C816D10428
:1056600008F062C18BE492E3909379008093780014
:105670000BE412E320E530E048E250E068E270E03D
:1056800080E090E00E94F8180F2EFEE9CF2EFFEE8A
:10569000DF2EF02DD0926400C0926300EE24E394DC
:1056A00006EC10E020E530E048E250E068E270E00F
:1056B00080E090E00E945510D0927900C09278006E
:1056C00010921802109217020E941E2F2DC16932EB
:1056D0007105D8F596012852310929323105A8F50E
:1056E0008BE492E390937900809378000BE412E3CB
:1056F00020E530E048E250E068E270E080E090E0D1
:105700000E94F8180F2EFEE9CF2EFFEEDF2EF02DAF
:10571000D0926400C0926300EE24E39406EC10E0A3
:1057200020E530E048E250E068E270E080E090E0A0
:105730000E945510D0927900C09278001092180201
:10574000109217020E941E2FEFC0AB01475751095C
:105750004536510508F0E8C0EDE0CE1AE1E0DE0A7A
:10576000FFE1CF16D10408F0DFC083E090E0909312
:1057700018028093170210923302D6C06932710565
:10578000D8F596012852310929323105A8F58BE464
:1057900092E390937900809378000BE412E320E584
:1057A00030E048E250E068E270E080E090E00E9483
:1057B000F8180F2EFEE9CF2EFFEEDF2EF02DD0923F
:1057C0006400C0926300EE24E39406EC10E020E550
:1057D00030E048E250E068E270E080E090E00E9453
:1057E0005510D0927900C092780010921802109251
:1057F00017020E941E2F98C0AB0144515109443634
:10580000510508F091C02DE0C21A21E0D20A3FE113
:10581000C316D10408F088C082E090E0909318028B
:1058200080931702109233027FC06932710508F02D
:105830007BC048E2C41AD10889E2C816D10408F036
:1058400073C08BE492E390937900809378000BE42B
:1058500012E320E530E048E250E068E270E080E0EA
:1058600090E00E94F8180F2EFEE9CF2EFFEEDF2EFB
:10587000F02DD0926400C0926300EE24E39406EC15
:1058800010E020E530E048E250E068E270E080E0BF
:1058900090E00E945510D0927900C092780010924A
:1058A0001802109217020E941E2F3EC06932710525
:1058B000D8F5E8E2CE1AD108F9E2CF16D104A0F566
:1058C0008BE492E390937900809378000BE412E3E9
:1058D00020E530E048E250E068E270E080E090E0EF
:1058E0000E94F8180F2EFEE9CF2EFFEEDF2EF02DCE
:1058F000D0926400C0926300EE24E39406EC10E0C2
:1059000020E530E048E250E068E270E080E090E0BE
:105910000E945510D0927900C0927800109218021F
:10592000109217020E941E2F81E08093AE010CC0DE
:105930008091AE01882321F083E08093190202C098
:10594000109219021092AE0128960FB6F894DEBF9D
:105950000FBECDBFDF91CF911F910F91FF90EF90C0
:10596000DF90CF90BF90AF909F908F907F906F907F
:105970005F904F903F902F9008952F923F924F92BB
:105980005F926F927F928F929F92AF92BF92CF92CF
:10599000DF92EF92FF920F931F93CF93DF93CDB7D8
:1059A000DEB766970FB6F894DEBF0FBECDBF10927C
:1059B00033020F2EFEE9CF2EFFEEDF2EF02DD09218
:1059C0007900C0927800EE24E39400E010E02FE329
:1059D00031E04FEE50E069E270E080E090E00E943C
:1059E000D612D0927900C09278002FE331E04FEECA
:1059F00050E069E270E080E090E00E94D61283EF10
:105A00009DE1909379008093780020E530E04FEE9F
:105A100050E068E270E080E090E00E94D61280E101
:105A200095E1909379008093780020E530E048E29A
:105A300050E068E270E080E090E00E94D612D092E0
:105A40006400C092630006EC10E020E530E048E21C
:105A500050E068E270E080E090E00E94551002EEB5
:105A600010E020E530E04FEE50E068E270E080E0CA
:105A700090E00E945510D0927900C09278006AE0C0
:105A800070E085E590E00E94E31F80E090E0A0E8F0
:105A9000BFEB80936A0290936B02A0936C02B09369
:105AA0006D0280936E0290936F02A0937002B09388
:105AB00071021092520210925302109254021092EC
:105AC00055021E8A1D8A88248394912C0F2EFEE491
:105AD000CF2EF2E0DF2EF02D0F2EF2E56F2EF2E04A
