S01300007572735F70726F6A656B742E7372656359
S11300000C94EF0D0C940C0E0C940C0E0C940C0E22
S11300100C940C0E0C940C0E0C940C0E0C940C0EF4
S11300200C940C0E0C940C0E0C940C0E0C940C0EE4
S11300300C940C0E0C9401170C9426170C940C0EB3
S11300400C940C0E0C940C0E0C940C0E0C940C0EC4
S11300500C940C0E072C7AA5BA6CC590DA3B936508
S1130060FC8BBC53F810FD3C5692834DBD879D3AE2
S1130070B63DCBC9BF5BBE73DA0FC93F05A84CCDF3
S1130080B2D44EB93836A9020C50B9918688083CCE
S1130090A6AAAA2ABE000000803F1B081021012046
S11300A0F90A02060A090E090306060708030703EC
S11300B0070A0A0A0A0A0A0A0A0A0A0303060706B8
S11300C0090F0A0A0A0A09080B0A02060A080F0C91
S11300D00C0A0C0A0B0A0A0C0E0B0C0A040804087E
S11300E00905090908090A070A0902030A020E098F
S11300F009090906090709090E0909080602060A79
S113010000000000000000000000000000000000EB
S113011000000000000000000000000000000000DB
S113012000000A09090A0A0D07090C0B0B0E0E0C34
S11301300C0A0D0F0F0A0A090C090D0C0C09090D04
S11301400D0C0A090909090C080B0E0A0C0D090A01
S113015009080907070A0A0A0A040503000000003F
S113016008050A0808090708080208090607000024
S1130170000B0B0D0A0C0C0C0D0C0E000000000003
S1130180000000000000000000000000000000006B
S1130190000000000000000000000000000000005B
S11301A00000000000C0FF0D0080FF1B00000800DD
S11301B000000E0000000400000060000000700059
S11301C00000200000000044000000881F0000F030
S11301D00700007C0200004C04000080E8010000DD
S11301E07F0000C02F0000C0450000008800000010
S11301F0380C0000F838000018C300003006010075
S1130200F0FF0F00C010040080610C00008E0F008E
S113021000180E000078000000F801000008040136
S11302200010080300C08F0100008F010000C0000F
S11302300000C0000000603C000060FC00003004CE
S113024002002008040000E007000080070000808E
S1130250070000BC1F0000FC43000018870000B02A
S11302601B0100C06302000080070000800F000033
S1130270001B0000080000000E0000000400000045
S1130280C07F0000E0FF0700F0001E007000E000E7
S1130290300080033000000C20000018800100189A
S11302A00006001C0078001F00C0FF0F0000FE03C2
S11302B000800D0000001A00000008000000FE018C
S11302C0000020000000A0000000600300000020E7
S11302D00000004000000080000000F01F0000E06B
S11302E03F000000040000000800000010000000AF
S11302F0004C0000005800000070000000010000E5
S113030000020000000400000008000000100000CB
S113031000200000004000000000300000007000D9
S11303200000C0000000C0010000C0000000600028
S113033000007000000030000000180000001C00E5
S11303400000E01F0000E07F00006080010060000A
S11303500600400008008000100000033000000C7C
S1130360300000F03F0000C01F000000000000004B
S11303700000000003000000030000000300000070
S1130380FE7F0000FCFF00000000000000000000F1
S11303900000000000060F00000F1F0000032300F0
S11303A0000247000004860000080E0100100C0241
S11303B000601C0400801F0800001E100000080CD0
S11303C000001C3800000CC00000080001001004EC
S11303D0020020080400401008008051180000BEEC
S11303E01900003C3E0000000C0000001E0000004C
S11303F02600000046000000870000000301000002
S113040003020000FE7F0000FCFF0000001000005B
S113041080C30000E087030040040C008004100047
S113042000092000001240000024800000C8C1011F
S11304300010FF010000FC000000FE010000FE0FA0
S113044000002210000022400000448000008800C8
S11304500100100102006006060080F9070000E2B6
S113046007000001000000020000000480000008F2
S1130470F0010010F80300203C0000401E00008042
S11304800E0000000700000006000000703C0000A1
S1130490F0FD0000300A01002008040040100800AC
S11304A080201000004120000046210000F87E005A
S11304B000E0780000C0C70000C09F0300C0600CCB
S11304C0008080100000012100000242000004C6E8
S11304D0000030C60000E0FF0000007F0000800143
S11304E00C0000071C000006300000086002003801
S11304F0C002002080030000080000002800000063
S1130500D8000000100100001004000030180000A2
S113051080080000001100000022000000440000D8
S113052000880000001001000020020000301800C4
S113053000401000000011000000360000002800F8
S11305400000200000000E0000001E000000060055
S113055000000400000008BC0100107C0300200C13
S1130560000080080000000F000000E0030000F01D
S11305700F00007030000020C00000203C0100404B
S1130580FC040040060900800C110000192300003F
S1130590E24F0000CCD10000902001006020000058
S11305A080730000003C000000001E000080070073
S11305B000E0070000F808000038100000F02000F8
S11305C000C04F000000FC000000C00F0000003C11
S11305D00000FE7F0000FCFF000008020100100480
S11305E0020020080400401008008020100000B71A
S11305F03000007C3F0000203C0000801F0000C051
S1130600FF0000C0810300C0000C00800010000047
S1130610012000000240000004800000108000005F
S1130620E0E00100E0FF0700C0FF0F0080001000C1
S1130630000120000002400000048000001080003F
S113064000E0C0010080FF010000FC000080FF1FEB
S11306500000FF3F00008240000004810000080207
S1130660010010040200200804004010080080006B
S1130670100000FF3F0000FE7F000004010000089E
S11306800200001004000020080000401000008058
S113069000000000F0030000F81F000038700000A4
S11306A01080000010000200200004004020080018
S11306B08041180000861800001C3F000020FE0046
S11306C000F8FF0100F0FF03000008000000100024
S11306D00000200000004000000080000000000135
S11306E00000F8FF0100F0FF0300E0FF0700C0FF77
S11306F00F00000010000000200000004000000077
S1130700C00000F8FF0000F0FF0000E0FF0700C099
S1130710FF0F0000C0010000C0000000C000000086
S1130720E0010000600E00006078000060C003007B
S113073040000E0080FF1F0000FF3F00000040004B
S1130740000080000000000100000002000000041E
S1130750000000080080FF1F0000FF3F00000E00A3
S1130760000078000000C0070000003C000000E02A
S1130770030000000E0000000F000080030000E0F2
S11307800100007000000018000000F0FF0300E00A
S1130790FF0700C0FF0F0080FF1F000003000000E0
S11307A01C0000006000000080030000001C00002A
S11307B0007000000080030000001C0000FF3F00E8
S11307C000FE7F0000C00F0000E07F0000E0C001D9
S11307D000400002004000080080001000000120DA
S11307E00000024000000840000070E00000C0FF6C
S11307F00000007E0000C0FF0F0080FF1F0000818A
S113080000000002010000040200000804000010BF
S113081008000060180000801F0000001E00000097
S1130820F0030000F81F0000387000001080000082
S11308301000020020000400400038008000D000B6
S113084000033001001C380200F03F0400801F0048
S113085000F0FF0300E0FF0700402000008040009C
S113086000008100000002010000040E000018FED8
S11308700000E087030080070400000F0300003F2E
S11308800C000063300000C2400000048300000834
S1130890060100100C0200601804008063040000CC
S11308A0C20F0000000F000002000000040000005E
S11308B00800000010000000E0FF0700C0FF0F0068
S11308C0800000000001000000020000000400009D
S11308D000F87F0000F0FF0100000006000000089F
S11308E0000000100000002000000040000000C0D4
S11308F00000F8FF0000F0FF000020000000C0032B
S11309000000003F000000F0030000001F00000092
S1130910F0000000C0010000F00000007C000000B6
S11309201F00008007000000010000007E0000009E
S1130930FC07000000FE000000C0030000C0070028
S113094000FE0000801F0000003F000000F00700D0
S113095000007E000000C0010000F00300E07F0002
S113096000C00F00008000100000033000000E38AB
S11309700000701C0000C00F0000000E0000007E8C
S1130980000000C7030080030E00000138000000CF
S11309904000000400000018000000F00000008087
S11309A0070000001E000000F01F0000C03F000010
S11309B0E0000000E00000007000000030000000D3
S11309C02000000040000C0080001C0000012E00EC
S11309D000024E0000048700008803010090030217
S11309E000E0010400C00108008000100000FFFFC7
S11309F00100FEFF030004000400080008003000AA
S1130A00000080010000000E0000003000000080A3
S1130A10010000000E000000300000008001001002
S1130A2000100020002000C0FF7F0080FFFF0000B6
S1130A3080010000C00100007000000038000000C8
S1130A4070000000000300000038000000C0000037
S1130A500000000100000002000000040000000883
S1130A600000001000000020000000400000008092
S1130A700000000001000300000006000000080060
S1130A8000002000000040000000000807000038BB
S1130A901F000018330000104200002084000040B2
S1130AA00801008011010000FE070000F80F00801B
S1130AB0FF1F0000FF1F0000202000002080000016
S1130AC040000100800002000007060000FC07004F
S1130AD000E0030000C0070000E03F0000E0E00089
S1130AE00040000100800002000001040000040432
S1130AF0000038060000C0070000E03F0000E0E00E
S1130B000000400001008000020000010400000415
S1130B10040080FF1F0000FF3F0000800F000080E2
S1130B207F000080C9000080110300002104000040
S1130B30420800008410000010310000E03300007F
S1130B40002700004000000080000000C0FF0700F4
S1130B50C0FF0F0080040000000900000002000034
S1130B60000000020000E70E0000FF1300006324F1
S1130B700000824800000491000018230100F8439B
S1130B8002009083070000000600F0FF0300E0FF6E
S1130B900700000800000008000000080000001022
S1130BA00000006000000080FF010000FE03002040
S1130BB0FF070040FE0F000000800000F9FF010065
S1130BC0F2FF0100FCFF0000F8FF0100003000000C
S1130BD0003000000030000000F0010000300F0081
S1130BE0003038000020C0000000000100F0FF03C6
S1130BF000E0FF070000FE0F0000FC1F00001000D3
S1130C0000001000000020000000C000000000FFF1
S1130C10030000FC070000040000000400000008BA
S1130C2000000030000000E0FF000000FF01008031
S1130C30FF030000FF0700000C0000000800000094
S1130C4018000000300000006000000080FF010078
S1130C5000FE030000F8000000FC0700001C180060
S1130C6000082000001040000020800000C0800127
S1130C700000FF010000F8000000FE7F0000FCFF00
S1130C800000101800001040000020800000400008
S1130C9001008081030000FE030000F0010000E079
S1130CA0030000F01F00007070000020800000406E
S1130CB0000100800002000002030000FC7F00002D
S1130CC0FCFF0000F83F0000F07F0000C0000000BF
S1130CD0C0000000800000000001000000100200BD
S1130CE000780C00009831000010430000208400BC
S1130CF000C01801008031020000E60300009003E8
S1130D0000000400000008000000FE3F0000FCFF9B
S1130D10000040000100800002000000040000FE0A
S1130D20030000FC0F000000300000004000000041
S1130D30800000000001000080010000FF070000A7
S1130D40FE0F00000400000078000000C00700004F
S1130D50007C000000C0010000C0030000F8000097
S1130D60003E0000000C00000018000000F001002C
S1130D7000001F000000F0010000C0030000F800A4
S1130D8000003E0000007C000000C0070000007C62
S1130D90000000F00000007C0000800F0000000351
S1130DA0000000020800000C180000381C0000C0FD
S1130DB00F0000000E0000003F000000C30100000F
S1130DC00106000000080000048000007800010013
S1130DD0C0070200007C030000C0030000E0000024
S1130DE000780000001E000000040000000830002D
S1130DF0001070000020B8000040380100801C0280
S1130E0000001F0400000E08000004100000000190
S1130E10000000070000F8FB0300F8E30F001000D7
S1130E20100020002000C0FF0F0080FF1F00000101
S1130E3000010002000200FCF10700F0F7070000C7
S1130E403800000020000000C0000000C0000000C6
S1130E50C00000008001000000060000000800003F
S1130E60003000000040000000C0000000C000008E
S1130E7000DC3F0000F87F0000C800000090000084
S1130E80002000000040000000800000000003007B
S1130E900000FC3F0000F87F000070000000A0018B
S1130EA0000060F20300C0F4070080360800003E32
S1130EB010000000200000FC7F0000F8FF0000E0AC
S1130EC001000060020000C0E4070080EF0F000092
S1130ED0621000007E20000000400000F8FF0000C7
S1130EE0F0FF0100C0FF030080FF070080E1030062
S1130EF000F1000000F20100004402000088030039
S1130F000030000000C0FF030080FF070000FE0F58
S1130F100000FE1F0000060F00008C030000B00755
S1130F20000060090000601C0000C000000000FF19
S1130F300F0000FC1F00001800000078000000985B
S1130F4078000030F90100E011020080F907008008
S1130F50F90700009F00000000030000000C0000DF
S1130F6000300000F0FF0100E0FF0300001C00005F
S1130F7000E00000000E07000016300000244000CE
S1130F8000F8FF0000E0FF0000C00000008038000F
S1130F90008058000000B1000000C20F000004608F
S1130FA0000018800000F0FF0100C0FF01000030C5
S1130FB00000009300000022010000C23F00000472
S1130FC07F0000086000001060000020E00100C005
S1130FD0C0040000FF090000FE1E0000001800000D
S1130FE030000000D000000030F9010060FA030076
S1130FF0C01B0400001B0800000C100000082000A7
S113100000F87F0000DCFF000018000000C00300AF
S113101000C004000080C90F0000DF1F0000CC20C6
S11310200000CC400000F080000040000100C0FF40
S11310300300E0FE0700C000000000EE0F0000FE09
S11310403F0000644800004890000010C0000020E9
S1131050000000C080030000FF090000FE13000030
S1131060003E00000008000000200000F0FF010026
S1131070E0FF030080FB030080FF0F000019120053
S113108000122400000430000008000000300018A2
S113109000C0FF790080FFD7000000E801000010C5
S11310A0020000200400FC7F0F00F87F0E0000C047
S11310B00000004002000080E40000F76F0300FF1E
S11310C0CF06003280050024000700080006001047
S11310D00018002000600080FFFF0100FFFF0100F6
S11310E0000C00000024070000480E0070FF3400CC
S11310F0F0FF280020037C004002380080008001BB
S11311000001C0000006000300F8FF0F00F0FF1FFD
S1131110000000F000800120018033C00180B5E0B0
S1131120030029010F00D2030C002C781700D08093
S11311304A00A0FFF50060FEF1008007000080096E
S1131140000000130000003A000000987F0000989F
S1131150FF0000F0790000C01C0000000600000041
S11311600300000003000000FE3F0000F87F0000C1
S1131170E0FF0000E0FF010060000300C018010070
S1131180005B010000B6010000C61D00000C7C00DD
S113119000F09F0000C03F010000E001000080005B
S11311A0000000020000FF1F0000FE3F0000B83FE7
S11311B00000F8FF000090210100204102004000DF
S11311C00300800000000003000000FC3F0000F862
S11311D07F00000020000000E0000000600300C069
S11311E0FF0400807F0D0000000E0000FC3F0000A3
S11311F0F87F000018C0000010470000207B0000AA
S113120040760000803800000003000000FC3F002E
S113121000F87F0000E0FF0000E0FF010060000331
S113122000C0180100005B010000B6010000C60107
S113123000000C000000F0FF0000C0FF0100C0FD32
S11312400100C0FF0700800C090000091E00000215
S11312501000000400000018000000E0FF0100C0BE
S1131260FF03008003000080050000000900000067
S1131270FE3F0000F87F0000001E00000003000095
S113128080010000800000008001000000FF1F00BA
S113129000FC3F0000383F000050FE0000B0000199
S11312A000200102004002040080050800001A101A
S11312B00000E43F0000CC3F000070000000B000DC
S11312C0000020010000C0FF070000FF0F00000025
S11312D00E0000000600000006000000040000F0FC
S11312E0FF0000E0FF03000060060000800700002C
S11312F00E0000001600000024000000F87F00002B
S1131300E0FF0100000002000000040000000800EB
S1131310000010000000200000FC7F0000F87F00A7
S113132000E0000000600100004002000080FF07B0
S11313300000FE1F000000200000004000000080AC
S113134000000000010000000200FFFF0700FEFF94
S1131350070000FE1F0000FE3F000024700000781C
S11313603800000018000000E000000000070080C2
S1131370FF0F0000FF1F0000FC3F0000FC7F000087
S113138048E00000F07000000030000000C00100E0
S113139000000E00FCFF1F00F8FF3F0000380000B3
S11313A0005800000090000000E0FF030080FF07E9
S11313B00000C0070000F80000003E0000007C00B0
S11313C00000800F000000F00000E0FF0300C0FFF9
S11313D0070000070000000B00000012000000FCE2
S11313E07F0000F0FF000000F80000001F0000C0B4
S11313F0030000800F000000F0010000001E00F058
S1131400FF7F00E0FFFF000000C00000004002007A
S11314100080040000F70F0000FF0F0000320000FE
S1131420002400000008000000100000006000001C
S11314300080FF070000FF0F00000E0F00001E3F9A
S1131440000024420000F8FF0000E0FF000000302C
S1131450000000C000000000030000FF1F0000FEA9
S11314603F0000783C000078FD00001005010020DA
S11314700A020080130400000008000000100000AD
S1131480FE3F0000FC3F000060000000E0000000A0
S1131490600100004002000080040600001B1200EE
S11314A00026240000C87F0000187F0000E0FE0032
S11314B000E0FF03004086040080040F00000108E0
S11314C00000020000000C000000F0FF1F00E0FF1D
S11314D03F00C0FC0100C0FD07008018090000198E
S11314E01E000022100000C4000000180E0000E0DE
S11314F0FF0100C0FF03000000030000000900001A
S113150000120000DC3F0000FC3F0000C8000000A7
S11315109000000020000000400000008001000056
S113152000FEFF0300FCFF07001800000018000085
S113153000100000002080010040800400800009A9
S11315400000FF1F0000FC1F0000F87F0000F0FFF8
S11315500000307C0000201E0000403E0000804857
S11315600000007100000006000000FC7F0000FE87
S1131570FF00000C000000C0010000C00200008059
S113158004000000FF0F0000FC3F000000400000CA
S113159000870000001A0100003C02000040040023
S11315A080FF0F0000FF0F00000003000080030015
S11315B000307F000070FF010020460200408607D3
S11315C00080080400003100000086030000FC7F56
S11315D00000FEFF00000C000000C0010000C0027B
S11315E000008004000000FF1F0000FC3F0000001A
S11315F00700000003000060030000200300004017
S113160006000080FF0F0000E61F00001C00000021
S11316102C00000048000000F0FF0100C0FF0300A0
S11316200080030000C0010080E300000005070003
S1131630000A380000FCFF0000F8FF01003C000035
S11316400080F9030080FB0F00009110000062216C
S11316500000044100000880000030000100C0FFC9
S1131660030080FF030000F3070000B51F00002AF9
S1131670220000944700002880000050000100E090
S1131680000200C0FF0700C0FF0700800000000048
S11316900C0000003C000000C8000000F001000045
S11316A0C00200000002040000060C0000FF1F003E
S11316B000FC1F000030180000904800002091003A
S11316C00080C3010000040200000C0400001E0F8F
S11316D000000C0E00600000002001000040020029
S11316E000000700000008000000180000001800B7
S11316F0000018000000100000000030000000305E
S113170000000020000000400000008000000000F5
S1131710FF1F0000FC3F000018000000180000003C
S113172010000000200000004000000000FF0F0037
S113173000FE1F003000000050000000A000000068
S1131740200100004002000080040000000A0000A4
S113175000140000003000000060000000C0000021
S11317600040010000400200008004000000090065
S11317700000120000002800000060000000F000DB
S11317800000E00100000003000000050000000963
S1131790000000120000002400000050000000E0DF
S11317A000000020010000400200000003000000CF
S11317B00C00000014000000240000004800000099
S11317C090000000400100000003000080070000BA
S11317D000080000001E000000000080030000005C
S11317E0050000003E0000007C00000038000000FE
S11317F050000000E003000000040000800F00001F
S113180000070000000A0000001C00E0FF0300C005
S1131810FF070080200800C0FF7F0080FFFF00005A
S11318200441000018C50000E0FB0000E0FF0100D7
S1131830C0FF0700000009000000120000001800AB
S113184000FC3F0000F8FF00000020010000C0037E
S1131850000000000080FF070000FF1F00000024BC
S1131860000000480000006000300000007000002C
S113187000A000000060FFFF07C0FCFF1F80010004
S113188024000600480008006000F0000000500238
S113189000002003000040F0FF0780FBFF1F001E34
S11318A0002400000048000000600078000000C030
S11318B001000080030000C003000080F8FF0F0057
S11318C0FFFF3F001E004800000090000000C00021
S11318D000C0000000400000008000000000010083
S11318E0000002000000F8FF0F00F0FF1F00E001FD
S11318F0000060020000C007000080010000000E2C
S113190080000006800100FCFF0100F0FF01E00000
S11319100000200100002001000040040000800CB1
S1131920000000150000001B000000020000000F72
S11319300000001E0000002C00000068000000B041
S1131940000000000100000002000000060000008A
S1131950070000000600000030000000B000000096
S1131960A00100008001000080000000000B0000C6
S1131970000C00000010000000180000001000001F
S11319800020000000F0010000E00300000001005E
S11319900000020000003800000050000000E000D9
S11319A00000400000000001000080010000000170
S11319B000000000003C000000FE0100000C0300D9
S11319C0000C0C0000081000001020000020400053
S11319D00040800000808101000086010000F801C1
S11319E00000E0030000E00C000040200000405C28
S11319F0000080A8000000D1010000E20100008482
S1131A0009000010180000E01F0000001F00000281
S1131A100000000C000000F8FF0000E0FF030000DD
S1131A2000040000F0090000F01700002029000065
S1131A30405E0000809100000001010000FE0300F0
S1131A4000FC030000F0070000301C00002024000C
S1131A50004048000080770000000E0000000200F3
S1131A60000004000000F80F0000E01F0000800FD9
S1131A700000803F000080C10000000101000072EE
S1131A80020000B405000068070000900B0000206D
S1131A90100000606000007480000070000000000E
S1131AA0F8000000F8030000180C000010100000FB
S1131AB02C27000068590000D8720000E0B900002B
S1131AC000020100000606004006080000070000AE
S1131AD00007000000FC010000C07B000000920031
S1131AE00000A2030000C405000008080000101054
S1131AF000002030000080200000007F0000007CF7
S1131B00000000FC0100000C0700000809000010A0
S1131B10120000E01D0000800100008000000000B1
S1131B2081010000FE030000F8030000FF0700002D
S1131B30FF03000003000000001F0000007F0000FE
S1131B400083010000C203000084000000080300B9
S1131B5000900F00002035000040520000C0FC003F
S1131B6000C8F00000E000000000F0010000F807E9
S1131B70000070180000602C00004054000080C970
S1131B80000000F30000009C00000078000000B892
S1131B90030000300C0000C030000080410000F859
S1131BA001004E414E494E495459494E46CDCCCC84
S1131BB03D0AD7233C17B7D13877CC2B329595E61D
S1131BC0241FB14F0A000020410000C84200401CFD
S1131BD04620BCBE4CCA1B0E5AAEC59D74001124CF
S1131BE01FBECFE5D8E0DEBFCDBF11E0A0E6B0E078
S1131BF0E6E6FEE702C005900D92AA3EB107D9F7CA
S1131C0022E0AAEEB1E001C01D92AA3CB207E1F7BE
S1131C100E944B310C94313F0C94000090930802C5
S1131C2080930702FC013296E491E0930502FC01E3
S1131C30339684918093060208952F923F924F9297
S1131C405F926F927F928F929F92AF92BF92CF9248
S1131C50DF92EF92FF920F931F93CF93DF93CDB751
S1131C60DEB72A970FB6F894DEBF0FBECDBF209122
S1131C70070230910802F901A591B491F901359652
S1131C80949131961491682F70E0492F50E0FB0134
S1131C903796E41BF50BE20FF31F04910C831982B2
S1131CA0E0917800F0917900F887EF838A30A1F40D
S1131CB0F090610000910602E091EA01F091EB01DD
S1131CC0F09EE00DF11D1124F093EB01E093EA0185
S1131CD01092ED011092EC01891708F464C11817F1
S1131CE008F463C1AB2B09F462C10C81002309F42D
S1131CF060C19091EF01992321F0009105020C83BA
S1131D0019C09CE2980F973030F099E1980F963003
S1131D1010F0813D79F490916200E091EC01F09132
S1131D20ED010C81099FE019F1091124F093ED01F3
S1131D30E093EC0180538A3030F4F901E41BF50B95
S1131D40F79604910C8380916200FC81EF2FF0E000
S1131D50FA87E987E091EC01F091ED010C81809F15
S1131D60E00DF11D1124E03FF105A0F09091610018
S1131D7080910602E091EA01F091EB01989FE00D59
S1131D80F11D1124F093EB01E093EA011092ED01AF
S1131D901092EC01641B750B1616170694F4A0E060
S1131DA080E090E0EA2FF0E03796E20FF31FE49131
S1131DB08E0F911DAF5FEA2FF0E0E617F70794F35B
S1131DC002C080E090E060910602689F9001699FE4
S1131DD0300D1124812F90E0841B950B0796880FFA
S1131DE0991F880F991F880F991F820F931F9C01B9
S1131DF0369527953695279536952795482F47701C
S1131E00442E0C81002309F4ABC01B821A82812C5E
S1131E10912CC90101969E838D83212C522C9AC04A
S1131E2097E0941520F4AFEF8A1A9A0A422CE091B5
S1131E300702F09108028D819E81880D991DE80F9B
S1131E40F91FE491E98320916200EA81FB812E9FCE
S1131E5050012F9FB00C11248091EC019091ED0161
S1131E60A80EB91E80916100C090EA01D090EB01E8
S1131E70389EC00CD11C1124222309F45BC001E05C
S1131E8010E0042C02C0000F111F0A94E2F7622C28
S1131E9048C0898190E080239123892BD1F08091DF
S1131EA0630090916400909379008093780080910E
S1131EB0F201882339F0B701C601870D911D0E94F4
S1131EC0411924C0B601670D711DC7010E94411953
S1131ED01DC08091EE018823C9F08091F00190919A
S1131EE0F10190937900809378008091F201882326
S1131EF039F0B701C601870D911D0E94411906C032
S1131F00B601670D711DC7010E9441197394809138
S1131F106100781608F4BDCF63948091620068165E
S1131F2048F4809161008823B9F3752C7501E60C9F
S1131F30F11CAFCF4394339480910602381608F411
S1131F406FCF2A813B812F5F3F4F3B832A830C81D4
S1131F50201730F480910602882399F3312C60CF46
S1131F602F81388530937900209378005091620056
S1131F7040916000E985FA855E9FC0015F9F900DE6
S1131F801124840F911D2091EC013091ED01820FF9
S1131F90931F9093ED018093EC01842F0C81059F96
S1131FA0800D112407C080E005C080E003C080E0FC
S1131FB001C080E02A960FB6F894DEBF0FBECDBFF5
S1131FC0DF91CF911F910F91FF90EF90DF90CF9011
S1131FD0BF90AF909F908F907F906F905F904F9045
S1131FE03F902F900895AF92BF92CF92DF92EF92DD
S1131FF0FF920F931F93CF93DF93009107021091E9
S11320000802F8013596C4903196B490DC01EC9145
S1132010EE23A9F1D090EF01A09005026091620037
S113202070E0A69EE001A79ED00D112420916000CF
S113203030E0119680E090E0EC2CF12CDD2019F0DA
S11320408C0F9D1F16C0EC1550F0BE1650F0F0E03A
S11320503796EE19FF09E00FF11FE49103C0EA2D52
S113206001C0EA2DE69FA001E79F500D1124840FC3
S1132070951F820F931FED91E111E0CF02C080E024
S113208090E0DF91CF911F910F91FF90EF90DF903F
S1132090CF90BF90AF9008950F931F93CF93DF938A
S11320A0EC018881882369F010E000E00E941D0E95
S11320B0080F1F5FFE01E10FF11D80818111F6CF32
S11320C001C000E0802F90E0DF91CF911F910F912C
S11320D008958F929F92AF92BF92CF92DF92EF9228
S11320E00F931F93CF93DF93EC016B014A015901C6
S11320F0C8010E94F30FAC18BD0820910602A21A71
S1132100B108B694A794CA0CDB1C21E0E21621F0B6
S113211022E0E21651F00FC08C1A9D0A881A990A1F
S113212096948794C80DD91D06C08815990518F48E
S1132130E401C81BD90BD093ED01C093EC01D092FC
S1132140EB01C092EA01C8010E944C10DF91CF91CB
S11321501F910F91EF90DF90CF90BF90AF909F9021
S11321608F9008952F923F924F925F926F927F9239
S11321708F929F92AF92BF92CF92DF92EF92FF9293
S11321800F931F93CF93DF93CDB7DEB72A970FB684
S1132190F894DEBF0FBECDBF7C016B014A0159012B
S11321A04817590748F48D2D6901A62EB82E9E2D87
S11321B08F2D7A01892E982EE814F90419F0CA1487
S11321C0DB04A9F400917800109179009501A40131
S11321D0B601C7010E944A19009178001091790054
S11321E09601A701B501C4010E944A19DDC0C401CA
S11321F08E199F093C0122F466247724681A790A0F
S1132200C5018C199D092C0122F444245524481A33
S1132210590A86018E149F0420F022242394312C21
S113222003C022242A94322CAC14BD0428F021E0EB
S113223030E03E832D8304C04FEF5FEF5E834D8318
S1132240641475040CF459C04201AA2497FCA094A8
S1132250BA2C880C991CAA1CBB1CC301AA2797FD85
S1132260A095BA2F881A990AAA0ABB0A77200CF4F7
S11322709BC0C201880F991F9C01442737FD4095DC
S1132280542F2F83388749875A8746185708440C98
S1132290551CC201AA2797FDA095BA2F89839A835A
S11322A0AB83BC836101E20CF31C412C512CB801BB
S11322B0C7018C199D090E944119BB204CF42F8140
S11322C0388549855A85820E931EA41EB51E0CC0FE
S11322D089819A81AB81BC81880E991EAA1EBB1E7E
S11322E0AD81BE810A0F1B1FBFEF4B1A5B0AEC0CBA
S11322F0FD1C64147504DCF657C04301AA2497FC42
S1132300A094BA2C880C991CAA1CBB1CC201AA2735
S113231097FDA095BA2F881A990AAA0ABB0A5520D4
S11323200CF442C0C301880F991F9C01442737FD58
S11323304095542F2F83388749875A876418750826
S1132340660C771CC301AA2797FDA095BA2F898331
S11323509A83AB83BC83CD80DE800C0D1D1D612C64
S1132360712CB8016C197D09C7010E944119BB2069
S11323704CF42F81388549855A85820E931EA41EFC
S1132380B51E0AC089819A81AB81BC81880E991ED1
S1132390AA1EBB1EE20CF31C9FEF691A790A0C0DEE
S11323A01D1D46145704ECF62A960FB6F894DEBFAA
S11323B00FBECDBFDF91CF911F910F91FF90EF9092
S11323C0DF90CF90BF90AF909F908F907F906F9051
S11323D05F904F903F902F900895AF92BF92CF920D
S11323E0DF92EF92FF920F931F93CF93DF935C01E1
S11323F07B01EA01690100917800109179009B0149
S11324000E944A1900917800109179009601AE015A
S1132410B601C5010E944A19009178001091790013
S11324209601A501B701C5010E944A1900917800DF
S1132430109179009601AE01B701CE010E944A19AC
S1132440DF91CF911F910F91FF90EF90DF90CF908C
S1132450BF90AF9008952F923F924F925F926F92E8
S11324607F928F929F92AF92BF92CF92DF92EF9220
S1132470FF920F931F93CF93DF93CDB7DEB72D97C2
S11324800FB6F894DEBF0FBECDBF3C012B8781E0B1
S113249090E06C01C41AD50A1B015B01430123E0DF
S11324A030E03C832B8344244394512C5D874C8738
S11324B07E826D8278876F83A201415051095A87C9
S11324C049875B85552309F43FC00091780010913A
S11324D079006F8178858C859D85680F791F9B01B4
S11324E0A401C3010E944A19009178001091790057
S11324F06F817885EC85FD856E1B7F0B9B01A401A4
S1132500C3010E944A190091780010917900950145
S11325104D815E818C859D85480F591F5A8349835F
S1132520B501ED80FE80E81AF90AC7010E944A1934
S11325300091780010917900910149815A81B1018B
S1132540C7010E944A1938C00F811885EC85FD85A2
S11325500E0F1F1FB801C4010E944119B501ED807F
S1132560FE802C853D85E20EF31EC7010E944119B1
S1132570B801C3010E944119B5010D811E814C852A
S11325805D85041B150BC8010E944119B101C701E7
S11325900E944119EF80F8848C859D85E81AF90A18
S11325A0B701C4010E944119B701C3010E94411936
S11325B0B101C8010E944119DD2034F4C201EB814C
S11325C0FC81CE0EDF1E11C0C20129853A854C85DF
S11325D05D85241B350B220F331F2B5F3F4FC20E2B
S11325E0D31E415051095D874C875FEF451A550A48
S11325F0EB81FC813296FC83EB83F1E06F1A710866
S11326002FEF821A920A3FEFA31AB30A41E0241A69
S11326103108EC85FD85E817F9070CF04DCF2D96B0
S11326200FB6F894DEBF0FBECDBFDF91CF911F91DF
S11326300F91FF90EF90DF90CF90BF90AF909F905D
S11326408F907F906F905F904F903F902F90089560
S11326502F923F924F925F926F927F928F929F92AE
S1132660AF92BF92CF92DF92EF92FF920F931F939C
S1132670CF93DF93CDB7DEB72C970FB6F894DEBFB8
S11326800FBECDBF98878F832B013A0119011C8798
S11326900B87EE2009F4C1C0480181E090E07C0181
S11326A0E01AF10A00917800109179002150310963
S11326B0280D391D6F5F7F4F681979098F819885BF
S11326C00E944A1903E010E0CC24C394D12CA12C1D
S11326D0B12C5C824B8226017A82698237013A8668
S11326E0298618012DC08F81988588199909009130
S11326F0780010917900C984DA84CA0CDB1C960135
S1132700AC01EB80FC80EA18FB08B7010E944A196F
S113271089819A81880D991D009178001091790022
S11327209601AC01B7010E944A198D809E802FEF5B
S1132730A21AB20A3FEF431A530A42E0240E311C94
S11327406501A814B90431F1009178001091790061
S1132750E984FA84E80CF91C97014F8158858B8130
S11327609C81881999099E838D83BC01CA018A19A9
S11327709B090E944A1900917800109179009701F1
S113278049815A814A0D5B1D6D817E8189819A81BF
S11327900E944A19772064F4620C731C8414950413
S11327A034F64B805C8069807A8029843A8435C011
S11327B0F4013197FE83ED83C60188199909880FC6
S11327C0991F0596680E791EE415F5050CF08BCF5C
S11327D04B805C8069807A8029843A845601A20CFB
S11327E0B31C7201EC18FD088F819885881999092A
S11327F000917800109179009501AC01B7010E9415
S11328004A19C401860D971D009178001091790032
S11328109501AC01B7010E944A198B849C8481E024
S113282090E05C01A818B9080F2EF3E0CF2ED12C4C
S1132830F02DEE24E394F12C00E010E09A828982DA
S11328405A86498626017E826D82350130C0009702
S113285031F129813A818217930709F1C984DA8415
S1132860CE18DF08B601AF80B884A21AB30AC50136
S11328700E9441194701820C931CB401C5010E94B6
S11328804119B601CD80DE8049815A81C40ED51E1E
S1132890C6010E944119B401C6010E9441190F5F8B
S11328A01F4F5FEFE51AF50A82E0480E511CC984F8
S11328B0DA84E981FA81CE1ADF0AB6018F8098841E
S11328C0801A910AC4010E944119B601CD80DE80AC
S11328D0C00ED11EC6010E944119A980BA80A20C63
S11328E0B31CB501C4010E944119B501C6010E947F
S11328F04119772024F4C701640C751C10C0C7016A
S1132900980149815A81241B350B220F331F2B5FF9
S11329103F4F620E731E415051095A834983E98126
S1132920FA81E817F9070CF092CF49845A846D8034
S11329307E80B2012B853C85621B730B009178006D
S1132940109179009B01A3018F8198850E944A19F7
S11329506B857C85620D731D009178001091790060
S11329609B01A3018F8198850E944A198F819885C4
S11329704B855C85841B950B009178001091790040
S11329809101AC01B2010E944A198B859C85860D88
S1132990971D00917800109179009101AC01B2016A
S11329A00E944A192C960FB6F894DEBF0FBECDBF15
S11329B0DF91CF911F910F91FF90EF90DF90CF9017
S11329C0BF90AF909F908F907F906F905F904F904B
S11329D03F902F90089581E0089581115EC0109278
S11329E013021092120210920A021092090210921B
S11329F00D0210920C0210920F0210920E0281E04E
S1132A00809311021092100280930B0210924402E0
S1132A10E0917000F091710081E090E0AC010090D1
S1132A20660002C0440F551F0A94E2F79C0100900F
S1132A30650002C0220F331F0A94E2F7242B20837F
S1132A40E0917400F09175007083E0917600F0914C
S1132A5077006083EEE6F0E0A081B1819C010090F4
S1132A60670002C0220F331F0A94E2F72C930190EF
S1132A70F081E02D40819C010090680002C0220F8B
S1132A80331F0A94E2F70090690002C0880F991F6F
S1132A900A94E2F7822B842B8083089581110EC05F
S1132AA040911202509113022091090230910A02BE
S1132AB081E04217530719F480E0089580E00895F7
S1132AC081116CC0809144028150809344028091B2
S1132AD00B02811133C080914402863078F58091D5
S1132AE010028111FCCF81E18093100281E0809378
S1132AF00B0280911102882309F110921102E091D6
S1132B006E00F0916F00408181E090E09C010090A4
S1132B106A0002C0220F331F0A94E2F7242B208399
S1132B20E0917200F0917300208100906B0002C06C
S1132B30880F991F0A94E2F7822B80832091120256
S1132B40309113028091090290910A0228173907E3
S1132B5039F1E0911202F0911302EC5EFD4F808195
S1132B60E0911202F0911302EC5EFD4F108220916D
S1132B701202309113022F31310558F420911202C0
S1132B80309113022F5F3F4F3093130220931202B0
S1132B9008951092130210921202089580E008958D
S1132BA080E00895CF93DF9390E09C01220F331FC0
S1132BB0F901E75FFD4F40815181280F391FD90189
S1132BC0AA0FBB1FAA0FBB1FA459BF4F0D90BC91E6
S1132BD0A02D2C91DC01AA0FBB1FA295B295B07F4A
S1132BE0BA27A07FBA27A40FB51FAC5EBD4F2C93A4
S1132BF0208131812F31310560F4FC01EE0FFF1F7C
S1132C00E75FFD4F208131812F5F3F4F3183208368
S1132C1007C0FC01EE0FFF1FE75FFD4F118210821A
S1132C20FC01EC5BFD4F20812F5F2083FC01E55FFD
S1132C30FD4F2081213009F04DC0FC01EC5BFD4FBC
S1132C4020812B3108F446C023E1FC01E05FFD4FF5
S1132C502083FC01E55FFD4F1082FC01EF5EFD4F18
S1132C6020812223B9F1FC01EF5EFD4F1082FC01AB
S1132C70EE0FFF1FE80FF91FEE0FFF1FEE0FFF1FF0
S1132C80E459FF4FC281D3814881DC01AA0FBB1FE5
S1132C90AA0FBB1FAA0FBB1FA81BB90BAB59BF4F71
S1132CA081E090E09C0115960C90159702C0220FCC
S1132CB0331F0A94E2F7242B28830680F781E02D42
S1132CC0208116960C9002C0880F991F0A94E2F78F
S1132CD0822B8083DF91CF910895CF93DF9390E08F
S1132CE0FC01E05FFD4F20812223A1F0FC01EE0FE7
S1132CF0FF1FE80FF91FEE0FFF1FEE0FFF1FE45930
S1132D00FF4FA081B181FC01E05FFD4F80818C9376
S1132D10108274C09C01220F331FF901E45FFD4F40
S1132D2040815181F901E25FFD4F208131814217D9
S1132D305307C1F1FC01EE0FFF1FDF01A80FB91FFC
S1132D40AA0FBB1FAA0FBB1FA459BF4F0D90BC9164
S1132D50A02DE45FFD4F20813181EC01C295D29515
S1132D60D07FDC27C07FDC27C20FD31FCC5CDD4FB4
S1132D7028812C93208131812F30310558F4FC01B6
S1132D80EE0FFF1FE45FFD4F8081918101969183D7
S1132D90808334C0FC01EE0FFF1FE45FFD4F1182FE
S1132DA010822CC0FC01EF5EFD4F21E02083FC016A
S1132DB0EE0FFF1FE80FF91FEE0FFF1FEE0FFF1FAF
S1132DC0E459FF4F0280F381E02D4081DC01AA0F1A
S1132DD0BB1FAA0FBB1FAA0FBB1FA81BB90BAB5964
S1132DE0BF4F21E030E0C90115960C9002C0880F56
S1132DF0991F0A94E2F7809584238083DF91CF9111
S1132E0008951F920F920FB60F9211242F933F93A0
S1132E104F935F936F937F938F939F93AF93BF93DE
S1132E20EF93FF9380E00E94D215FF91EF91BF9141
S1132E30AF919F918F917F916F915F914F913F914E
S1132E402F910F900FBE0F901F9018951F920F9205
S1132E500FB60F9211242F933F934F935F936F9369
S1132E607F938F939F93AF93BF93EF93FF9380E0F0
S1132E700E946D16FF91EF91BF91AF919F918F9139
S1132E807F916F915F914F913F912F910F900FBE62
S1132E900F901F9018950F930061202B422B642BE9
S1132EA0862B8DB9BD9ABF9A6E9A0F9108956E982C
S1132EB0089521E02093F301909348028093470200
S1132EC0109246021092450210924A021092490250
S1132ED01816190659F1E0914902F0914A02E60FD9
S1132EE0F71F80818FB98091490290914A0201961F
S1132EF090934A0280934902779BFECF8FB1E09171
S1132F004502F0914602E60FF71F80838091450247
S1132F109091460201969093460280934502209137
S1132F2047023091480228173907A9F61092F30195
S1132F30089556E646E006C00000215031092115E7
S1132F403105D1F7019718F0252F342FF5CF0895C7
S1132F50939892988BBB15BA9598959A939A0895DD
S1132F609398929A8BBB95BB9598959A939A08954A
S1132F70CF93DF93EB010E94A817CE010E94B017F4
S1132F80DF91CF910895939892988BBB15BA959839
S1132F90959A1ABA14BA9498000083B390E0982FC3
S1132FA0882739B3949A939A2FEF2ABB24BB832B97
S1132FB008958FEF85BB8BBB8ABB84BB939A929A8F
S1132FC0959A949A97988B9A8A9A8D9A8C9A8F9AB2
S1132FD084E190E00E949917979A84E190E00E941E
S1132FE0991708950E94D91780E00E94C3172FEF04
S1132FF02ABB24BB8BBB95BB80E00E94A81781E051
S113300090E00E94B0178FE090E00E94991783E04F
S11330100E94A8178CEA9AEA0E94B0178CE00E94DA
S1133020A81782E090E00E94B0178DE00E94A817D4
S11330308AE090E00E94B0178EE00E94A81780E01A
S11330409CE20E94B0178EE10E94A81788EB90E0E2
S11330500E94B0178FE090E00E94991781E00E94CF
S1133060A8178FE39BE20E94B01782E00E94A81782
S113307080E096E00E94B01780E10E94A81780E0EB
S113308090E00E94B01781E10E94A81780E390E6C7
S11330900E94B01784E190E00E94991785E00E9495
S11330A0A81780E090E00E94B01786E00E94A8175D
S11330B080E090E00E94B01786E10E94A8178CE19E
S11330C09FEE0E94B01787E10E94A81783E090E06A
S11330D00E94B01787E00E94A81783E392E00E9441
S11330E0B0178BE00E94A81782E193E50E94B01705
S11330F08FE00E94A81780E090E00E94B01784E15E
S113310090E00E94991781E40E94A81780E090E063
S11331100E94B01782E40E94A81780E090E00E9409
S1133120B01788E40E94A81780E090E00E94B017CE
S113313089E40E94A8178FE391E00E94B01784E409
S11331400E94A81780E09FEE0E94B01785E40E94B9
S1133150A81780E090E00E94B01786E40E94A817A8
S11331608FE391E00E94B01784E190E00E949917E8
S113317080E30E94A81787E097E00E94B01781E3DC
S11331800E94A81784E097E00E94B01782E30E948F
S1133190A81784E092E00E94B01783E30E94A81766
S11331A081E092E00E94B01784E30E94A81783E0B4
S11331B092E00E94B01785E30E94A81784E092E091
S11331C00E94B01786E30E94A81784E092E00E9450
S11331D0B01787E30E94A81782E095E00E94B01719
S11331E08AE30E94A81782E093E00E94B0178BE361
S11331F00E94A81780E095E00E94B01784E190E057
S11332000E9499170895CF93DF93EB01BC018EE4DC
S11332100E94B817BE018FE40E94B81782E20E9490
S1133220A817DF91CF910895DF92EF92FF920F9349
S11332301F93CF93DF93EC018B01D42E790184E4A7
S11332400E94A81780E090E09D2D8C2B9D2B0E945E
S1133250B01785E40E94A817C8010E94B01786E43D
S11332600E94A817C7010E94B017B801CE010E949E
S11332700319DF91CF911F910F91FF90EF90DF9091
S113328008950E94031980917800909179000E941A
S1133290B01708956F927F928F929F92AF92BF92D0
S11332A0CF92DF92EF92FF920F931F93CF93DF930E
S11332B05C016B017A0149010E9414198C149D046C
S11332C0B0F06A2C7B2C0DC0C8010E94B017219667
S11332D0EC16FD06C8F78FEFC81AD80A8C149D04A3
S11332E030F0EA14FB04B8F3C62DD72DEDCF2FE34D
S11332F031E04FEE50E060E070E080E090E00E944A
S11333001419DF91CF911F910F91FF90EF90DF90EF
S1133310CF90BF90AF909F908F907F906F900895C3
S11333200F931F938C012FE331E04FEE50E060E0E8
S113333070E080E090E00E944A191F910F91089577
S11333408091530290915402089580915502909176
S11333505602089586B382FB882780F991E0892775
S11333600895AF92BF92CF92DF92EF92FF920F93A4
S1133370CF93DF9380E980934B020F2EFCE4AF2EB2
S1133380F2E0BF2EF02DF50110820F2EFDE4CF2EBA
S1133390F2E0DF2EF02D80EDF60180830F2EFEE4A7
S11333A0EF2EF2E0FF2EF02DF7011082CFE4D2E0F1
S11333B0188200E020E042E060E080E00E944B17C9
S11333C0BC9AC4986BE472E085E090E00E945917BF
S11333D0C49A0E945717F5018081F0E28F9FC001C3
S11333E01124909356028093550280915502909136
S11333F05602F6012081269526952695822B9093D8
S1133400560280935502F7018081F0E28F9FC0013C
S11334101124909354028093530280915502909109
S113342056022881269526952695822B909356023E
S113343080935502DF91CF910F91FF90EF90DF9031
S1133440CF90BF90AF900895C49A0E94B119089587
S1133450EF92FF920F931F93A0E0B0E04091AE0073
S11334605091AF006091B0007091B1007C018D016A
S1133470E41AF50A060B170BA80197016091AA003C
S11334807091AB008091AC009091AD000E94D53951
S11334902091A6003091A7004091A8005091A90066
S11334A00E94E539CA01B90160567F4F8F4F9F4F83
S11334B01F910F91FF90EF900895EF92FF920F9359
S11334C01F93A0E0B0E04091A2005091A30060914E
S11334D0A4007091A5007C018D01E41AF50A060B85
S11334E0170BA801970160919E0070919F00809135
S11334F0A0009091A1000E94D53920919A003091AA
S11335009B0040919C0050919D000E94E539CA01A6
S1133510B90168587F4F8F4F9F4F1F910F91FF90B4
S1133520EF9008952F923F924F925F926F927F9205
S11335308F929F92AF92BF92CF92DF92EF92FF92BF
S11335400F931F93CF93DF93CDB7DEB768970FB672
S1133550F894DEBF0FBECDBF1A013A83298320E061
S113356030E044EB52E40E9496366B017C0120E08B
S113357030E044EB53E40E94C53818164CF0C09276
S1133580F401D092F501E092F601F092F70110C037
S113359020E030E044EB53E4C701B6010E949536C5
S11335A06093F4017093F5018093F6019093F70111
S11335B004EF11E02BED3FE049E450E4F8016081B1
S11335C07181828193810E94C93820E030E044E314
S11335D053E40E9401376B017C01F801608371831D
S11335E0828393832BED3FE049EC5FE30E949636A0
S11335F02B013C016093F8017093F9018093FA0167
S11336009093FB012BED3FE049E450E4C701B60180
S11336100E9496364B015C016093FC017093FD019E
S11336208093FE019093FF0124EE3BEC46E950E4C5
S1133630C701B6010E9496366B017C0160930002BB
S11336407093010280930202909303022BED3FE0FA
S113365049EC50E4C301B2010E94C538181684F441
S11336602BED3FE049EC50E4C301B2010E949536D2
S11336706093F8017093F9018093FA019093FB0130
S11336802BED3FE049EC50E4C501B4010E94C5387C
S1133690181684F42BED3FE049EC50E4C501B40165
S11336A00E9495366093FC017093FD018093FE01A6
S11336B09093FF012BED3FE049EC50E4C701B601C4
S11336C00E94C538181684F42BED3FE049EC50E411
S11336D0C701B6010E9495366093000270930102FF
S11336E0809302029093030289819A81892B09F4C1
S11336F0B7C3EEE9FFEEF0936400E0936300EAE7FA
S1133700F0E060817181828193810E9469374B016D
S11337105C01EAE8F0E060817181828193810E941A
S11337206937CB010597E12C02EB10E09401AC0161
S1133730B4010E946910E4EFF1E0C080D180E2801E
S1133740F380C701B6010E94FE362B013C01C10182
S11337504496BC01882777FD8095982F0E949C375A
S11337604B015C019B01AC01C301B2010E94C93849
S113377020E030E04EEE52E40E949636EAE8F0E0B3
S11337806083718382839383C701B6010E944C399D
S11337909B01AC01C501B4010E94C9389B01AC0175
S11337A060E070E081E593E40E949536EAE7F0E09A
S11337B06083718382839383EEE7F0E0608171819B
S11337C0828193810E9469372B013C01EEE8F0E08D
S11337D060817181828193810E946937CB01059751
S11337E0E12C04EB10E09201AC01B2010E946910DB
S11337F0C090F801D090F901E090FA01F090FB013B
S1133800C701B6010E94FE369B01AC01C501B4019B
S11338100E94C93820E030E04EEE52E40E94963611
S11338202B013C01EEE8F0E0608371838283938393
S1133830C701B6010E944C399B01AC01C501B4011A
S11338400E94C9389B01AC0160E070E081E593E41B
S11338500E949536EEE7F0E0608371838283938360
S1133860E2E8F0E060817181828193810E9469378E
S113387069837A838B839C83E2E9F0E060817181C0
S1133880828193810E9469376B01F5E0CF1AD108D8
S1133890C301B2010E946937CB010597E12C02E113
S11338A011E029813A81A601B9010E946910ECEF67
S11338B0F1E0C080D180E280F380C701B6010E94AC
S11338C0FE369B01AC01C501B4010E94C93820E059
S11338D030E04EEE52E40E949636E2E9F0E0608376
S11338E0718382839383C701B6010E944C399B0183
S11338F0AC01C501B4010E94C9389B01AC0160E070
S113390070E081E593E40E949536E2E8F0E060839C
S1133910718382839383E6E8F0E060817181828120
S113392093810E9469372B013C010F2EF6E9CF2EBB
S1133930F0E0DF2EF02DF6016081718182819381A8
S11339400E946937CB010597E12C06EB10E0920148
S1133950AC01B2010E946910409000025090010233
S11339606090020270900302C301B2010E94FE360D
S11339709B01AC01C501B4010E94C93820E030E0CC
S11339804EEE52E40E949636F60160837183828380
S11339909383C301B2010E944C399B01AC01C50160
S11339A0B4010E94C9389B01AC0160E070E081E57C
S11339B093E40E949536E6E8F0E0608371838283A5
S11339C093831092640010926300EAE7F0E0608150
S11339D07181828193810E9469374B015C01EAE81D
S11339E0F0E060817181828193810E946937CB010B
S11339F0059702EB10E09401AC01B4010E94691038
S1133A00EEE7F0E060817181828193810E946937E1
S1133A104B015C01EEE8F0E0608171818281938169
S1133A200E946937CB01059704EB10E09401AC01C7
S1133A30B4010E946910E2E8F0E060817181828142
S1133A4093810E9469374B015C01E2E9F0E06081F7
S1133A507181828193810E946937CB01059702E1CC
S1133A6011E09401AC01B4010E946910E6E8F0E0B1
S1133A7060817181828193810E9469374B015C016D
S1133A80F60160817181828193810E946937CB0143
S1133A90059706EB10E09401AC01B4010E94691093
S1133AA0E4EFF1E080809180A280B380C501B4018D
S1133AB00E94FE366B017C01B101882777FD809559
S1133AC0982F0E949C372B013C019B01AC01C7013C
S1133AD0B6010E94C93820E030E04EEE52E40E9464
S1133AE0963669837A838B839C83C501B4010E94D3
S1133AF04C399B01AC01C301B2010E94C9389B013E
S1133B00AC0160E070E081E593E40E9495366B01BE
S1133B107C0180E098EF90937900809378002BEDFE
S1133B203FE049E450E4C501B4010E94963623EC19
S1133B3038EB42E35EE30E9495364B015C01E4EF0F
S1133B40F1E060837183828393830E94FE366D83E8
S1133B507E838F839887C501B4010E944C399B01F1
S1133B60AC01C301B2010E94C9389B01AC01C70179
S1133B70B6010E9495360E94693769877A878B87D8
S1133B809C872D813E814F815885C301B2010E94DB
S1133B90C9389B01AC0169817A818B819C810E9427
S1133BA096360E9469376D837E838F839887C70119
S1133BB0B6010E9469376D877E878F87988B6981EC
S1133BC07A818B819C810E946937698B7A8B8B8B7C
S1133BD09C8B29853A854D815E816D857E85898999
S1133BE09A890E94B21023EC38EB42EB5EE3E4EFD7
S1133BF0F1E060817181828193810E9496364B014C
S1133C005C01E4EFF1E060837183828393830E941B
S1133C10FE366D8B7E8B8F8B988FC501B4010E940D
S1133C204C399B01AC01C301B2010E94C9389B010C
S1133C30AC01C701B6010E9495360E9469376B0139
S1133C407C012D893E894F89588DC301B2010E94A0
S1133C50C9389B01AC0169817A818B819C810E9466
S1133C6096360E9469374B015C019601AB016D8564
S1133C707E8589899A890E94B2109601A40169857A
S1133C807A858D819E810E94B210ECEFF1E08080F4
S1133C909180A280B380C501B4010E94FE369B01CD
S1133CA0AC01C301B2010E94C93820E030E04EEEFD
S1133CB052E40E94963669837A838B839C83C50180
S1133CC0B4010E944C399B01AC01C301B2010E94B2
S1133CD0C9389B01AC0160E070E081E593E40E9487
S1133CE095366B017C018EE99FEE90937900809369
S1133CF078002BED3FE049E450E4C501B4010E9493
S1133D00963623EC38EB42E35EE30E9495364B0192
S1133D105C01ECEFF1E060837183828393830E9402
S1133D20FE366D837E838F839887C501B4010E941C
S1133D304C399B01AC01C301B2010E94C9389B01FB
S1133D40AC01C701B6010E9495360E9469376987A4
S1133D507A878B879C872D813E814F815885C3014B
S1133D60B2010E94C9389B01AC0169817A818B81BF
S1133D709C810E9496360E9469376D837E838F836F
S1133D809887C701B6010E9469376D877E878F8740
S1133D90988B69817A818B819C810E946937698BB8
S1133DA07A8B8B8B9C8B29853A854D815E816D85C1
S1133DB07E8589899A890E94B21023EC38EB42EB04
S1133DC05EE3ECEFF1E060817181828193810E9476
S1133DD096364B015C01ECEFF1E0608371838283E2
S1133DE093830E94FE366D8B7E8B8F8B988FC501DB
S1133DF0B4010E944C399B01AC01C301B2010E9481
S1133E00C9389B01AC01C701B6010E9495360E94D6
S1133E1069376B017C012D893E894F89588DC30117
S1133E20B2010E94C9389B01AC0169817A818B81FE
S1133E309C810E9496360E9469374B015C01960171
S1133E40AB016D857E8589899A890E94B21096019D
S1133E50A40169857A858D819E810E94B2107DC0FE
S1133E608090F4019090F501A090F601B090F701D4
S1133E70C501B4010E94FE362B013C01B101882723
S1133E8077FD8095982F0E949C376B017C01C501BA
S1133E90B4010E944C399B01AC01C701B6010E94D8
S1133EA0C9389B01AC0160E070E081E593E40E94B5
S1133EB095360E9469374B015C01A7019601C30145
S1133EC0B2010E94C93820E030E04EEE52E40E9474
S1133ED096360E9469379401AB0161ED70E087E783
S1133EE090E00E94B2108090FC019090FD01A0909F
S1133EF0FE01B090FF01C501B4010E94FE362B0102
S1133F003C01C501B4010E944C399B01AC01C701BD
S1133F10B6010E94C9389B01AC0160E070E081E504
S1133F2093E40E9495360E946E374B015C01A30115
S1133F309201C701B6010E94C93820E030E04EEE7C
S1133F4052E40E9496360E946E379401AB0161EDF3
S1133F5070E087E790E00E94B21068960FB6F8947C
S1133F60DEBF0FBECDBFDF91CF911F910F91FF90A8
S1133F70EF90DF90CF90BF90AF909F908F907F9005
S1133F806F905F904F903F902F900895CF92DF9263
S1133F90EF92FF920F931F93CF93DF936C017B01FA
S1133FA01092790010927800C0E0D0E08C010B5F91
S1133FB01F4FBE01882777FD8095982F0E949C375C
S1133FC020E030E0A8010E94921ACE0DDF1DC43B10
S1133FD0D10579F783EF9DE1909379008093780080
S1133FE0A6014550510921E061ED70E087E790E0BA
S1133FF00E942B12DF91CF911F910F91FF90EF90B0
S1134000DF90CF9008956F927F928F929F92AF929C
S1134010BF92CF92DF92EF92FF920F931F93CF93B1
S1134020DF93CDB7DEB7CB58D1090FB6F894DEBF16
S11340300FBECDBF109289020F2EFAE9EF2EF2E0E7
S1134040FF2EF02DA12CB12C20C0802F0E944E15E4
S1134050882399F0D701CD90DC90802F0E946015C1
S1134060EBE0F0E0EC0FFD1FEC0DFD1D8083F7018C
S1134070808191810196918380830F5F1F4F0E94FD
S1134080EB1490E00817190704F3D7018D919C9164
S1134090883791051CF40A2D1B2DF1CF8737910524
S11340A00CF4EAC210929B0210929A02FE013B9613
S11340B0DF010D900020E9F79D012E1B3F0B2550D9
S11340C03109E20FF31F80818A3261F42330310514
S11340D008F4D5C242E04F5F842F90E08217930723
S11340E0D0F3D0C2CD57DF4F188219821A82C35839
S11340F0D040CA57DF4F188219821A82C658D0405E
S1134100C757DF4F188219821A82C958D040FE015E
S113411031968AE0DF011D928A95E9F710928802B0
S113412068EB70E0CE010B960E94A33A009709F465
S1134130ACC26CE270E00E94893A8C01BC016F5FF2
S11341407F4F42E050E0CE018D579F4F0E94943A3A
S1134150B8016D5F7F4F42E050E0CE018A579F4F18
S11341600E94943A6801B5E0CB0ED11C42E050E0C5
S1134170B601CE0187579F4F0E94943A02E712E09E
S1134180F801808191819093AF028093AE02CE01B9
S11341908D579F4F0E94443A7C01D8018D939C9384
S11341A004E712E0F801808191819093B102809339
S11341B0B002CE018A579F4F0E94443AD8018D9392
S11341C09C93CE0187579F4F0E94443A9093770265
S11341D080937602B6E1EB16F10444F4E2E0EE0ECD
S11341E0F11CF0927302E09272020FC0F6E1EF1636
S11341F0F10429F4109273021092720206C081E055
S113420090E090937302809372026CE270E0C601B6
S11342100E94893A9C012F5F3F4FDC0111968C91DB
S1134220813469F481E490E09093A3028093A20224
S113423081E090E09093A1028093A0020FC08635A4
S113424069F486E590E09093A3028093A202109211
S1134250A1021092A00280E090E021C26CE270E022
S1134260C9010E94893A7C018C010F5F1F4FFC0138
S113427081818C3209F4BEC042E050E0B801CE0125
S113428001960E94943ACE0101960E94623A9B01E3
S1134290AC0160E876E988E990E00E94D5394B01E9
S11342A05C01B7016D5F7F4F42E050E0CE010196A3
S11342B00E94943A0B5F1F4F44E050E0B801CE01D6
S11342C003960E94943A0F2EF8E76F2EF2E07F2EA9
S11342D0F02DF30180819181A281B3818093B60294
S11342E09093B702A093B802B093B902CE0101969D
S11342F00E94623A9B01AC01A2E3B0E00E94043A3E
S113430023E030E040E050E00E94E53969017A01A1
S1134310209384023093850240938602509387024F
S1134320D501C401820F931FA41FB51F809380027F
S113433090938102A0938202B0938302C501B401D9
S113434020EA36E841E050E00E94E539CA01B901AB
S11343500E949C374B015C01C701B6010E949C3747
S11343602CE933E549EC56E30E94C9389B01AC01C2
S1134370C501B4010E9496360E9469376B017C0125
S1134380D3016D937D938D939C93139724E630E032
S113439040E050E00E94E53949015A0124E6289D95
S11343A0C001299D900D1124AA2797FDA095BA2F2D
S11343B0A7019601281B390B4A0B5B0BCA01B901F3
S11343C00E949C3720E030E040E752E40E9401372D
S11343D00E946937AA2497FCA094BA2C860E971ED3
S11343E0A81EB91E80927C0290927D02A0927E0249
S11343F0B0927F026CE270E0C8010E94893A6C01BD
S11344007C013FEFE31AF30ADC0111968C918C32A4
S113441039F1833509F03FC10CE712E0F8016081FE
S11344207181828193810E949C3790580E946937E0
S1134430D8016D937D938D939C931397F60181819D
S11344408E3421F48EE4809388020AC0833519F4F3
S11344508093880205C08C3219F48FE2809388021D
S11344606CE270E0C7010E94893A7C018C010F5F05
S11344701F4FDC0111968C918C3209F4AEC043E0DD
S113448050E0B801CE0101960E94943A1C82CE01FC
S113449001960E94623A9B01AC0160E876E988E9E2
S11344A090E00E94D5394B015C01B7016C5F7F4FEE
S11344B042E050E0CE0101960E94943A0A5F1F4FF9
S11344C044E050E0B801CE0103960E94943ACE0134
S11344D001960E94623A9B01AC01A2E3B0E00E9403
S11344E0043A23E030E040E050E00E94E5396901FD
S11344F07A01209396023093970240939802509346
S11345009902D501C401820F931FA41FB51F809384
S1134510920290939302A0939402B0939502C501E2
S1134520B40120EA36E841E050E00E94E539CA01CE
S1134530B9010E949C374B015C01C701B6010E947E
S11345409C372CE933E549EC56E30E94C9389B01BA
S1134550AC01C501B4010E9496360E9469376B0113
S11345607C0160938A0270938B0280938C029093F7
S11345708D0224E630E040E050E00E94E539490134
S11345805A0124E6289DC001299D900D1124AA27D3
S113459097FDA095BA2FA7019601281B390B4A0B4A
S11345A05B0BCA01B9010E949C3720E030E040E770
S11345B052E40E9401370E946937AA2497FCA09410
S11345C0BA2C860E971EA81EB91E80928E02909257
S11345D08F02A0929002B09291026CE270E0C80146
S11345E00E94893A7C013FEFE31AF30ADC01119639
S11345F08C91873591F40EE812E0F80160817181A5
S1134600828193810E949C3790580E946937D80117
S11346106D937D938D939C9313976CE270E0C70127
S11346200E94893A8C010F5F1F4FFC0181818C32FB
S113463059F0C8010E94403A6093A4027093A50205
S11346408093A6029093A7026CE270E0C8010E94D6
S1134650893ADC0111962C912C32D1F001960E94FA
S1134660403A6093A8027093A9028093AA0290939F
S1134670AB0281E090E013C081E090E010C080E0E4
S113468090E00DC080E090E00AC081E090E007C0B7
S113469081E090E004C08E3409F0E2CED3CEC55759
S11346A0DF4F0FB6F894DEBF0FBECDBFDF91CF91C1
S11346B01F910F91FF90EF90DF90CF90BF90AF903C
S11346C09F908F907F906F9008954F925F926F921A
S11346D07F928F929F92AF92BF92CF92DF92EF928E
S11346E0FF920F931F93CF93DF93CDB7DEB76097FD
S11346F00FB6F894DEBF0FBECDBF2D833E834F832C
S1134700588727013801182D0E949C3720E836E984
S113471048E15BE40E9401372BED3FE049E450E4BB
S11347200E94C93820E030E044E353E40E9401379A
S113473069837A838B839C830E944C3969877A8747
S11347408B879C872BED3FE049E450E4C301B20121
S11347500E94C93820E030E044E353E40E9401376A
S11347602B013C010E944C396D877E878F87988B83
S113477069817A818B819C810E94FE3669837A8368
S11347808B839C83C301B2010E94FE362B013C0142
S11347906D817E818F8198850E949C3720E836E95F
S11347A048E15BE40E940137A60195010E94953619
S11347B02BED3FE049E450E40E94C93820E030E0AA
S11347C044E353E40E9401370E94FE366D837E83E6
S11347D08F8398872D853E854F85588969857A858D
S11347E08B859C850E94C9384B015C01A301920111
S11347F069817A818B819C810E94C9382D813E8197
S11348004F8158850E94C9389B01AC01C501B40190
S11348100E9496360E94873620E030E044E353E459
S11348200E94C9382BED3FE049E450E40E9401376F
S113483020E030E040E752E40E94C9382AE534E63B
S113484043E95FE30E94C9381B3419F01E3441F078
S11348500DC02CEF3EEF4DEC5FE30E94C93806C05B
S113486026E73FE44EE55FE30E94C93860960FB641
S1134870F894DEBF0FBECDBFDF91CF911F910F9192
S1134880FF90EF90DF90CF90BF90AF909F908F906C
S11348907F906F905F904F900895803350F08A33EB
S11348A010F4805308959FEB980F963020F48753AB
S11348B0089580E0089580E008952F923F924F92EA
S11348C05F926F927F928F929F92AF92BF92CF929C
S11348D0DF92EF92FF920F931F93CF93DF93CDB7A5
S11348E0DEB7CF58D1090FB6F894DEBF0FBECDBFE7
S11348F0109289020F2EFAE9EF2EF2E0FF2EF02D2E
S1134900A12CB12C20C0802F0E944E15882399F031
S1134910D701CD90DC90802F0E946015EBE0F0E091
S1134920EC0FFD1FEC0DFD1D8083F701808191814B
S11349300196918380830F5F1F4F0E94EB1490E0D8
S11349400817190704F3D7018D919C9188379105B5
S11349501CF40A2D1B2DF1CF873791050CF444C3A9
S113496010929B0210929A02FE013B96DF010D9079
S11349700020E9F711977D01EE1AFF0A8701045020
S11349801109E00FF11F80818A3251F5FE01EE0D0D
S1134990FF1D80850E944D24B0E18B9F600111248E
S11349A0DE01AE0DBF1D19968C910E944D24F601B7
S11349B0E80FF11DCF010230110578F041E0EBE082
S11349C0F0E0EC0FFD1FE40FF11D208182274F5F03
S11349D0242F30E02017310790F3892B09F004C30A
S11349E0CD57DF4F188219821A82C358D040CA5754
S11349F0DF4F188219821A82C658D040C757DF4F3A
S1134A00188219821A82C958D040FE0131968AE070
S1134A10DF011D928A95E9F7109288026FEB70E02E
S1134A20CE010B960E94A33A009709F4DDC26CE212
S1134A3070E00E94893A8C01BC016F5F7F4F42E0B5
S1134A4050E0CE018D579F4F0E94943AB8016D5F9C
S1134A507F4F42E050E0CE018A579F4F0E94943A24
S1134A606801B5E0CB0ED11C42E050E0B601CE01A6
S1134A7087579F4F0E94943A02E712E0F801808121
S1134A8091819093AF028093AE02CE018D579F4FD8
S1134A900E94443A7C01D8018D939C9304E712E070
S1134AA0F801808191819093B1028093B002CE018C
S1134AB08A579F4F0E94443AD8018D939C93CE010C
S1134AC087579F4F0E94443A9093770280937602CF
S1134AD0B6E1EB16F10444F4E2E0EE0EF11CF092C0
S1134AE07302E09272020FC0F6E1EF16F10429F4AA
S1134AF0109273021092720206C081E090E09093CB
S1134B007302809372026CE270E0C6010E94893ADB
S1134B107C018C010F5F1F4FDC0111968C918C324C
S1134B2009F4CFC042E050E0B801CE0101960E94E2
S1134B30943ACE0101960E94623A9B01AC0160E86E
S1134B4076E988E990E00E94D5394B015C01B70110
S1134B506D5F7F4F42E050E0CE0101960E94943A8F
S1134B600B5F1F4F44E050E0B801CE0103960E9452
S1134B70943ACE0101960E94623A9B01AC01A2E3F1
S1134B80B0E00E94043A23E030E040E050E00E94AC
S1134B90E53969017A0120938402309385024093B8
S1134BA08602509387020F2EF8E72F2EF2E03F2E55
S1134BB0F02DF10180819181A281B3818093B602AD
S1134BC09093B702A093B802B093B902C501B4019F
S1134BD020EA36E841E050E00E94E539CA01B90113
S1134BE00E949C372B013C01C701B6010E949C37EF
S1134BF02CE933E549EC56E30E94C9389B01AC012A
S1134C00C301B2010E9496360E9469372B013C0110
S1134C10D1016D937D938D939C93139724E630E09B
S1134C2040E050E00E94E539C457DF4F28833983C0
S1134C304A835B83CC58D04024E6C457DF4FE881D5
S1134C40F981CC58D0402E9FC0012F9F900D112484
S1134C50AA2797FDA095BA2FA3019201281B390B0F
S1134C604A0B5B0BCA01B9010E949C3720E030E07B
S1134C7040E752E40E9401370E946937C457DF4F6E
S1134C8048815981CC58D0402A01662457FC60944D
S1134C90762C460E571E681E791E40927C02509256
S1134CA07D0260927E0270927F02C80CD91CEA1CBD
S1134CB0FB1CC0928002D0928102E0928202F092A8
S1134CC083026CE270E0C8010E94893A8C016C0195
S1134CD05FEFC51AD50ADC0111968C918C3259F11B
S1134CE0833509F07DC10F2EFCE7EF2EF2E0FF2E95
S1134CF0F02DF70160817181828193810E949C373C
S1134D0090580E946937D7016D937D938D939C933E
S1134D101397F80181818E3421F48EE48093880204
S1134D200AC0833519F48093880205C08C3219F4C3
S1134D308FE2809388026CE270E0C6010E94893A97
S1134D407C018C010F5F1F4FDC0111968C918C321A
S1134D5009F4D0C043E050E0B801CE0101960E94AE
S1134D60943A1C82CE0101960E94623A9B01AC01E6
S1134D7060E876E988E990E00E94D5394B015C014E
S1134D80B7016C5F7F4F42E050E0CE0101960E9474
S1134D90943A0A5F1F4F44E050E0B801CE010396F5
S1134DA00E94943ACE0101960E94623A9B01AC01A2
S1134DB0A2E3B0E00E94043A23E030E040E050E097
S1134DC00E94E53969017A01209396023093970293
S1134DD040939802509399020F2EFAE82F2EF2E096
S1134DE03F2EF02DF10180819181A281B3818093C6
S1134DF0BA029093BB02A093BC02B093BD02C5015A
S1134E00B40120EA36E841E050E00E94E539CA01E5
S1134E10B9010E949C372B013C01C701B6010E94D5
S1134E209C372CE933E549EC56E30E94C9389B01D1
S1134E30AC01C301B2010E9496360E9469372B016E
S1134E403C01D1016D937D938D939C93139724E63C
S1134E5030E040E050E00E94E539C457DF4F28833A
S1134E6039834A835B83CC58D04024E6C457DF4F50
S1134E70E881F981CC58D0402E9FC0012F9F900D1E
S1134E801124AA2797FDA095BA2FA3019201281BEC
S1134E90390B4A0B5B0BCA01B9010E949C3720E015
S1134EA030E040E752E40E9401370E946937C4575A
S1134EB0DF4F48815981CC58D0402A01662457FCE1
S1134EC06094762C460E571E681E791E40928E0200
S1134ED050928F026092900270929102C80CD91C79
S1134EE0EA1CFB1CC0929202D0929302E0929402BC
S1134EF0F09295026CE270E0C8010E94893A8C013C
S1134F000F5F1F4FDC0111968C918735B1F40F2E82
S1134F10FEE8EF2EF2E0FF2EF02DF70160817181A3
S1134F20828193810E949C3790580E946937D701EF
S1134F306D937D938D939C9313976CE270E0C801FD
S1134F400E94893A8C010F5F1F4FFC0181818C32D2
S1134F5039F0C8010E94443A9093A1028093A002C0
S1134F606CE270E0C8010E94893A8C010F5F1F4F08
S1134F70DC0111968C918C3299F00F2EFCE9EF2E06
S1134F80F2E0FF2EF02DF701808191819093B3021E
S1134F908093B202C8010E94443AD7018D939C9336
S1134FA06CE270E0C8010E94893A6CE270E00196FC
S1134FB00E94893AFC0121812C32B1F00EE912E001
S1134FC0D8012D913C913093B5022093B4020196FF
S1134FD00E94403A0E946937F8017183608304C0DB
S1134FE08E3409F0A8CE99CEC157DF4F0FB6F8948E
S1134FF0DEBF0FBECDBFDF91CF911F910F91FF9008
S1135000EF90DF90CF90BF90AF909F908F907F9064
S11350106F905F904F903F902F9008952F923F9202
S11350204F925F926F927F928F929F92AF92BF92B4
S1135030CF92DF92EF92FF920F931F93CF93DF9360
S1135040CDB7DEB764970FB6F894DEBF0FBECDBF01
S11350501092890283EF9DE1909379008093780008
S113506003EF1DE120E530E04FEE50E068E270E030
S113507080E090E00E944A1980E195E190937900E4
S11350808093780000E115E120E530E048E250E04B
S113509068E270E080E090E00E944A190F2EFEE979
S11350A0CF2EFFEEDF2EF02DD0926400C09263006D
S11350B0EE24E39406EC10E020E530E048E250E012
S11350C068E270E080E090E00E94691008EC10E073
S11350D020E530E04FEE50E068E270E080E090E0E0
S11350E00E946910D0927900C092780000E010E02C
S11350F02FE331E04FEE50E061E570E080E090E0B6
S11351000E94281310927900109278001092640083
S11351101092630001ED10E024E630E040EE50E030
S11351206AE570E08FE090E00E94691025E530E0C8
S11351304AE050E065E570E085E090E00E94B2103E
S113514027E131E045E050E065E570E085E090E07E
S11351500E94B21025E530E045EE50E065E570E0D0
S11351608AEE90E00E94B21027E131E04AEE50E06E
S113517065E570E08AEE90E00E94B2108BED94E356
S113518090937900809378000BED14E32AE331E0E7
S11351904AEE50E067E171E085E090E00E944A1930
S11351A0D0926400C092630008ED10E02EE231E07A
S11351B040EE50E064E271E08FE090E00E946910FC
S11351C001E010E09E012F5F3F4F59010F2EFEE9D1
S11351D0CF2EF2E0DF2EF02D0F2EFEE98F2EFFEE04
S11351E09F2EF02DF12C0F2E412CF8EF5F2EF02D79
S11351F00F2EFDE06F2E77247394F02D0F2EF3E025
S11352002F2E33243394F02DDAC00E94FF290E94FC
S11352105D24D501E4E11D92EA95E9F72BE432E33C
S11352203093640020936300D6018D919C91E4EB4C
S1135230F2E0208131818217930719F4012B09F4DC
S1135240BCC0181619060CF0B8C090927900809270
S113525078008BE09F2D0BE01F2D21E045E050E00E
S113526067E171E00E942B12045F1F4F802F912F82
S11352700F3E110591F79092790080927800840195
S113528027E131E049EE50E06EE670E086E090E020
S11352900E944A195092790040927800509264001A
S11352A040926300D60111968C9111978F938C9143
S11352B08F93ABE7B1E0BF93AF93BF92AF920E94DD
S11352C0DA3AD6016D917C91882777FD8095982FE5
S11352D00E949C3729E739EE46E25EE30E94C93812
S11352E00E9469379301261B370BF101E61BF70B6C
S11352F0BF01E12C85014FEE50E08FE090E00E9469
S11353006910D6016D917C91882777FD8095982F3F
S11353100E949C3729E739EE46E25EE30E94C938D1
S11353200E94693707E111E0F801E61BF70BBF01A2
S11353309F0144E650E086E090E00E94B210D6015E
S11353406D917C91882777FD8095982F0E949C37DA
S113535029E739EE46E25EE30E94C9380E946937C4
S1135360F801E61BF70BBF019F014AE850E089EE04
S113537090E00E94B210D6016D917C91882777FD50
S11353808095982F0E949C3729E739EE46E25EE328
S11353900E94C9380E946937F801E61BF70BBF0168
S11353A021E045E050E087E790E00E942B120F9047
S11353B00F900F900F900F900F9000E010E08091ED
S11353C06D0290916E02049709F41FCF64960FB694
S11353D0F894DEBF0FBECDBFDF91CF911F910F9127
S11353E0FF90EF90DF90CF90BF90AF909F908F9001
S11353F07F906F905F904F903F902F9008952F92E1
S11354003F924F925F926F927F928F929F92AF9250
S1135410BF92CF92DF92EF92FF920F931F93CF939D
S1135420DF93CDB7DEB728970FB6F894DEBF0FBE73
S1135430CDBF0E94AA19882309F457C30E94B11949
S11354400E94A5194C010E94A0199A8389830E9485
S1135450A5196C010E94A0198C010E94A5197C0158
S11354600E94A01998878F830E94B1190E94A519E0
S11354705C010E94A0191C010E94A519C816D90636
S113548018F40E94A5196C010E94A5198E159F0598
S113549018F40E94A5197C010E94A0190817190785
S11354A018F40E94A0198C010E94A0192F8138853C
S11354B08217930720F40E94A01998878F830E9473
S11354C0B1190E94A5193C010E94A0199C838B83E9
S11354D00E94A519C816D90618F40E94A5196C01D2
S11354E00E94A5198E159F0518F40E94A5197C0128
S11354F00E94A0190817190718F40E94A0198C011A
S11355000E94A019EF81F8858E179F0720F40E944E
S1135510A01998878F830E94B1190E94A5192C01A4
S11355200E94A0199E838D830E94A519C816D906CE
S113553018F40E94A5196C010E94A5198E159F05E7
S113554018F40E94A5197C010E94A01908171907D4
S113555018F40E94A0198C010E94A0192F8138858B
S11355608217930720F40E94A01998878F830E94C2
S1135570AA19882309F4C5C2A80CB91CA60CB71C27
S1135580C501840D951D8C199D098E199F09969549
S113559087950E94281A6B017C0189819A81820D6A
S11355A0931DEB81FC818E0F9F1F2D813E81820F05
S11355B0931F801B910BEF81F8858E1B9F0B969593
S11355C087950E945D1A20910402222321F022E093
S11355D020936F0203C021E020936F02970186019C
S11355E001501109210931090F33114021053105F9
S11355F008F077C28B019C0101501109210931097E
S11356000F3E11052105310508F06BC2D092AD02A1
S1135610C092AC02709371026093700220916F0289
S1135620213009F05EC220916D0230916E02223069
S1135630310509F429C144F42115310581F02130E3
S1135640310509F4E0C04DC22430310509F4CAC162
S11356500CF471C12630310509F405C242C2AB0114
S113566045505109463E510508F03BC2C6018D978D
S1135670C39708F580E195E19093790080937800D1
S113568000E115E12FE530E04FEE50E06DE270E00F
S11356908AEE90E00E944A198EE99FEE9093790079
S11356A08093780081E090E090936E0280936D0285
S11356B00E94AB3116C2C60184569109C39778F58E
S11356C080E195E1909379008093780000E115E101
S11356D026E930E04FEE50E064E670E08AEE90E0B8
S11356E00E944A198EE99FEE909379008093780086
S11356F082E090E090936E0280936D02EE24E39436
S113570000E010E02FE331E04FEE50E069E270E09A
S113571080E090E00E9428130E948C33E2C1C6010D
S11357208B599109C39708F580E195E1909379002D
S11357308093780000E115E12DEC30E04FEE50E06D
S11357406BE970E08AEE90E00E944A198EE99FEEC0
S1135750909379008093780084E090E090936E02B7
S113576080936D020E940E28BCC1C601825D91091E
S1135770C397F8F480E195E19093790080937800E1
S113578000E115E124E031E04FEE50E062ED70E01D
S11357908AEE90E00E944A198EE99FEE9093790078
S11357A08093780085E090E090936E0280936D0280
S11357B098C129E0C21A21E0D20A33E3C316D10406
S11357C008F08FC180E195E190937900809378008F
S11357D000E115E12BE331E04FEE50E069E071E0C8
S11357E08AEE90E00E944A198EE99FEE9093790028
S11357F08093780086E090E090936E0280936D022F
S11358000E949A2D6EC16932710508F06AC148E29E
S1135810C41AD10889E2C816D10408F062C18BE425
S113582092E390937900809378000BE412E320E5EF
S113583030E048E250E068E270E080E090E00E94EE
S11358404A190F2EFEE9CF2EFFEEDF2EF02DD09257
S11358506400C0926300EE24E39406EC10E020E5BB
S113586030E048E250E068E270E080E090E00E94BE
S11358706910D0927900C092780010926E02109252
S11358806D020E940D302DC169327105D8F5960163
S11358902852310929323105A8F58BE492E390931B
S11358A07900809378000BE412E320E530E048E2CD
S11358B050E068E270E080E090E00E944A190F2E08
S11358C0FEE9CF2EFFEEDF2EF02DD0926400C092C1
S11358D06300EE24E39406EC10E020E530E048E2B7
S11358E050E068E270E080E090E00E946910D0929D
S11358F07900C092780010926E0210926D020E949C
S11359000D30EFC0AB01475751094536510508F03A
S1135910E8C0EDE0CE1AE1E0DE0AFFE1CF16D104E3
S113592008F0DFC083E090E090936E0280936D02F4
S11359300E948C33D6C069327105D8F5960128527D
S1135940310929323105A8F58BE492E3909379006B
S1135950809378000BE412E320E530E048E250E065
S113596068E270E080E090E00E944A190F2EFEE9A0
S1135970CF2EFFEEDF2EF02DD0926400C092630094
S1135980EE24E39406EC10E020E530E048E250E039
S113599068E270E080E090E00E946910D0927900A3
S11359A0C092780010926E0210926D020E940D3027
S11359B098C0AB01445151094436510508F091C0D7
S11359C02DE0C21A21E0D20A3FE1C316D10408F047
S11359D088C082E090E090936E0280936D020E94F2
S11359E08C337FC06932710508F07BC048E2C41A69
S11359F0D10889E2C816D10408F073C08BE492E39D
S1135A0090937900809378000BE412E320E530E072
S1135A1048E250E068E270E080E090E00E944A19B9
S1135A200F2EFEE9CF2EFFEEDF2EF02DD092640074
S1135A30C0926300EE24E39406EC10E020E530E02D
S1135A4048E250E068E270E080E090E00E94691073
S1135A50D0927900C092780010926E0210926D027A
S1135A600E940D303EC069327105D8F5E8E2CE1AC5
S1135A70D108F9E2CF16D104A0F58BE492E3909318
S1135A807900809378000BE412E320E530E048E2EB
S1135A9050E068E270E080E090E00E944A190F2E26
S1135AA0FEE9CF2EFFEEDF2EF02DD0926400C092DF
S1135AB06300EE24E39406EC10E020E530E048E2D5
S1135AC050E068E270E080E090E00E946910D092BB
S1135AD07900C092780010926E0210926D020E94BA
S1135AE00D3081E0809304020CC08091040288236D
S1135AF021F083E080936F0202C010926F02109233
S1135B00040228960FB6F894DEBF0FBECDBFDF9116
S1135B10CF911F910F91FF90EF90DF90CF90BF90A6
S1135B20AF909F908F907F906F905F904F903F9039
S1135B302F9008952F923F924F925F926F927F928F
S1135B408F929F92AF92BF92CF92DF92EF92FF9289
S1135B500F931F93CF93DF93CDB7DEB766970FB63E
S1135B60F894DEBF0FBECDBF109289020F2EFEE95E
S1135B70CF2EFFEEDF2EF02DD0927900C092780068
S1135B80EE24E39400E010E02FE331E04FEE50E028
S1135B9069E270E080E090E00E942813D0927900DE
S1135BA0C09278002FE331E04FEE50E069E270E0FC
S1135BB080E090E00E94281383EF9DE190937900A8
S1135BC08093780020E530E04FEE50E068E270E02A
S1135BD080E090E00E94281380E195E190937900A1
S1135BE08093780020E530E048E250E068E270E01D
S1135BF080E090E00E942813D0926400C092630079
S1135C0006EC10E020E530E048E250E068E270E0A5
S1135C1080E090E00E94691002EE10E020E530E0A0
S1135C204FEE50E068E270E080E090E00E9469107E
S1135C30D0927900C09278006AE070E085E590E047
S1135C400E94C61F80E090E0A0E8BFEB8093C002F2
S1135C509093C102A093C202B093C3028093C40282
S1135C609093C502A093C602B093C7021092A802F3
S1135C701092A9021092AA021092AB021E8A1D8AE7
S1135C8088248394912C0F2EF4EACF2EF2E0DF2E99
S1135C90F02D0F2EF8EA6F2EF2E07F2EF02DCE01BC
S1135CA001965C01F12C8CC10E94FF29F6018081D0
S1135CB09181A281B381E0ECF2E080839183A2839D
S1135CC0B383F30180819181A281B381E4ECF2E09A
S1135CD080839183A283B3830E940320892B09F4D8
S1135CE014C1D3016D917D918D919C910E9469376E
