S01300007572735F70726F6A656B742E7372656359
S11300000C94EF0D0C940C0E0C940C0E0C940C0E22
S11300100C940C0E0C940C0E0C940C0E0C940C0EF4
S11300200C940C0E0C940C0E0C940C0E0C940C0EE4
S11300300C940C0E0C94D8160C94FD160C940C0E07
S11300400C940C0E0C940C0E0C940C0E0C940C0EC4
S11300500C940C0E072C7AA5BA6CC590DA3B936508
S1130060FC8BBC53F810FD3C5692834DBD879D3AE2
S1130070B63DCBC9BF5BBE73DA0FC93F05A84CCDF3
S1130080B2D44EB93836A9020C50B9918688083CCE
S1130090A6AAAA2ABE000000803F1B081021012046
S11300A0F90A02060A090E090306060708030703EC
S11300B0070A0A0A0A0A0A0A0A0A0A0303060706B8
S11300C0090F0A0A0A0A09080B0A02060A080F0C91
S11300D00C0A0C0A0B0A0A0C0E0B0C0A040804087E
S11300E00905090908090A070A0902030A020E098F
S11300F009090906090709090E0909080602060A79
S113010000000000000000000000000000000000EB
S113011000000000000000000000000000000000DB
S113012000000A09090A0A0D07090C0B0B0E0E0C34
S11301300C0A0D0F0F0A0A090C090D0C0C09090D04
S11301400D0C0A090909090C080B0E0A0C0D090A01
S113015009080907070A0A0A0A040503000000003F
S113016008050A0808090708080208090607000024
S1130170000B0B0D0A0C0C0C0D0C0E000000000003
S1130180000000000000000000000000000000006B
S1130190000000000000000000000000000000005B
S11301A00000000000C0FF0D0080FF1B00000800DD
S11301B000000E0000000400000060000000700059
S11301C00000200000000044000000881F0000F030
S11301D00700007C0200004C04000080E8010000DD
S11301E07F0000C02F0000C0450000008800000010
S11301F0380C0000F838000018C300003006010075
S1130200F0FF0F00C010040080610C00008E0F008E
S113021000180E000078000000F801000008040136
S11302200010080300C08F0100008F010000C0000F
S11302300000C0000000603C000060FC00003004CE
S113024002002008040000E007000080070000808E
S1130250070000BC1F0000FC43000018870000B02A
S11302601B0100C06302000080070000800F000033
S1130270001B0000080000000E0000000400000045
S1130280C07F0000E0FF0700F0001E007000E000E7
S1130290300080033000000C20000018800100189A
S11302A00006001C0078001F00C0FF0F0000FE03C2
S11302B000800D0000001A00000008000000FE018C
S11302C0000020000000A0000000600300000020E7
S11302D00000004000000080000000F01F0000E06B
S11302E03F000000040000000800000010000000AF
S11302F0004C0000005800000070000000010000E5
S113030000020000000400000008000000100000CB
S113031000200000004000000000300000007000D9
S11303200000C0000000C0010000C0000000600028
S113033000007000000030000000180000001C00E5
S11303400000E01F0000E07F00006080010060000A
S11303500600400008008000100000033000000C7C
S1130360300000F03F0000C01F000000000000004B
S11303700000000003000000030000000300000070
S1130380FE7F0000FCFF00000000000000000000F1
S11303900000000000060F00000F1F0000032300F0
S11303A0000247000004860000080E0100100C0241
S11303B000601C0400801F0800001E100000080CD0
S11303C000001C3800000CC00000080001001004EC
S11303D0020020080400401008008051180000BEEC
S11303E01900003C3E0000000C0000001E0000004C
S11303F02600000046000000870000000301000002
S113040003020000FE7F0000FCFF0000001000005B
S113041080C30000E087030040040C008004100047
S113042000092000001240000024800000C8C1011F
S11304300010FF010000FC000000FE010000FE0FA0
S113044000002210000022400000448000008800C8
S11304500100100102006006060080F9070000E2B6
S113046007000001000000020000000480000008F2
S1130470F0010010F80300203C0000401E00008042
S11304800E0000000700000006000000703C0000A1
S1130490F0FD0000300A01002008040040100800AC
S11304A080201000004120000046210000F87E005A
S11304B000E0780000C0C70000C09F0300C0600CCB
S11304C0008080100000012100000242000004C6E8
S11304D0000030C60000E0FF0000007F0000800143
S11304E00C0000071C000006300000086002003801
S11304F0C002002080030000080000002800000063
S1130500D8000000100100001004000030180000A2
S113051080080000001100000022000000440000D8
S113052000880000001001000020020000301800C4
S113053000401000000011000000360000002800F8
S11305400000200000000E0000001E000000060055
S113055000000400000008BC0100107C0300200C13
S1130560000080080000000F000000E0030000F01D
S11305700F00007030000020C00000203C0100404B
S1130580FC040040060900800C110000192300003F
S1130590E24F0000CCD10000902001006020000058
S11305A080730000003C000000001E000080070073
S11305B000E0070000F808000038100000F02000F8
S11305C000C04F000000FC000000C00F0000003C11
S11305D00000FE7F0000FCFF000008020100100480
S11305E0020020080400401008008020100000B71A
S11305F03000007C3F0000203C0000801F0000C051
S1130600FF0000C0810300C0000C00800010000047
S1130610012000000240000004800000108000005F
S1130620E0E00100E0FF0700C0FF0F0080001000C1
S1130630000120000002400000048000001080003F
S113064000E0C0010080FF010000FC000080FF1FEB
S11306500000FF3F00008240000004810000080207
S1130660010010040200200804004010080080006B
S1130670100000FF3F0000FE7F000004010000089E
S11306800200001004000020080000401000008058
S113069000000000F0030000F81F000038700000A4
S11306A01080000010000200200004004020080018
S11306B08041180000861800001C3F000020FE0046
S11306C000F8FF0100F0FF03000008000000100024
S11306D00000200000004000000080000000000135
S11306E00000F8FF0100F0FF0300E0FF0700C0FF77
S11306F00F00000010000000200000004000000077
S1130700C00000F8FF0000F0FF0000E0FF0700C099
S1130710FF0F0000C0010000C0000000C000000086
S1130720E0010000600E00006078000060C003007B
S113073040000E0080FF1F0000FF3F00000040004B
S1130740000080000000000100000002000000041E
S1130750000000080080FF1F0000FF3F00000E00A3
S1130760000078000000C0070000003C000000E02A
S1130770030000000E0000000F000080030000E0F2
S11307800100007000000018000000F0FF0300E00A
S1130790FF0700C0FF0F0080FF1F000003000000E0
S11307A01C0000006000000080030000001C00002A
S11307B0007000000080030000001C0000FF3F00E8
S11307C000FE7F0000C00F0000E07F0000E0C001D9
S11307D000400002004000080080001000000120DA
S11307E00000024000000840000070E00000C0FF6C
S11307F00000007E0000C0FF0F0080FF1F0000818A
S113080000000002010000040200000804000010BF
S113081008000060180000801F0000001E00000097
S1130820F0030000F81F0000387000001080000082
S11308301000020020000400400038008000D000B6
S113084000033001001C380200F03F0400801F0048
S113085000F0FF0300E0FF0700402000008040009C
S113086000008100000002010000040E000018FED8
S11308700000E087030080070400000F0300003F2E
S11308800C000063300000C2400000048300000834
S1130890060100100C0200601804008063040000CC
S11308A0C20F0000000F000002000000040000005E
S11308B00800000010000000E0FF0700C0FF0F0068
S11308C0800000000001000000020000000400009D
S11308D000F87F0000F0FF0100000006000000089F
S11308E0000000100000002000000040000000C0D4
S11308F00000F8FF0000F0FF000020000000C0032B
S11309000000003F000000F0030000001F00000092
S1130910F0000000C0010000F00000007C000000B6
S11309201F00008007000000010000007E0000009E
S1130930FC07000000FE000000C0030000C0070028
S113094000FE0000801F0000003F000000F00700D0
S113095000007E000000C0010000F00300E07F0002
S113096000C00F00008000100000033000000E38AB
S11309700000701C0000C00F0000000E0000007E8C
S1130980000000C7030080030E00000138000000CF
S11309904000000400000018000000F00000008087
S11309A0070000001E000000F01F0000C03F000010
S11309B0E0000000E00000007000000030000000D3
S11309C02000000040000C0080001C0000012E00EC
S11309D000024E0000048700008803010090030217
S11309E000E0010400C00108008000100000FFFFC7
S11309F00100FEFF030004000400080008003000AA
S1130A00000080010000000E0000003000000080A3
S1130A10010000000E000000300000008001001002
S1130A2000100020002000C0FF7F0080FFFF0000B6
S1130A3080010000C00100007000000038000000C8
S1130A4070000000000300000038000000C0000037
S1130A500000000100000002000000040000000883
S1130A600000001000000020000000400000008092
S1130A700000000001000300000006000000080060
S1130A8000002000000040000000000807000038BB
S1130A901F000018330000104200002084000040B2
S1130AA00801008011010000FE070000F80F00801B
S1130AB0FF1F0000FF1F0000202000002080000016
S1130AC040000100800002000007060000FC07004F
S1130AD000E0030000C0070000E03F0000E0E00089
S1130AE00040000100800002000001040000040432
S1130AF0000038060000C0070000E03F0000E0E00E
S1130B000000400001008000020000010400000415
S1130B10040080FF1F0000FF3F0000800F000080E2
S1130B207F000080C9000080110300002104000040
S1130B30420800008410000010310000E03300007F
S1130B40002700004000000080000000C0FF0700F4
S1130B50C0FF0F0080040000000900000002000034
S1130B60000000020000E70E0000FF1300006324F1
S1130B700000824800000491000018230100F8439B
S1130B8002009083070000000600F0FF0300E0FF6E
S1130B900700000800000008000000080000001022
S1130BA00000006000000080FF010000FE03002040
S1130BB0FF070040FE0F000000800000F9FF010065
S1130BC0F2FF0100FCFF0000F8FF0100003000000C
S1130BD0003000000030000000F0010000300F0081
S1130BE0003038000020C0000000000100F0FF03C6
S1130BF000E0FF070000FE0F0000FC1F00001000D3
S1130C0000001000000020000000C000000000FFF1
S1130C10030000FC070000040000000400000008BA
S1130C2000000030000000E0FF000000FF01008031
S1130C30FF030000FF0700000C0000000800000094
S1130C4018000000300000006000000080FF010078
S1130C5000FE030000F8000000FC0700001C180060
S1130C6000082000001040000020800000C0800127
S1130C700000FF010000F8000000FE7F0000FCFF00
S1130C800000101800001040000020800000400008
S1130C9001008081030000FE030000F0010000E079
S1130CA0030000F01F00007070000020800000406E
S1130CB0000100800002000002030000FC7F00002D
S1130CC0FCFF0000F83F0000F07F0000C0000000BF
S1130CD0C0000000800000000001000000100200BD
S1130CE000780C00009831000010430000208400BC
S1130CF000C01801008031020000E60300009003E8
S1130D0000000400000008000000FE3F0000FCFF9B
S1130D10000040000100800002000000040000FE0A
S1130D20030000FC0F000000300000004000000041
S1130D30800000000001000080010000FF070000A7
S1130D40FE0F00000400000078000000C00700004F
S1130D50007C000000C0010000C0030000F8000097
S1130D60003E0000000C00000018000000F001002C
S1130D7000001F000000F0010000C0030000F800A4
S1130D8000003E0000007C000000C0070000007C62
S1130D90000000F00000007C0000800F0000000351
S1130DA0000000020800000C180000381C0000C0FD
S1130DB00F0000000E0000003F000000C30100000F
S1130DC00106000000080000048000007800010013
S1130DD0C0070200007C030000C0030000E0000024
S1130DE000780000001E000000040000000830002D
S1130DF0001070000020B8000040380100801C0280
S1130E0000001F0400000E08000004100000000190
S1130E10000000070000F8FB0300F8E30F001000D7
S1130E20100020002000C0FF0F0080FF1F00000101
S1130E3000010002000200FCF10700F0F7070000C7
S1130E403800000020000000C0000000C0000000C6
S1130E50C00000008001000000060000000800003F
S1130E60003000000040000000C0000000C000008E
S1130E7000DC3F0000F87F0000C800000090000084
S1130E80002000000040000000800000000003007B
S1130E900000FC3F0000F87F000070000000A0018B
S1130EA0000060F20300C0F4070080360800003E32
S1130EB010000000200000FC7F0000F8FF0000E0AC
S1130EC001000060020000C0E4070080EF0F000092
S1130ED0621000007E20000000400000F8FF0000C7
S1130EE0F0FF0100C0FF030080FF070080E1030062
S1130EF000F1000000F20100004402000088030039
S1130F000030000000C0FF030080FF070000FE0F58
S1130F100000FE1F0000060F00008C030000B00755
S1130F20000060090000601C0000C000000000FF19
S1130F300F0000FC1F00001800000078000000985B
S1130F4078000030F90100E011020080F907008008
S1130F50F90700009F00000000030000000C0000DF
S1130F6000300000F0FF0100E0FF0300001C00005F
S1130F7000E00000000E07000016300000244000CE
S1130F8000F8FF0000E0FF0000C00000008038000F
S1130F90008058000000B1000000C20F000004608F
S1130FA0000018800000F0FF0100C0FF01000030C5
S1130FB00000009300000022010000C23F00000472
S1130FC07F0000086000001060000020E00100C005
S1130FD0C0040000FF090000FE1E0000001800000D
S1130FE030000000D000000030F9010060FA030076
S1130FF0C01B0400001B0800000C100000082000A7
S113100000F87F0000DCFF000018000000C00300AF
S113101000C004000080C90F0000DF1F0000CC20C6
S11310200000CC400000F080000040000100C0FF40
S11310300300E0FE0700C000000000EE0F0000FE09
S11310403F0000644800004890000010C0000020E9
S1131050000000C080030000FF090000FE13000030
S1131060003E00000008000000200000F0FF010026
S1131070E0FF030080FB030080FF0F000019120053
S113108000122400000430000008000000300018A2
S113109000C0FF790080FFD7000000E801000010C5
S11310A0020000200400FC7F0F00F87F0E0000C047
S11310B00000004002000080E40000F76F0300FF1E
S11310C0CF06003280050024000700080006001047
S11310D00018002000600080FFFF0100FFFF0100F6
S11310E0000C00000024070000480E0070FF3400CC
S11310F0F0FF280020037C004002380080008001BB
S11311000001C0000006000300F8FF0F00F0FF1FFD
S1131110000000F000800120018033C00180B5E0B0
S1131120030029010F00D2030C002C781700D08093
S11311304A00A0FFF50060FEF1008007000080096E
S1131140000000130000003A000000987F0000989F
S1131150FF0000F0790000C01C0000000600000041
S11311600300000003000000FE3F0000F87F0000C1
S1131170E0FF0000E0FF010060000300C018010070
S1131180005B010000B6010000C61D00000C7C00DD
S113119000F09F0000C03F010000E001000080005B
S11311A0000000020000FF1F0000FE3F0000B83FE7
S11311B00000F8FF000090210100204102004000DF
S11311C00300800000000003000000FC3F0000F862
S11311D07F00000020000000E0000000600300C069
S11311E0FF0400807F0D0000000E0000FC3F0000A3
S11311F0F87F000018C0000010470000207B0000AA
S113120040760000803800000003000000FC3F002E
S113121000F87F0000E0FF0000E0FF010060000331
S113122000C0180100005B010000B6010000C60107
S113123000000C000000F0FF0000C0FF0100C0FD32
S11312400100C0FF0700800C090000091E00000215
S11312501000000400000018000000E0FF0100C0BE
S1131260FF03008003000080050000000900000067
S1131270FE3F0000F87F0000001E00000003000095
S113128080010000800000008001000000FF1F00BA
S113129000FC3F0000383F000050FE0000B0000199
S11312A000200102004002040080050800001A101A
S11312B00000E43F0000CC3F000070000000B000DC
S11312C0000020010000C0FF070000FF0F00000025
S11312D00E0000000600000006000000040000F0FC
S11312E0FF0000E0FF03000060060000800700002C
S11312F00E0000001600000024000000F87F00002B
S1131300E0FF0100000002000000040000000800EB
S1131310000010000000200000FC7F0000F87F00A7
S113132000E0000000600100004002000080FF07B0
S11313300000FE1F000000200000004000000080AC
S113134000000000010000000200FFFF0700FEFF94
S1131350070000FE1F0000FE3F000024700000781C
S11313603800000018000000E000000000070080C2
S1131370FF0F0000FF1F0000FC3F0000FC7F000087
S113138048E00000F07000000030000000C00100E0
S113139000000E00FCFF1F00F8FF3F0000380000B3
S11313A0005800000090000000E0FF030080FF07E9
S11313B00000C0070000F80000003E0000007C00B0
S11313C00000800F000000F00000E0FF0300C0FFF9
S11313D0070000070000000B00000012000000FCE2
S11313E07F0000F0FF000000F80000001F0000C0B4
S11313F0030000800F000000F0010000001E00F058
S1131400FF7F00E0FFFF000000C00000004002007A
S11314100080040000F70F0000FF0F0000320000FE
S1131420002400000008000000100000006000001C
S11314300080FF070000FF0F00000E0F00001E3F9A
S1131440000024420000F8FF0000E0FF000000302C
S1131450000000C000000000030000FF1F0000FEA9
S11314603F0000783C000078FD00001005010020DA
S11314700A020080130400000008000000100000AD
S1131480FE3F0000FC3F000060000000E0000000A0
S1131490600100004002000080040600001B1200EE
S11314A00026240000C87F0000187F0000E0FE0032
S11314B000E0FF03004086040080040F00000108E0
S11314C00000020000000C000000F0FF1F00E0FF1D
S11314D03F00C0FC0100C0FD07008018090000198E
S11314E01E000022100000C4000000180E0000E0DE
S11314F0FF0100C0FF03000000030000000900001A
S113150000120000DC3F0000FC3F0000C8000000A7
S11315109000000020000000400000008001000056
S113152000FEFF0300FCFF07001800000018000085
S113153000100000002080010040800400800009A9
S11315400000FF1F0000FC1F0000F87F0000F0FFF8
S11315500000307C0000201E0000403E0000804857
S11315600000007100000006000000FC7F0000FE87
S1131570FF00000C000000C0010000C00200008059
S113158004000000FF0F0000FC3F000000400000CA
S113159000870000001A0100003C02000040040023
S11315A080FF0F0000FF0F00000003000080030015
S11315B000307F000070FF010020460200408607D3
S11315C00080080400003100000086030000FC7F56
S11315D00000FEFF00000C000000C0010000C0027B
S11315E000008004000000FF1F0000FC3F0000001A
S11315F00700000003000060030000200300004017
S113160006000080FF0F0000E61F00001C00000021
S11316102C00000048000000F0FF0100C0FF0300A0
S11316200080030000C0010080E300000005070003
S1131630000A380000FCFF0000F8FF01003C000035
S11316400080F9030080FB0F00009110000062216C
S11316500000044100000880000030000100C0FFC9
S1131660030080FF030000F3070000B51F00002AF9
S1131670220000944700002880000050000100E090
S1131680000200C0FF0700C0FF0700800000000048
S11316900C0000003C000000C8000000F001000045
S11316A0C00200000002040000060C0000FF1F003E
S11316B000FC1F000030180000904800002091003A
S11316C00080C3010000040200000C0400001E0F8F
S11316D000000C0E00600000002001000040020029
S11316E000000700000008000000180000001800B7
S11316F0000018000000100000000030000000305E
S113170000000020000000400000008000000000F5
S1131710FF1F0000FC3F000018000000180000003C
S113172010000000200000004000000000FF0F0037
S113173000FE1F003000000050000000A000000068
S1131740200100004002000080040000000A0000A4
S113175000140000003000000060000000C0000021
S11317600040010000400200008004000000090065
S11317700000120000002800000060000000F000DB
S11317800000E00100000003000000050000000963
S1131790000000120000002400000050000000E0DF
S11317A000000020010000400200000003000000CF
S11317B00C00000014000000240000004800000099
S11317C090000000400100000003000080070000BA
S11317D000080000001E000000000080030000005C
S11317E0050000003E0000007C00000038000000FE
S11317F050000000E003000000040000800F00001F
S113180000070000000A0000001C00E0FF0300C005
S1131810FF070080200800C0FF7F0080FFFF00005A
S11318200441000018C50000E0FB0000E0FF0100D7
S1131830C0FF0700000009000000120000001800AB
S113184000FC3F0000F8FF00000020010000C0037E
S1131850000000000080FF070000FF1F00000024BC
S1131860000000480000006000300000007000002C
S113187000A000000060FFFF07C0FCFF1F80010004
S113188024000600480008006000F0000000500238
S113189000002003000040F0FF0780FBFF1F001E34
S11318A0002400000048000000600078000000C030
S11318B001000080030000C003000080F8FF0F0057
S11318C0FFFF3F001E004800000090000000C00021
S11318D000C0000000400000008000000000010083
S11318E0000002000000F8FF0F00F0FF1F00E001FD
S11318F0000060020000C007000080010000000E2C
S113190080000006800100FCFF0100F0FF01E00000
S11319100000200100002001000040040000800CB1
S1131920000000150000001B000000020000000F72
S11319300000001E0000002C00000068000000B041
S1131940000000000100000002000000060000008A
S1131950070000000600000030000000B000000096
S1131960A00100008001000080000000000B0000C6
S1131970000C00000010000000180000001000001F
S11319800020000000F0010000E00300000001005E
S11319900000020000003800000050000000E000D9
S11319A00000400000000001000080010000000170
S11319B000000000003C000000FE0100000C0300D9
S11319C0000C0C0000081000001020000020400053
S11319D00040800000808101000086010000F801C1
S11319E00000E0030000E00C000040200000405C28
S11319F0000080A8000000D1010000E20100008482
S1131A0009000010180000E01F0000001F00000281
S1131A100000000C000000F8FF0000E0FF030000DD
S1131A2000040000F0090000F01700002029000065
S1131A30405E0000809100000001010000FE0300F0
S1131A4000FC030000F0070000301C00002024000C
S1131A50004048000080770000000E0000000200F3
S1131A60000004000000F80F0000E01F0000800FD9
S1131A700000803F000080C10000000101000072EE
S1131A80020000B405000068070000900B0000206D
S1131A90100000606000007480000070000000000E
S1131AA0F8000000F8030000180C000010100000FB
S1131AB02C27000068590000D8720000E0B900002B
S1131AC000020100000606004006080000070000AE
S1131AD00007000000FC010000C07B000000920031
S1131AE00000A2030000C405000008080000101054
S1131AF000002030000080200000007F0000007CF7
S1131B00000000FC0100000C0700000809000010A0
S1131B10120000E01D0000800100008000000000B1
S1131B2081010000FE030000F8030000FF0700002D
S1131B30FF03000003000000001F0000007F0000FE
S1131B400083010000C203000084000000080300B9
S1131B5000900F00002035000040520000C0FC003F
S1131B6000C8F00000E000000000F0010000F807E9
S1131B70000070180000602C00004054000080C970
S1131B80000000F30000009C00000078000000B892
S1131B90030000300C0000C030000080410000F859
S1131BA001004E414E494E495459494E46CDCCCC84
S1131BB03D0AD7233C17B7D13877CC2B329595E61D
S1131BC0241FB14F0A000020410000C84200401CFD
S1131BD04620BCBE4CCA1B0E5AAEC59D74001124CF
S1131BE01FBECFE5D8E0DEBFCDBF12E0A0E6B0E077
S1131BF0EEE4F7E702C005900D92AE30B107D9F7D5
S1131C0022E0AEE0B2E001C01D92AC3CB207E1F7C5
S1131C100E94102B0C94A53B0C94000090931E0280
S1131C2080931D02FC013296E491E0931B02FC01B7
S1131C303396849180931C0208952F923F924F9281
S1131C405F926F927F928F929F92AF92BF92CF9248
S1131C50DF92EF92FF920F931F93CF93DF93CDB751
S1131C60DEB72A970FB6F894DEBF0FBECDBF209122
S1131C701D0230911E02F901A591B491F901359626
S1131C80949131961491682F70E0492F50E0FB0134
S1131C903796E41BF50BE20FF31F04910C831982B2
S1131CA0E0917800F0917900F887EF838A30A1F40D
S1131CB0F090610000911C02E0910E02F0910F027D
S1131CC0F09EE00DF11D1124F0930F02E0930E023B
S1131CD01092110210921002891708F464C11817A7
S1131CE008F463C1AB2B09F462C10C81002309F42D
S1131CF060C190911302992321F000911B020C837F
S1131D0019C09CE2980F973030F099E1980F963003
S1131D1010F0813D79F490916200E0911002F0910D
S1131D2011020C81099FE019F1091124F0931102A9
S1131D30E093100280538A3030F4F901E41BF50B70
S1131D40F79604910C8380916200FC81EF2FF0E000
S1131D50FA87E987E0911002F09111020C81809FCB
S1131D60E00DF11D1124E03FF105A0F09091610018
S1131D7080911C02E0910E02F0910F02989FE00DF9
S1131D80F11D1124F0930F02E0930E021092110240
S1131D9010921002641B750B1616170694F4A0E03B
S1131DA080E090E0EA2FF0E03796E20FF31FE49131
S1131DB08E0F911DAF5FEA2FF0E0E617F70794F35B
S1131DC002C080E090E060911C02689F9001699FCE
S1131DD0300D1124812F90E0841B950B0796880FFA
S1131DE0991F880F991F880F991F820F931F9C01B9
S1131DF0369527953695279536952795482F47701C
S1131E00442E0C81002309F4ABC01B821A82812C5E
S1131E10912CC90101969E838D83212C522C9AC04A
S1131E2097E0941520F4AFEF8A1A9A0A422CE091B5
S1131E301D02F0911E028D819E81880D991DE80F6F
S1131E40F91FE491E98320916200EA81FB812E9FCE
S1131E5050012F9FB00C1124809110029091110217
S1131E60A80EB91E80916100C0900E02D0900F029E
S1131E70389EC00CD11C1124222309F45BC001E05C
S1131E8010E0042C02C0000F111F0A94E2F7622C28
S1131E9048C0898190E080239123892BD1F08091DF
S1131EA0630090916400909379008093780080910E
S1131EB01602882339F0B701C601870D911D0E94CF
S1131EC0181924C0B601670D711DC7010E941819A5
S1131ED01DC0809112028823C9F080911402909150
S1131EE015029093790080937800809116028823DC
S1131EF039F0B701C601870D911D0E94181906C05B
S1131F00B601670D711DC7010E9418197394809161
S1131F106100781608F4BDCF63948091620068165E
S1131F2048F4809161008823B9F3752C7501E60C9F
S1131F30F11CAFCF4394339480911C02381608F4FB
S1131F406FCF2A813B812F5F3F4F3B832A830C81D4
S1131F50201730F480911C02882399F3312C60CF30
S1131F602F81388530937900209378005091620056
S1131F7040916000E985FA855E9FC0015F9F900DE6
S1131F801124840F911D2091100230911102820FAF
S1131F90931F9093110280931002842F0C81059F4C
S1131FA0800D112407C080E005C080E003C080E0FC
S1131FB001C080E02A960FB6F894DEBF0FBECDBFF5
S1131FC0DF91CF911F910F91FF90EF90DF90CF9011
S1131FD0BF90AF909F908F907F906F905F904F9045
S1131FE03F902F900895AF92BF92CF92DF92EF92DD
S1131FF0FF920F931F93CF93DF9300911D021091D3
S11320001E02F8013596C4903196B490DC01EC912F
S1132010EE23A9F1D0901302A0901B0260916200FC
S113202070E0A69EE001A79ED00D112420916000CF
S113203030E0119680E090E0EC2CF12CDD2019F0DA
S11320408C0F9D1F16C0EC1550F0BE1650F0F0E03A
S11320503796EE19FF09E00FF11FE49103C0EA2D52
S113206001C0EA2DE69FA001E79F500D1124840FC3
S1132070951F820F931FED91E111E0CF02C080E024
S113208090E0DF91CF911F910F91FF90EF90DF903F
S1132090CF90BF90AF9008950F931F93CF93DF938A
S11320A0EC018881882369F010E000E00E941D0E95
S11320B0080F1F5FFE01E10FF11D80818111F6CF32
S11320C001C000E0802F90E0DF91CF911F910F912C
S11320D008958F929F92AF92BF92CF92DF92EF9228
S11320E00F931F93CF93DF93EC016B014A015901C6
S11320F0C8010E94F30FAC18BD0820911C02A21A5B
S1132100B108B694A794CA0CDB1C21E0E21621F0B6
S113211022E0E21651F00FC08C1A9D0A881A990A1F
S113212096948794C80DD91D06C08815990518F48E
S1132130E401C81BD90BD0931102C0931002D092B2
S11321400F02C0920E02C8010E944C10DF91CF9181
S11321501F910F91EF90DF90CF90BF90AF909F9021
S11321608F9008952F923F924F925F926F927F9239
S11321708F929F92AF92BF92CF92DF92EF92FF9293
S11321800F931F93CF93DF93CDB7DEB72C970FB682
S1132190F894DEBF0FBECDBFFA01E81BF90B6F0147
S11321A022F4CC24DD24CE1ADF0AF901E61BF70B56
S11321B01F0122F4222433242E1A3F0A7C015B01DE
S11321C04817590728F041E050E05E834D8304C06E
S11321D0AFEFBFEFBE83AD832617370728F0E1E0EA
S11321E0F0E0F887EF8304C02FEF3FEF38872F83A9
S11321F0C214D3040CF45BC02101662457FC609420
S1132200762C440C551C661C771CA601662757FDCA
S11322106095762F441A550A660A770ADD200CF475
S11322209AC09101220F331FA901662757FD6095BB
S1132230762F49875A876B877C872C183D08220C98
S1132240331C9101442737FD4095542F29833A8349
S11322504B835C83ED80FE808701080F191F812C5E
S1132260912CB501C8018E199F090E941819772075
S11322704CF449855A856B857C85440E551E661E33
S1132280771E0CC069817A818B819C81460E571E12
S1132290681E791E8F819885A80EB91E9FEF891A32
S11322A0990A0E0D1F1DC814D904DCF654C046014A
S11322B0AA2497FCA094BA2C880C991CAA1CBB1CB9
S11322C0C101AA2797FDA095BA2F881A990AAA0ACC
S11322D0BB0A33200CF43FC0C601880F991F9C0130
S11322E0442737FD4095542F29833A834B835C83DD
S11322F0C218D3082601440C551C662457FC60946C
S1132300762CCF80D8848601060F171F18861F826B
S1132310B8016C197D09C7010E941819BB204CF43F
S113232049815A816B817C81840E951EA61EB71E3D
S113233008C0840C951CA61CB71C6D817E81E60E1A
S1132340F71E8F819885019698878F830C0D1D1D2C
S113235028163906ECF62C960FB6F894DEBF0FBE9D
S1132360CDBFDF91CF911F910F91FF90EF90DF9040
S1132370CF90BF90AF909F908F907F906F905F9021
S11323804F903F902F900895AF92BF92CF92DF92DB
S1132390EF92FF920F931F93CF93DF935C017B0126
S11323A0EA01690100917800109179009B010E9473
S11323B0211900917800109179009601AE01B601BF
S11323C0C5010E94211900917800109179009601AD
S11323D0A501B701C5010E9421190091780010914F
S11323E079009601AE01B701CE010E942119DF9157
S11323F0CF911F910F91FF90EF90DF90CF90BF90FE
S1132400AF9008952F923F924F925F926F927F9276
S11324108F929F92AF92BF92CF92DF92EF92FF92F0
S11324200F931F93CF93DF93CDB7DEB72C970FB6DF
S1132430F894DEBF0FBECDBF98878F832B013A017E
S113244019011C870B87EE2009F4C1C0480181E003
S113245090E07C01E01AF10A009178001091790073
S113246021503109280D391D6F5F7F4F6819790993
S11324708F8198850E94211903E010E0CC24C39435
S1132480D12CA12CB12C5C824B8226017A826982E8
S113249037013A86298618012DC08F8198858819BD
S11324A099090091780010917900C984DA84CA0CE2
S11324B0DB1C9601AC01EB80FC80EA18FB08B70139
S11324C00E94211989819A81880D991D00917800B3
S11324D0109179009601AC01B7010E9421198D80F9
S11324E09E802FEFA21AB20A3FEF431A530A42E02A
S11324F0240E311C6501A814B90431F1009178004F
S113250010917900E984FA84E80CF91C97014F8151
S113251058858B819C81881999099E838D83BC0180
S1132520CA018A199B090E9421190091780010910F
S11325307900970149815A814A0D5B1D6D817E8125
S113254089819A810E942119772064F4620C731C9A
S11325508414950434F64B805C8069807A802984E5
S11325603A8435C0F4013197FE83ED83C60188199E
S11325709909880F991F0596680E791EE415F505CB
S11325800CF08BCF4B805C8069807A8029843A84FC
S11325905601A20CB31C7201EC18FD088F819885BA
S11325A08819990900917800109179009501AC017E
S11325B0B7010E942119C401860D971D009178006E
S11325C0109179009501AC01B7010E9421198B8407
S11325D09C8481E090E05C01A818B9080F2EF3E018
S11325E0CF2ED12CF02DEE24E394F12C00E010E05A
S11325F09A8289825A86498626017E826D823501B5
S113260030C0009731F129813A818217930709F18B
S1132610C984DA84CE18DF08B601AF80B884A21A60
S1132620B30AC5010E9418194701820C931CB40116
S1132630C5010E941819B601CD80DE8049815A81F6
S1132640C40ED51EC6010E941819B401C6010E9409
S113265018190F5F1F4F5FEFE51AF50A82E0480E65
S1132660511CC984DA84E981FA81CE1ADF0AB601E1
S11326708F809884801A910AC4010E941819B601A7
S1132680CD80DE80C00ED11EC6010E941819A9801B
S1132690BA80A20CB31CB501C4010E941819B5017B
S11326A0C6010E941819772024F4C701640C751C14
S11326B010C0C701980149815A81241B350B220F90
S11326C0331F2B5F3F4F620E731E415051095A83D3
S11326D04983E981FA81E817F9070CF092CF49841C
S11326E05A846D807E80B2012B853C85621B730BFE
S11326F000917800109179009B01A3018F81988546
S11327000E9421196B857C85620D731D00917800F0
S1132710109179009B01A3018F8198850E94211952
S11327208F8198854B855C85841B950B009178007F
S1132730109179009101AC01B2010E9421198B859D
S11327409C85860D971D0091780010917900910168
S1132750AC01B2010E9421192C960FB6F894DEBF89
S11327600FBECDBFDF91CF911F910F91FF90EF90DE
S1132770DF90CF90BF90AF909F908F907F906F909D
S11327805F904F903F902F9008952F923F924F92D9
S11327905F926F927F928F929F92AF92BF92CF92ED
S11327A0DF92EF92FF920F931F93CF93DF93CDB7F6
S11327B0DEB72D970FB6F894DEBF0FBECDBF3C0138
S11327C02B8781E090E06C01C41AD50A1B015B01E0
S11327D0430123E030E03C832B8344244394512C75
S11327E05D874C877E826D8278876F83A20141501A
S11327F051095A8749875B85552309F43FC00091E5
S11328007800109179006F8178858C859D85680F9B
S1132810791F9B01A401C3010E9421190091780032
S1132820109179006F817885EC85FD856E1B7F0B97
S11328309B01A401C3010E94211900917800109109
S1132840790095014D815E818C859D85480F591FC6
S11328505A834983B501ED80FE80E81AF90AC7015D
S11328600E94211900917800109179009101498109
S11328705A81B101C7010E94211938C00F811885FE
S1132880EC85FD850E0F1F1FB801C4010E941819A5
S1132890B501ED80FE802C853D85E20EF31EC70157
S11328A00E941819B801C3010E941819B5010D81BD
S11328B01E814C855D85041B150BC8010E941819E7
S11328C0B101C7010E941819EF80F8848C859D8599
S11328D0E81AF90AB701C4010E941819B701C30123
S11328E00E941819B101C8010E941819DD2034F49E
S11328F0C201EB81FC81CE0EDF1E11C0C20129850D
S11329003A854C855D85241B350B220F331F2B5FC5
S11329103F4FC20ED31E415051095D874C875FEF74
S1132920451A550AEB81FC813296FC83EB83F1E076
S11329306F1A71082FEF821A920A3FEFA31AB30A93
S113294041E0241A3108EC85FD85E817F9070CF0FD
S11329504DCF2D960FB6F894DEBF0FBECDBFDF91DD
S1132960CF911F910F91FF90EF90DF90CF90BF9088
S1132970AF909F908F907F906F905F904F903F901B
S11329802F90089581E0089581115EC0109229026C
S1132990109228021092200210921F021092230219
S11329A010922202109225021092240281E0809358
S11329B02702109226028093210210925A02E0917B
S11329C07000F091710081E090E0AC01009066002D
S11329D002C0440F551F0A94E2F79C010090650061
S11329E002C0220F331F0A94E2F7242B2083E091C4
S11329F07400F09175007083E0917600F091770097
S1132A006083EEE6F0E0A081B1819C010090670054
S1132A1002C0220F331F0A94E2F72C930190F08135
S1132A20E02D40819C010090680002C0220F331FFA
S1132A300A94E2F70090690002C0880F991F0A9473
S1132A40E2F7822B842B8083089581110EC040917C
S1132A5028025091290220911F023091200281E026
S1132A604217530719F480E0089580E00895811116
S1132A706CC080915A02815080935A028091210245
S1132A80811133C080915A02863078F580912602F4
S1132A908111FCCF81E18093260281E080932102A1
S1132AA080912702882309F110922702E0916E0099
S1132AB0F0916F00408181E090E09C0100906A00F9
S1132AC002C0220F331F0A94E2F7242B2083E091E3
S1132AD07200F0917300208100906B0002C0880F97
S1132AE0991F0A94E2F7822B808320912802309167
S1132AF0290280911F02909120022817390739F189
S1132B00E0912802F0912902E65DFD4F8081E09179
S1132B102802F0912902E65DFD4F108220912802DF
S1132B20309129022F31310558F420912802309137
S1132B3029022F5F3F4F30932902209328020895E2
S1132B401092290210922802089580E0089580E0EE
S1132B500895CF93DF9390E09C01220F331FF90176
S1132B60E15EFD4F40815181280F391FD901AA0F21
S1132B70BB1FAA0FBB1FA459BF4F0D90BC91A02D22
S1132B802C91DC01AA0FBB1FA295B295B07FBA2786
S1132B90A07FBA27A40FB51FA65DBD4F2C9320813B
S1132BA031812F31310560F4FC01EE0FFF1FE15E2E
S1132BB0FD4F208131812F5F3F4F3183208307C038
S1132BC0FC01EE0FFF1FE15EFD4F11821082FC013C
S1132BD0E65AFD4F20812F5F2083FC01EF5DFD4FFE
S1132BE02081213009F04DC0FC01E65AFD4F2081BF
S1132BF02B3108F446C023E1FC01EA5DFD4F20833C
S1132C00FC01EF5DFD4F1082FC01E95DFD4F208169
S1132C102223B9F1FC01E95DFD4F1082FC01EE0FA6
S1132C20FF1FE80FF91FEE0FFF1FEE0FFF1FE45900
S1132C30FF4FC281D3814881DC01AA0FBB1FAA0FB9
S1132C40BB1FAA0FBB1FA81BB90BAB59BF4F81E019
S1132C5090E09C0115960C90159702C0220F331F2B
S1132C600A94E2F7242B28830680F781E02D208143
S1132C7016960C9002C0880F991F0A94E2F7822BD3
S1132C808083DF91CF910895CF93DF9390E0FC018F
S1132C90EA5DFD4F20812223A1F0FC01EE0FFF1F0E
S1132CA0E80FF91FEE0FFF1FEE0FFF1FE459FF4F50
S1132CB0A081B181FC01EA5DFD4F80818C9310827B
S1132CC074C09C01220F331FF901EE5DFD4F40815A
S1132CD05181F901EC5DFD4F208131814217530789
S1132CE0C1F1FC01EE0FFF1FDF01A80FB91FAA0FEE
S1132CF0BB1FAA0FBB1FA459BF4F0D90BC91A02DA1
S1132D00EE5DFD4F20813181EC01C295D295D07FDB
S1132D10DC27C07FDC27C20FD31FC65BDD4F2881B1
S1132D202C93208131812F30310558F4FC01EE0FB2
S1132D30FF1FEE5DFD4F8081918101969183808319
S1132D4034C0FC01EE0FFF1FEE5DFD4F11821082B7
S1132D502CC0FC01E95DFD4F21E02083FC01EE0F56
S1132D60FF1FE80FF91FEE0FFF1FEE0FFF1FE459BF
S1132D70FF4F0280F381E02D4081DC01AA0FBB1FCD
S1132D80AA0FBB1FAA0FBB1FA81BB90BAB59BF4F80
S1132D9021E030E0C90115960C9002C0880F991FFC
S1132DA00A94E2F7809584238083DF91CF9108957C
S1132DB01F920F920FB60F9211242F933F934F93AC
S1132DC05F936F937F938F939F93AF93BF93EF938F
S1132DD0FF9380E00E94A915FF91EF91BF91AF91FD
S1132DE09F918F917F916F915F914F913F912F911F
S1132DF00F900FBE0F901F9018951F920F920FB651
S1132E000F9211242F933F934F935F936F937F936C
S1132E108F939F93AF93BF93EF93FF9380E00E94B0
S1132E204416FF91EF91BF91AF919F918F917F9144
S1132E306F915F914F913F912F910F900FBE0F9023
S1132E401F9018950F930061202B422B642B862B27
S1132E508DB9BD9ABF9A6E9A0F9108956E98089590
S1132E6021E02093170290935E0280935D021092FA
S1132E705C0210925B021092600210925F021816BC
S1132E80190659F1E0915F02F0916002E60FF71F15
S1132E9080818FB980915F02909160020196909336
S1132EA0600280935F02779BFECF8FB1E0915B025B
S1132EB0F0915C02E60FF71F808380915B02909192
S1132EC05C02019690935C0280935B0220915D0208
S1132ED030915E0228173907A9F610921702089557
S1132EE056E646E006C0000021503109211531059F
S1132EF0D1F7019718F0252F342FF5CF0895939823
S1132F0092988BBB15BA9598959A939A089593982D
S1132F10929A8BBB95BB9598959A939A0895CF9363
S1132F20DF93EB010E947F17CE010E948717DF9188
S1132F30CF910895939892988BBB15BA9598959ACA
S1132F401ABA14BA9498000083B390E0982F882793
S1132F5039B3949A939A2FEF2ABB24BB832B0895F9
S1132F608FEF85BB8BBB8ABB84BB939A929A959A4D
S1132F70949A97988B9A8A9A8D9A8C9A8F9A84E1CC
S1132F8090E00E947017979A84E190E00E94701775
S1132F9008950E94B01780E00E949A172FEF2ABB71
S1132FA024BB8BBB95BB80E00E947F1781E090E03F
S1132FB00E9487178FE090E00E94701783E00E94C0
S1132FC07F178CEA9AEA0E9487178CE00E947F1789
S1132FD082E090E00E9487178DE00E947F178AE0CC
S1132FE090E00E9487178EE00E947F1780E09CE2A9
S1132FF00E9487178EE10E947F1788EB90E00E9461
S113300087178FE090E00E94701781E00E947F177D
S11330108FE39BE20E94871782E00E947F1780E083
S113302096E00E94871780E10E947F1780E090E07D
S11330300E94871781E10E947F1780E390E60E9437
S1133040871784E190E00E94701785E00E947F1743
S113305080E090E00E94871786E00E947F1780E05E
S113306090E00E94871786E10E947F178CE19FEE13
S11330700E94871787E10E947F1783E090E00E94F7
S1133080871787E00E947F1783E392E00E948717E7
S11330908BE00E947F1782E193E50E9487178FE0FF
S11330A00E947F1780E090E00E94871784E190E0FF
S11330B00E94701781E40E947F1780E090E00E94D4
S11330C0871782E40E947F1780E090E00E948717B0
S11330D088E40E947F1780E090E00E94871789E4CB
S11330E00E947F178FE391E00E94871784E40E9477
S11330F07F1780E09FEE0E94871785E40E947F1768
S113310080E090E00E94871786E40E947F178FE397
S113311091E00E94871784E190E00E94701780E399
S11331200E947F1787E097E00E94871781E30E943F
S11331307F1784E097E00E94871782E30E947F173D
S113314084E092E00E94871783E30E947F1781E066
S113315092E00E94871784E30E947F1783E092E045
S11331600E94871785E30E947F1784E092E00E9403
S1133170871786E30E947F1784E092E00E948717F6
S113318087E30E947F1782E095E00E9487178AE315
S11331900E947F1782E093E00E9487178BE30E94CE
S11331A07F1780E095E00E94871784E190E00E94F9
S11331B070170895CF93DF93EB01BC018EE40E9456
S11331C08F17BE018FE40E948F1782E20E947F173F
S11331D0DF91CF910895DF92EF92FF920F931F93A7
S11331E0CF93DF93EC018B01D42E790184E40E9408
S11331F07F1780E090E09D2D8C2B9D2B0E948717DC
S113320085E40E947F17C8010E94871786E40E9404
S11332107F17C7010E948717B801CE010E94DA18F0
S1133220DF91CF911F910F91FF90EF90DF90089560
S11332300E94DA1880917800909179000E94871793
S113324008956F927F928F929F92AF92BF92CF9286
S1133250DF92EF92FF920F931F93CF93DF935C0162
S11332606B017A0149010E94EB188C149D04B0F0A3
S11332706A2C7B2C0DC0C8010E9487172196EC167E
S1133280FD06C8F78FEFC81AD80A8C149D0430F0D5
S1133290EA14FB04B8F3C62DD72DEDCF2FE331E0AC
S11332A04FEE50E060E070E080E090E00E94EB18A8
S11332B0DF91CF911F910F91FF90EF90DF90CF900E
S11332C0BF90AF909F908F907F906F9008950F93D1
S11332D01F938C012FE331E04FEE50E060E070E08B
S11332E080E090E00E9421191F910F910895809130
S11332F0690290916A02089580916B0290916C0228
S1133300089586B382FB882780F991E08927089580
S1133310AF92BF92CF92DF92EF92FF920F93CF932F
S1133320DF9380E9809361020F2EF2E6AF2EF2E084
S1133330BF2EF02DF50110820F2EF3E6CF2EF2E012
S1133340DF2EF02D80EDF60180830F2EF4E6EF2EB4
S1133350F2E0FF2EF02DF7011082C5E6D2E01882CC
S113336000E020E042E060E080E00E942217BC9A86
S1133370C49861E672E085E090E00E943017C49A38
S11333800E942E17F5018081F0E28F9FC001112465
S113339090936C0280936B0280916B0290916C020B
S11333A0F6012081269526952695822B90936C0212
S11333B080936B02F7018081F0E28F9FC00111249A
S11333C090936A028093690280916B0290916C02DF
S11333D02881269526952695822B90936C028093BE
S11333E06B02DF91CF910F91FF90EF90DF90CF9020
S11333F0BF90AF900895C49A0E9488190895EF92DF
S1133400FF920F931F93A0E0B0E040918E00509183
S11334108F0060919000709191007C018D01E41AFD
S1133420F50A060B170BA801970160918A007091A9
S11334308B0080918C0090918D000E941A3620910F
S113344086003091870040918800509189000E9445
S11334502A36CA01B90160567F4F8F4F9F4F1F9183
S11334600F91FF90EF900895EF92FF920F931F93A7
S1133470A0E0B0E04091820050918300609184000C
S1133480709185007C018D01E41AF50A060B170B77
S1133490A801970160917E0070917F008091800067
S11334A0909181000E941A3620917A0030917B001D
S11334B040917C0050917D000E942A36CA01B901D6
S11334C068587F4F8F4F9F4F1F910F91FF90EF9040
S11334D008954F925F926F927F928F929F92AF92D4
S11334E0BF92CF92DF92EF92FF920F931F93CF93ED
S11334F0DF93CDB7DEB760970FB6F894DEBF0FBE8B
S1133500CDBF2D833E834F83588727013801182D63
S11335100E94093420E836E948E15BE40E946E33F6
S11335202BED3FE049E450E40E940E3520E030E00A
S113353044E353E40E946E3369837A838B839C83D0
S11335400E94913569877A878B879C872BED3FE0B2
S113355049E450E4C301B2010E940E3520E030E09A
S113356044E353E40E946E332B013C010E949135E5
S11335706D877E878F87988B69817A818B819C8107
S11335800E946B3369837A838B839C83C301B2016A
S11335900E946B332B013C016D817E818F81988564
S11335A00E94093420E836E948E15BE40E946E3366
S11335B0A60195010E9406332BED3FE049E450E457
S11335C00E940E3520E030E044E353E40E946E3361
S11335D00E946B336D837E838F8398872D853E8510
S11335E04F85588969857A858B859C850E940E351F
S11335F04B015C01A301920169817A818B819C81D9
S11336000E940E352D813E814F8158850E940E35D2
S11336109B01AC01C501B4010E9407330E94F8323A
S113362020E030E044E353E40E940E352BED3FE00C
S113363049E450E40E946E3320E030E040E752E475
S11336400E940E352AE534E643E95FE30E940E3515
S11336501B3419F01E3441F00DC02CEF3EEF4DEC3D
S11336605FE30E940E3506C026E73FE44EE55FE3C4
S11336700E940E3560960FB6F894DEBF0FBECDBF24
S1133680DF91CF911F910F91FF90EF90DF90CF903A
S1133690BF90AF909F908F907F906F905F904F906E
S11336A00895803350F08A3310F4805308959FEBCB
S11336B0980F963020F48753089580E0089580E0B1
S11336C008952F923F924F925F926F927F928F92C2
S11336D09F92AF92BF92CF92DF92EF92FF920F939D
S11336E01F93CF93DF93CDB7DEB7CF58D1090FB671
S11336F0F894DEBF0FBECDBF10929F020F2EF0EBE9
S1133700EF2EF2E0FF2EF02DA12CB12C20C0802F43
S11337100E942515882399F0D701CD90DC90802F45
S11337200E943715EBE0F0E0EC0FFD1FEC0DFD1DE2
S11337308083F701808191810196918380830F5F5B
S11337401F4F0E94C21490E00817190704F3D70111
S11337508D919C91883791051CF40A2D1B2DF1CF76
S1133760873791050CF444C31092B1021092B00251
S1133770FE013B96DF010D900020E9F711977D01D2
S1133780EE1AFF0A870104501109E00FF11F80812E
S11337908A3251F5FE01EE0DFF1D80850E94511BFA
S11337A0B0E18B9F60011124DE01AE0DBF1D19969F
S11337B08C910E94511BF601E80FF11DCF010230DC
S11337C0110578F041E0EBE0F0E0EC0FFD1FE40FB1
S11337D0F11D208182274F5F242F30E0201731070D
S11337E090F3892B09F004C3CD57DF4F1882198257
S11337F01A82C358D040CA57DF4F188219821A82DE
S1133800C658D040C757DF4F188219821A82C95848
S1133810D040FE0131968AE0DF011D928A95E9F7D6
S113382010929E0262E970E0CE010B960E94EF3680
S1133830009709F4DDC26CE270E00E94CE368C0180
S1133840BC016F5F7F4F42E050E0CE018D579F4F28
S11338500E94E036B8016D5F7F4F42E050E0CE0138
S11338608A579F4F0E94E0366801B5E0CB0ED11C09
S113387042E050E0B601CE0187579F4F0E94E036E8
S113388008E812E0F801808191819093BB02809353
S1133890BA02CE018D579F4F0E9489367C01D80110
S11338A08D939C930AE812E0F801808191819093B2
S11338B0BD028093BC02CE018A579F4F0E94893675
S11338C0D8018D939C93CE0187579F4F0E948936D0
S11338D090938D0280938C02B6E1EB16F10444F4CC
S11338E0E2E0EE0EF11CF0928902E09288020FC031
S11338F0F6E1EF16F10429F410928902109288027D
S113390006C081E090E090938902809388026CE283
S113391070E0C6010E94CE367C018C010F5F1F4F00
S1133920DC0111968C918C3209F4CFC042E050E056
S1133930B801CE0101960E94E036CE0101960E94A4
S1133940A7369B01AC0160E876E988E990E00E9423
S11339501A364B015C01B7016D5F7F4F42E050E0C6
S1133960CE0101960E94E0360B5F1F4F44E050E009
S1133970B801CE0103960E94E036CE0101960E9462
S1133980A7369B01AC01A2E3B0E00E94493623E0D4
S113399030E040E050E00E942A3669017A01209329
S11339A09A0230939B0240939C0250939D020F2EE7
S11339B0FEE82F2EF2E03F2EF02DF101808191815F
S11339C0A281B3818093C2029093C302A093C402E4
S11339D0B093C502C501B40120EA36E841E050E0E5
S11339E00E942A36CA01B9010E9409342B013C0104
S11339F0C701B6010E9409342CE933E549EC56E3CA
S1133A000E940E359B01AC01C301B2010E94073331
S1133A100E94D6332B013C01D1016D937D938D938C
S1133A209C93139724E630E040E050E00E942A364D
S1133A30C457DF4F288339834A835B83CC58D040F3
S1133A4024E6C457DF4FE881F981CC58D0402E9F3B
S1133A50C0012F9F900D1124AA2797FDA095BA2F7E
S1133A60A3019201281B390B4A0B5B0BCA01B90154
S1133A700E94093420E030E040E752E40E946E33B3
S1133A800E94D633C457DF4F48815981CC58D04067
S1133A902A01662457FC6094762C460E571E681E35
S1133AA0791E409292025092930260929402709214
S1133AB09502C80CD91CEA1CFB1CC0929602D09239
S1133AC09702E0929802F09299026CE270E0C801C9
S1133AD00E94CE368C016C015FEFC51AD50ADC0159
S1133AE011968C918C3259F1833509F07DC10F2EDA
S1133AF0F2E9EF2EF2E0FF2EF02DF70160817181E3
S1133B00828193810E94093490580E94D633D70150
S1133B106D937D938D939C931397F80181818E34DB
S1133B2021F48EE480939E020AC0833519F48093B5
S1133B309E0205C08C3219F48FE280939E026CE2DF
S1133B4070E0C6010E94CE367C018C010F5F1F4FCE
S1133B50DC0111968C918C3209F4D0C043E050E022
S1133B60B801CE0101960E94E0361C82CE01019676
S1133B700E94A7369B01AC0160E876E988E990E0F1
S1133B800E941A364B015C01B7016C5F7F4F42E023
S1133B9050E0CE0101960E94E0360A5F1F4F44E0D8
S1133BA050E0B801CE0103960E94E036CE010196A2
S1133BB00E94A7369B01AC01A2E3B0E00E94493603
S1133BC023E030E040E050E00E942A3669017A01A7
S1133BD02093AC023093AD024093AE025093AF02F7
S1133BE00F2EF0EA2F2EF2E03F2EF02DF10180810E
S1133BF09181A281B3818093C6029093C702A0935E
S1133C00C802B093C902C501B40120EA36E841E014
S1133C1050E00E942A36CA01B9010E9409342B01DE
S1133C203C01C701B6010E9409342CE933E549EC93
S1133C3056E30E940E359B01AC01C301B2010E9400
S1133C4007330E94D6332B013C01D1016D937D9340
S1133C508D939C93139724E630E040E050E00E945B
S1133C602A36C457DF4F288339834A835B83CC5871
S1133C70D04024E6C457DF4FE881F981CC58D040C6
S1133C802E9FC0012F9F900D1124AA2797FDA09568
S1133C90BA2FA3019201281B390B4A0B5B0BCA01F3
S1133CA0B9010E94093420E030E040E752E40E9468
S1133CB06E330E94D633C457DF4F48815981CC58A4
S1133CC0D0402A01662457FC6094762C460E571E79
S1133CD0681E791E4092A4025092A5026092A60228
S1133CE07092A702C80CD91CEA1CFB1CC092A80243
S1133CF0D092A902E092AA02F092AB026CE270E0C8
S1133D00C8010E94CE368C010F5F1F4FDC01119653
S1133D108C918735B1F40F2EF4EAEF2EF2E0FF2EEA
S1133D20F02DF70160817181828193810E940934B1
S1133D3090580E94D633D7016D937D938D939C93B5
S1133D4013976CE270E0C8010E94CE368C010F5FBD
S1133D501F4FFC0181818C3239F0C8010E948936E1
S1133D609093B7028093B6026CE270E0C8010E949F
S1133D70CE368C010F5F1F4FDC0111968C918C3273
S1133D8099F00F2EF2EBEF2EF2E0FF2EF02DF7015B
S1133D90808191819093BF028093BE02C8010E94EA
S1133DA08936D7018D939C936CE270E0C8010E9420
S1133DB0CE366CE270E001960E94CE36FC01218181
S1133DC02C32B1F004EB12E0D8012D913C913093E8
S1133DD0C1022093C00201960E9485360E94D63308
S1133DE0F8017183608304C08E3409F0A8CE99CEA3
S1133DF0C157DF4F0FB6F894DEBF0FBECDBFDF91C2
S1133E00CF911F910F91FF90EF90DF90CF90BF90D3
S1133E10AF909F908F907F906F905F904F903F9066
S1133E202F9008952F923F924F925F926F927F92BC
S1133E308F929F92AF92BF92CF92DF92EF92FF92B6
S1133E400F931F93CF93DF93CDB7DEB764970FB66D
S1133E50F894DEBF0FBECDBF10929F0283EF9DE1A9
S1133E60909379008093780003EF1DE120E530E022
S1133E704FEE50E068E270E080E090E00E9421198B
S1133E8080E195E1909379008093780000E115E159
S1133E9020E530E048E250E068E270E080E090E045
S1133EA00E9421190F2EFEE9CF2EFFEEDF2EF02DFA
S1133EB0D0926400C0926300EE24E39409E910E018
S1133EC020E530E048E250E068E270E080E090E015
S1133ED00E9469100BE910E020E530E04FEE50E05D
S1133EE068E270E080E090E00E946910D09279006E
S1133EF0C092780000E010E02FE331E04FEE50E094
S1133F0061E570E080E090E00E9402121092790076
S1133F1010927800109264001092630004EA10E09A
S1133F2024E630E040EE50E06AE570E08FE090E097
S1133F300E94691025E530E04AE050E065E570E054
S1133F4085E090E00E94B21027E131E045E050E0C6
S1133F5065E570E085E090E00E94B21025E530E070
S1133F6045EE50E065E570E08AEE90E00E94B21004
S1133F7027E131E04AEE50E065E570E08AEE90E03A
S1133F800E94B2108BED94E39093790080937800B3
S1133F900BED14E32AE331E04AEE50E067E171E00F
S1133FA085E090E00E942119D0926400C0926300E1
S1133FB00BEA10E02EE231E040EE50E064E271E002
S1133FC08FE090E00E94691001E010E09E012F5FF5
S1133FD03F4F59010F2EF4EBCF2EF2E0DF2EF02DE0
S1133FE00F2EFEE98F2EFFEE9F2EF02DF12C0F2EBB
S1133FF0412CF8EF5F2EF02D0F2EFDE06F2E77246D
S11340007394F02D0F2EF3E02F2E33243394F02DE0
S1134010DAC00E9403210E94611BD501E4E11D92D4
S1134020EA95E9F72BE432E33093640020936300CC
S1134030D6018D919C91E0ECF2E0208131818217D0
S1134040930719F4012B09F4BCC0181619060CF0D7
S1134050B8C090927900809278008BE09F2D0BE09D
S11340601F2D21E045E050E067E171E00E94C51397
S1134070045F1F4F802F912F0F3E110591F79092EF
S1134080790080927800840127E131E049EE50E024
S11340906EE670E086E090E00E942119509279006B
S11340A0409278005092640040926300D6011196C9
S11340B08C9111978F938C918F93A8E5B1E0BF9366
S11340C0AF93BF92AF920E942637D6016D917C9137
S11340D0882777FD8095982F0E94093429E739EEC7
S11340E046E25EE30E940E350E94D6339301261BFE
S11340F0370BF101E61BF70BBF01E12C85014FEEF5
S113410050E08FE090E00E946910D6016D917C919F
S1134110882777FD8095982F0E94093429E739EE86
S113412046E25EE30E940E350E94D63307E111E0B9
S1134130F801E61BF70BBF019F0144E650E086E05F
S113414090E00E94B210D6016D917C91882777FD92
S11341508095982F0E94093429E739EE46E25EE300
S11341600E940E350E94D633F801E61BF70BBF01FF
S11341709F014AE850E089EE90E00E94B210D60117
S11341806D917C91882777FD8095982F0E94093442
S113419029E739EE46E25EE30E940E350E94D633EB
S11341A0F801E61BF70BBF0121E045E050E087E78B
S11341B090E00E94C5130F900F900F900F900F90F6
S11341C00F9000E010E080918302909184020497A4
S11341D009F41FCF64960FB6F894DEBF0FBECDBFAF
S11341E0DF91CF911F910F91FF90EF90DF90CF90CF
S11341F0BF90AF909F908F907F906F905F904F9003
S11342003F902F9008952F923F924F925F926F921A
S11342107F928F929F92AF92BF92CF92DF92EF9252
S1134220FF920F931F93CF93DF93CDB7DEB72897F9
S11342300FB6F894DEBF0FBECDBF0E94811988234C
S113424009F4CFC40E9488190E947C194C010E9471
S113425077199A8389830E947C196C010E947719CB
S11342608C010E947C197C010E94771998878F83A6
S11342700E9488190E947C195C010E9477191C0114
S11342800E947C19C816D90618F40E947C196C0186
S11342900E947C198E159F0518F40E947C197C01DC
S11342A00E9477190817190718F40E9477198C01CE
S11342B00E9477192F8138858217930720F40E9472
S11342C0771998878F830E9488190E947C193C0172
S11342D00E9477199C838B830E947C19C816D90687
S11342E018F40E947C196C010E947C198E159F059C
S11342F018F40E947C197C010E9477190817190789
S113430018F40E9477198C010E947719EF81F885BF
S11343108E179F0720F40E94771998878F830E9435
S113432088190E947C192C010E9477199E838D8321
S11343300E947C19C816D90618F40E947C196C01D5
S11343400E947C198E159F0518F40E947C197C012B
S11343500E9477190817190718F40E9477198C011D
S11343600E9477192F8138858217930720F40E94C1
S1134370771998878F830E948119882309F43DC493
S1134380A80CB91CA60CB71CC501840D951D8C196D
S11343909D098E199F09969587950E94FF196B01B7
S11343A07C0189819A81820D931DEB81FC818E0FA2
S11343B09F1F2D813E81820F931F801B910BEF81E4
S11343C0F8858E1B9F0B969587950E94341A209131
S11343D01802222321F022E02093850203C021E069
S11343E020938502970186010150110921093109A1
S11343F00F3311402105310508F0EFC38B019C01F7
S113440001501109210931090F3E1105210531051A
S113441008F0E3C3D092B902C092B8029B01709332
S113442087026093860240918502413009F0D5C32A
S113443040918302509184024230510509F403C132
S113444044F44115510581F04130510509F4BAC0D5
S1134450C4C34430510509F4A4C10CF44BC1453024
S1134460510509F4DFC1B9C3AB0145505109463EBA
S1134470510508F0B2C3C601CE97C89708F580E18C
S113448095E1909379008093780000E115E125E7A8
S113449030E04FEE50E06EE370E08AEE90E00E9470
S11344A021198EE99FEE909379008093780081E042
S11344B090E090938402809383020E94702B8DC3BA
S11344C0C6018A579109C89778F580E195E19093E0
S11344D079008093780000E115E121EB30E04FEEA4
S11344E050E06AE770E08AEE90E00E9421198EE9BC
S11344F09FEE909379008093780082E090E090930F
S1134500840280938302EE24E39400E010E02FE31E
S113451031E04FEE50E069E270E080E090E00E940C
S113452002120E948A2E59C3C601865B9109C8975C
S113453008F580E195E1909379008093780000E19B
S113454015E12DEE30E04FEE50E066EB70E08AEEC0
S113455090E00E9421198EE99FEE90937900809358
S1134560780084E090E090938402809383020E9418
S1134570121F33C322EFC21AD10838E3C316D10481
S113458008F02BC380E195E1909379008093780043
S113459000E115E129E231E04FEE50E062EF70E016
S11345A08AEE90E00E9421198EE99FEE90937900A3
S11345B08093780085E090E0909384028093830256
S11345C00E9416266932710508F007C348E2C41A2E
S11345D0D10889E2C816D10408F0FFC28BE492E343
S11345E090937900809378000BE412E320E530E0A7
S11345F048E250E068E270E080E090E00E94211917
S11346000F2EFEE9CF2EFFEEDF2EF02DD0926400A8
S1134610C0926300EE24E39409E910E020E530E061
S113462048E250E068E270E080E090E00E946910A7
S1134630D0927900C0927800109284021092830282
S11346400E94042ACAC269327105D8F5960128521B
S1134650310929323105A8F58BE492E3909379006E
S1134660809378000BE412E320E530E048E250E068
S113467068E270E080E090E00E9421190F2EFEE9CC
S1134680CF2EFFEEDF2EF02DD0926400C092630097
S1134690EE24E39409E910E020E530E048E250E03C
S11346A068E270E080E090E00E946910D0927900A6
S11346B0C092780010928402109283020E94042A0D
S11346C08CC2AB01475751094536510508F085C2E4
S11346D0EDE0CE1AE1E0DE0AFFE1CF16D10408F0E6
S11346E07CC283E090E090938402809383020E94D2
S11346F08A2E73C269327105D8F5960128523109A0
S113470029323105A8F58BE492E3909379008093E4
S113471078000BE412E320E530E048E250E068E280
S113472070E080E090E00E9421190F2EFEE9CF2E68
S1134730FFEEDF2EF02DD0926400C0926300EE24D1
S1134740E39409E910E020E530E048E250E068E253
S113475070E080E090E00E946910D0927900C092ED
S1134760780010928402109283020E94042A35C2B7
S1134770AB01445151094436510508F02EC22DE0D5
S1134780C21A21E0D20A3FE1C316D10408F025C2BF
S113479082E090E090938402809383020E948A2EA8
S11347A01CC26932710508F018C248E2C41AD10863
S11347B089E2C816D10408F010C28BE492E3909306
S11347C07900809378000BE412E320E530E048E2BE
S11347D050E068E270E080E090E00E9421190F2E22
S11347E0FEE9CF2EFFEEDF2EF02DD0926400C092B2
S11347F06300EE24E39409E910E020E530E048E2A8
S113480050E068E270E080E090E00E946910D0928D
S11348107900C092780010928402109283020E9460
S1134820042ADBC1FB0169327105D8F5A60148529F
S1134830510949325105A8F58BE492E3909379002C
S1134840809378000BE412E320E530E048E250E086
S113485068E270E080E090E00E9421190F2EFEE9EA
S1134860CF2EFFEEDF2EF02DD0926400C0926300B5
S1134870EE24E39409E910E020E530E048E250E05A
S113488068E270E080E090E00E946910D0927900C4
S1134890C092780010928402109283020E94042A2B
S11348A09CC10091190210911A02023011050CF0FA
S11348B085C1DB011A97999708F057C0D601A25C0D
S11348C0B1099497C0F4012B59F4EDE6F2E001909C
S11348D00020E9F7319787E390E0918380837DC1DD
S11348E0E8E7F2E001900020E9F7319787E390E0F0
S11348F09183808372C1D601AA5EB1099497C0F4F2
S1134900012B59F4EDE6F2E001900020E9F731972C
S113491084E390E09183808360C1E8E7F2E0019052
S11349200020E9F7319784E390E09183808355C1B7
S1134930D601A251B1409497C0F4012B59F4EDE68D
S1134940F2E001900020E9F7319781E390E0918350
S1134950808343C1E8E7F2E001900020E9F7319752
S113496081E390E09183808338C1DB01D7979997E5
S113497008F057C0D601A25CB1099497C0F4012B8A
S113498059F4EDE6F2E001900020E9F7319788E36D
S113499090E09183808321C1E8E7F2E00190002058
S11349A0E9F7319788E390E09183808316C1D601BB
S11349B0AA5EB1099497C0F4012B59F4EDE6F2E034
S11349C001900020E9F7319785E390E0918380839B
S11349D004C1E8E7F2E001900020E9F7319785E3AC
S11349E090E091838083F9C0D601A251B14094979D
S11349F0C0F4012B59F4EDE6F2E001900020E9F750
S1134A00319782E390E091838083E7C0E8E7F2E0A6
S1134A1001900020E9F7319782E390E0918380834D
S1134A20DCC0AB01445651094932510508F05AC063
S1134A30A601425C510944325105C0F4012B59F4DA
S1134A40EDE6F2E001900020E9F7319789E390E088
S1134A5091838083C2C0E8E7F2E001900020E9F787
S1134A60319789E390E091838083B7C0A6014A5EC1
S1134A70510944325105C0F4012B59F4EDE6F2E03A
S1134A8001900020E9F7319786E390E091838083D9
S1134A90A4C0E8E7F2E001900020E9F7319786E34B
S1134AA090E09183808399C0A601425151404432E1
S1134AB05105C0F4012B59F4EDE6F2E00190002019
S1134AC0E9F7319783E390E09183808386C0E8E738
S1134AD0F2E001900020E9F7319783E390E09183BD
S1134AE080837BC0263931050CF453C0E63EF105C2
S1134AF078F5A601425C51094432510558F4E8E7BF
S1134B00F2E001900020E9F7319783E390E091838C
S1134B10808363C0A6014A5E510944325105C0F442
S1134B20012B59F4EDE6F2E001900020E9F731970A
S1134B308EE290E09183808350C0E8E7F2E0019038
S1134B400020E9F731978EE290E09183808345C09D
S1134B502F3B3105F4F4A601425151404432510532
S1134B60C0F4012B59F4EDE6F2E001900020E9F7DE
S1134B70319780E390E0918380832FC0E8E7F2E0EF
S1134B8001900020E9F7319780E390E091838083DE
S1134B9024C0233C31050CF1E63EF105F0F4E2E1DA
S1134BA0CE1AE1E0DE0AF4E2CF16D104B0F4C80173
S1134BB0019690931A02809319020FC033236CF06C
S1134BC0E03FF10550F42DE0C21A21E0D20A33E3AC
S1134BD0C316D10410F40E94162681E080931802B3
S1134BE00CC080911802882321F083E08093850211
S1134BF002C0109285021092180228960FB6F894FB
S1134C00DEBF0FBECDBFDF91CF911F910F91FF90FB
S1134C10EF90DF90CF90BF90AF909F908F907F9058
S1134C206F905F904F903F902F900895CF93DF93B4
S1134C30CDB7DEB768970FB6F894DEBF0FBECDBF11
S1134C4010929F0210921A02109219028BE0E8E768
S1134C50F2E0DF01982F1D929A95E9F7EDE6F2E074
S1134C60DF011D928A95E9F70F2EF3EFCF2EFDE1B8
S1134C70DF2EF02DD0927900C092780003EF1DE171
S1134C8020E530E04FEE50E068E270E080E090E034
S1134C900E9421190F2EF0E1AF2EF5E1BF2EF02D69
S1134CA0B0927900A092780000E115E120E530E0AF
S1134CB048E250E068E270E080E090E00E94211950
S1134CC00F2EFEE92F2EFFEE3F2EF02D30926400C2
S1134CD020926300EE24E39409E910E020E530E03B
S1134CE048E250E068E270E080E090E00E946910E1
S1134CF005EB10E020E530E04FEE50E068E270E0B4
S1134D0080E090E00E94691030927900209278004F
S1134D1000E010E02FE331E04FEE50E061E570E099
S1134D2080E090E00E9402128FEF9FEF9093790051
S1134D30809378000FEF1FEF23E730E04AEE50E056
S1134D4065E570E085E090E00E942119009178000B
S1134D501091790026E930E04AEE50E068E770E00F
S1134D6085E090E00E942119109264001092630083
S1134D706894EE24E1F804EC10E023E730E045EE1B
S1134D8050E065E570E085E090E00E94691008EC71
S1134D9010E026E930E045EE50E068E770E085E099
S1134DA090E00E946910109279001092780023E735
S1134DB030E04AEE50E065E570E085E090E00E9466
S1134DC0C41126E930E04AEE50E068E770E085E07F
S1134DD090E00E94C411D0927900C092780003EF51
S1134DE01DE12FE331E04FEE50E068EB70E080E02E
S1134DF090E00E942119B0927900A092780000E11D
S1134E0015E125EE30E042E350E062EC70E08AE028
S1134E1090E00E94211900917800109179002DE012
S1134E2031E042E350E06AEE70E08AE090E00E94F4
S1134E302119009178001091790025E331E042E3D3
S1134E4050E062E171E08AE090E00E942119009153
S1134E5078001091790025EE30E04FE550E062ECE7
S1134E6070E087E390E00E9421190091780010918E
S1134E7079002DE031E04FE550E06AEE70E087E321
S1134E8090E00E942119009178001091790025E3A7
S1134E9031E04FE550E062E171E087E390E00E9489
S1134EA02119009178001091790025EE30E04CE84A
S1134EB050E062EC70E084E690E00E9421190091D9
S1134EC07800109179002DE031E04CE850E06AEE72
S1134ED070E084E690E00E9421190091780010911E
S1134EE0790025E331E04CE850E062E171E084E6CA
S1134EF090E00E942119009178001091790025EE2C
S1134F0030E045EE50E062EC70E086E990E00E940B
S1134F10211900917800109179002DE031E045EEDF
S1134F2050E06AEE70E086E990E00E942119009159
S1134F3078001091790025E331E04EEB50E062E116
S1134F4071E086E990E00E942119009178001091A7
S1134F50790025E331E045EE50E062E171E083EC55
S1134F6090E00E9421193092640020926300EE24A4
S1134F70E3940CEC10E025EE30E042E350E062EC08
S1134F8070E08AE090E00E9469100EEC10E02DE0E1
S1134F9031E042E350E06AEE70E08AE090E00E9483
S1134FA0691000ED10E025E331E042E350E062E1F6
S1134FB071E08AE090E00E94691002ED10E025EEB5
S1134FC030E04FE550E062EC70E087E390E00E944F
S1134FD0691004ED10E02DE031E04FE550E06AEE99
S1134FE070E087E390E00E94691006ED10E025E38D
S1134FF031E04FE550E062E171E087E390E00E9428
S1135000691008ED10E025EE30E04CE850E062EC69
S113501070E084E690E00E9469100AED10E02DE053
S113502031E04CE850E06AEE70E084E690E00E94E3
S113503069100CED10E025E331E04CE850E062E14A
S113504071E084E690E00E94691009E910E025EE21
S113505030E045EE50E062EC70E086E990E00E94BA
S1135060691002EC10E02DE031E045EE50E06AEE0C
S113507070E086E990E00E9469100EED10E025E3EF
S113508031E04EEB50E062E171E086E990E00E948D
S1135090691000EE10E025E331E045EE50E062E1F6
S11350A071E083EC90E00E946910FE0131961F01CB
S11350B00E94032184E1D1011D928A95E9F7EBE472
S11350C0F2E3F0936400E09363001092790010928D
S11350D078008091190290911A020097D9F422E77E
S11350E030E049EE50E066E570E086E090E00E9432
S11350F0C4118FEF9FEF909379008093780025E996
S113510030E049EE50E069E770E086E090E00E940C
S1135110C41142C181309105D9F425E930E049EE4A
S113512050E069E770E086E090E00E94C411AFEFC0
S1135130BFEFB0937900A093780022E730E049EE06
S113514050E066E570E086E090E00E94C41124C15E
S1135150029709F0B2C00E94611B8DE692E00E94A2
S113516085366D8B7E8B8F8B988F88E792E00E94BB
S113517085362B013C01E8EAF2E02081318142814D
S11351805381A6E9B2E06D917D918D919C910F2E92
S1135190FBE48F2EF02D63015201ED88FE880F8908
S11351A0188D0E94691A0E9471350E94D6337F932C
S11351B06F93A3EEB0E0BF93AF933F922F920E9400
S11351C026378FEF9FEF909379008093780025E93D
S11351D030E049EE50E069E770E086E090E00E943C
S11351E0C41122E730E049EE50E066E570E086E065
S11351F090E00E94C411AEE9BFEEB0937900A09391
S113520078000EE91FEE24EB30E04AEE50E068E946
S113521070E08AE590E00E942119009178001091D5
S113522079002FE331E04FEE50E068EB70E080E06E
S113523090E00E942119E12C810124EB30E045EE3D
S113524050E066E970E08AE090E00E946910E7E6C9
S1135250F2EEF0937900E093780007E612EE2FE384
S113526031E04FEE50E06DE071E080E090E00E94AC
S113527021198EE99FEE9093640080936300EE24DD
S1135280E39403EF10E02FE331E04FEE50E06DE0E4
S113529071E080E090E00E94691080911902909181
S11352A01A02019690931A02809319020F900F909C
S11352B00F900F900F900F906FC00E94611BAEE88B
S11352C0B2E04D915D916D917C91E2ECF2E08081D0
S11352D09181A281B381481759076A077B0791F42A
S11352E0A0EAB2E04D915D916D917C91E6ECF2E023
S11352F080819181A281B381481759076A077B078E
S113530009F44AC0A8EAB2E02D913D914D915C9117
S1135310E6E9F2E060817181828193810F2EFBE4E2
S11353208F2EF02D63015201ED88FE880F89188DB0
S11353300E94691A0E9471350E94D6337F936F933D
S1135340A3EEB0E0BF93AF933F922F920E94263713
S11353508EE99FEE90937900809378000EE91FEE1A
S113536024EB30E04AEE50E068E970E08AE590E032
S11353700E942119E12C810124EB30E04AEE50E037
S113538066E970E08AE090E00E9469100F900F9047
S11353900F900F900F900F900F2EF4E1DF2EF02D51
S11353A0D101ED2D1D92EA95E9F780E098EF9093F5
S11353B079008093780010926400109263006DE687
S11353C072E0C1010E94D936E12C810123E730E06B
S11353D04AEE50E065E570E08AE090E00E946910D2
S11353E0D1011D92DA94E9F768E772E0C1010E94E5
S11353F0D93626E930E04AEE50E068E770E08AE00A
S113540090E00E94691054CEEF920F931F93CF93B4
S1135410DF931092840210928302CEE9DFEED093E0
S11354207900C0937800EE24E39400E010E02FE3C9
S113543031E04FEE50E068E270E080E090E00E94DE
S1135440021283EF9DE1909379008093780003EF3B
S11354501DE125E730E04AEE50E06EE370E085E0C0
S113546090E00E942119009178001091790021EBBD
S113547030E04AEE50E06AE770E085E090E00E9498
S1135480211900917800109179002DEE30E04AEE58
S113549050E066EB70E085E090E00E9421190091F5
S11354A078001091790029E231E04AEE50E062EF91
S11354B070E085E090E00E94211980E195E19093ED
S11354C079008093780000E115E125E730E04AEEA9
S11354D050E06EE370E083EB90E00E9421190091AC
S11354E078001091790021EB30E04AEE50E06AE751
S11354F070E083EB90E00E942119009178001091F4
S113550079002DEE30E04AEE50E066EB70E083EB7C
S113551090E00E942119009178001091790029E20D
S113552031E04AEE50E062EF70E083EB90E00E94DD
S11355302119D0936400C0936300E12C09EF10E0BB
S113554022E730E04AEE50E06EE370E089E190E05B
S11355500E94691002E011E02EEA30E04AEE50E0C9
S11355606AE770E089E190E00E9469100BE910E0BD
S11355702AEE30E04AEE50E066EB70E089E190E01C
S11355800E94691005EB10E026E231E04AEE50E09B
S113559062EF70E089E190E00E946910EE24E394E8
S11355A001EE10E022E730E04AEE50E06EE370E0F6
S11355B083EB90E00E9469102EEA30E04AEE50E05E
S11355C06AE770E083EB90E00E9469102AEE30E015
S11355D04AEE50E066EB70E083EB90E00E946910C5
S11355E026E231E04AEE50E062EF70E083EB90E0B7
S11355F00E9469108091830290918402892B51F456
S11356000E9403210E94611B809183029091840275
S1135610892BB1F3DF91CF911F910F91EF900895F2
S1135620EF920F931F93CF93DF930E94FB1984B7DC
S1135630806884BF84B7806884BF0E94C9178EE9DC
S11356409FEE0E9467198AE990E00E940E0E8BE497
S113565092E390937900809378000BE412E328E2BC
S113566030E04FEE50E060E070E080E090E00E94B7
S113567021198EE99FEE9093640080936300EE24D9
S1135680E3940CE011E028E230E04FEE50E060E0FB
S113569070E080E090E00E946910C0E0D0E00FC0AC
S11356A063E370E08C2F0E94C4142FEF80E792E034
S11356B0215080409040E1F700C0000021960E94F4
S11356C0C21490E0C817D9075CF378940E94042AA6
S11356D080E090E0DF91CF911F910F91EF900895BA
S11356E02F923F924F925F926F927F928F929F92EE
S11356F0AF92BF92CF92DF92EF920F931F93CF930B
S1135700DF93CDB7DEB764970FB6F894DEBF0FBE54
S1135710CDBF10929F020F2EFEE9CF2EFFEEDF2E9B
S1135720F02DD0927900C0927800EE24E39400E04A
S113573010E02FE331E04FEE50E069E270E080E0EA
S113574090E00E94021283EF9DE190937900809390
S1135750780020E530E04FEE50E068E270E080E051
S113576090E00E94021280E195E190937900809389
S1135770780020E530E048E250E068E270E080E044
S113578090E00E940212D0926400C092630009E982
S113579010E020E530E048E250E068E270E080E0AC
S11357A090E00E94691009EF10E020E530E04FEE30
S11357B050E068E270E080E090E00E946910D092CE
S11357C07900C0927800AA24A394B12C9E012F5F83
S11357D03F4F69010F2EFBE44F2EF2E35F2EF02DB5
S11357E00F2EFCE82F2EF2E03F2EF02D0F2EFAE8BC
S11357F06F2EF2E07F2EF02D0F2EF8E88F2EF2E0C0
S11358009F2EF02D90C10E9403210E94611B84E110
S1135810D6011D928A95E9F7509264004092630084
S1135820F10181818F9380818F93D30111968C91A3
S113583011978F938C918F93F40181818F93808141
S11358408F93A4E1B1E0BF93AF93DF92CF920E9414
S113585026370FB6F894DEBF0FBECDBFD4012D910D
S11358603C91EAEBF2E0808191812817390729F411
S1135870A114B10409F0C9C15EC1EE24E39400E0AF
S113588010E02EE630E04FE550E063E570E086E49A
S113589090E00E940212D3012D913C918091BC02B0
S11358A09091BD022817390721F4A114B10409F419
S11358B04EC1EE24E39400E010E02EE630E049E728
S11358C050E063E570E085E690E00E9402122EE667
S11358D030E04FEE50E063E570E08FE790E00E9427
S11358E00212E12C860124E630E04BED50E064E640
S11358F070E084E190E00E94691040918E02509122
S11359008F0260919002709191028091C2029091F5
S1135910C302A091C402B091C502481759076A078F
S11359207B0721F4A114B10409F442C1EAE9F2E0CD
S113593083818F9382818F9381818F9380818F93D1
S1135940E2E9F2E083818F9382818F9381818F9347
S113595080818F9389E291E09F938F93DF92CF921E
S11359600E942637EE24E39400E010E026E930E0BC
S11359704FEE50E062E870E081E690E00E9402128F
S1135980E12C86012CE830E04BED50E06CE870E04F
S113599084E190E00E9469100FB6F894DEBF0FBE58
S11359A0CDBFA0EAB2E04D915D916D917C91E6ECA2
S11359B0F2E080819181A281B381481759076A0777
S11359C07B0721F4A114B10409F405C1ECEAF2E067
S11359D083818F9382818F9381818F9380818F9331
S11359E0E4EAF2E083818F9382818F9381818F93A4
S11359F080818F938BE391E09F938F93DF92CF927B
S1135A000E942637EE24E39400E010E024EB30E01B
S1135A104FEE50E060EA70E08EE690E00E940212E1
S1135A20E12C86012AEA30E04BED50E06AEA70E0AE
S1135A3084E190E00E946910A4EBB2E08D919C9106
S1135A400FB6F894DEBF0FBECDBFA0ECB2E02D912F
S1135A503C918217930721F4A114B10409F4C8C03E
S1135A609F938F938EE491E09F938F93DF92CF92D5
S1135A700E942637EE24E39400E010E022ED30E0AB
S1135A804FEE50E06EEB70E08AE590E00E94021267
S1135A90E12C860128EC30E04BED50E068EC70E03E
S1135AA084E190E00E946910E2EBF2E08081918150
S1135AB00F900F900F900F900F900F90AEEBB2E0FD
S1135AC02D913C918217930711F4AB2851F19F93C8
S1135AD08F938DE591E09F938F93DF92CF920E94F5
S1135AE02637EE24E39400E010E020EF30E04FEEA0
S1135AF050E06CED70E08BE990E00E940212E12C22
S1135B00860126EE30E04BED50E066EE70E084E175
S1135B1090E00E9469100F900F900F900F900F90DB
S1135B200F90A12CB12C8091830290918402019753
S1135B3009F469CED7C0F301208131818091BC0280
S1135B409091BD022817390709F0B3CE6DC0EE2439
S1135B50E39400E010E02EE630E04FEE50E063E521
S1135B6070E08FE790E00E940212E12C860124E6A7
S1135B7030E04BED50E064E670E084E190E00E9498
S1135B80691040918E0250918F0260919002709141
S1135B9091028091C2029091C302A091C402B0917B
S1135BA0C502481759076A077B0709F0BFCE6DC0C5
S1135BB0A0EAB2E04D915D916D917C91E6ECF2E04A
S1135BC080819181A281B381481759076A077B07B5
S1135BD009F0FCCE6DC0A4EBB2E08D919C91E0EC99
S1135BE0F2E0208131818217930709F039CF6DC02B
S1135BF0A2EBB2E08D919C91EEEBF2E02081318139
S1135C008217930709F063CF8CCFEE24E39400E06E
S1135C1010E02EE630E04FE550E063E570E086E406
S1135C2090E00E94021245CEEE24E39400E010E0DE
S1135C302EE630E04FEE50E063E570E08FE790E051
S1135C400E940212E12C860124E630E04BED50E084
S1135C5064E670E084E190E00E94691040918E0255
S1135C6050918F0260919002709191028091C202D2
S1135C709091C302A091C402B091C502481759077C
S1135C806A077B0709F052CE93CFA0EAB2E04D91A8
S1135C905D916D917C91E6ECF2E080819181A2812D
S1135CA0B381481759076A077B0709F08FCE93CF52
S1135CB0A4EBB2E08D919C91E0ECF2E02081318183
S1135CC08217930709F0CCCE93CFA2EBB2E08D916B
S1135CD09C91EEEBF2E0208131818217930709F069
S1135CE0F6CE1FCF64960FB6F894DEBF0FBECDBFBD
