S01000004750535F746573742E737265630B
S11300000C9449000C9466000C9466000C946600F1
S11300100C9466000C9466000C9466000C946600C4
S11300200C9466000C9466000C9466000C946600B4
S11300300C9466000C945C080C9481080C94660083
S11300400C9466000C9466000C9466000C94660094
S11300500C9466005E004E414E494E495459494E37
S113006046CDCCCC3D0AD7233C17B7D13877CC2B1F
S1130070329595E6241FB14F0A000020410000C8C4
S11300804200401C4620BCBE4CCA1B0E5AAEC59D45
S1130090740011241FBECFE5D8E0DEBFCDBF10E051
S11300A0A0E6B0E0E4ECFBE102C005900D92AA39B1
S11300B0B107D9F721E0AAE9B0E001C01D92A93443
S11300C0B207E1F70E949A040C94E00D0C9400002E
S11300D0803350F08A3310F4805308959FEB980FC7
S11300E0963020F48753089580E0089580E00895C1
S11300F04F925F926F927F928F929F92AF92BF9234
S1130100CF92DF92EF92FF920F931F93CF93DF93DF
S1130110CDB7DEB7CB58D1090FB6F894DEBF0FBE0A
S1130120CDBF1092BD000F2EFEECEF2EF0E0FF2E9F
S1130130F02DA12CB12C20C0802F0E94A906882369
S113014099F0D701CD90DC90802F0E94BB06EBE0A4
S1130150F0E0EC0FFD1FEC0DFD1D8083F7018081A5
S113016091810196918380830F5F1F4F0E94460601
S113017090E00817190704F3D7018D919C918837F3
S113018091051CF40A2D1B2DF1CF873791050CF432
S1130190AFC31092CF001092CE00FE013B96DF0158
S11301A00D900020E9F711977D01EE1AFF0A8701EF
S11301B004501109E00FF11F80818A32A1F5FE017C
S11301C0EE0DFF1D80850E946800B0E18B9F6001E9
S11301D01124DE01AE0DBF1D19968C910E9468009A
S11301E0F601E80FF11DCF010330110578F042E06C
S11301F0EBE0F0E0EC0FFD1FE40FF11D20818227FE
S11302004F5F242F30E02017310790F3892B59F0EA
S113021060E080E00E94C9058AE790E00E94EC0556
S113022080E090E06FC3CD57DF4F188219821A82A5
S1130230C358D040CA57DF4F188219821A82C65851
S1130240D040C757DF4F188219821A82C958D0404C
S1130250FE0131968AE0DF011D928A95E9F710923A
S1130260BC0069E870E0CE010B960E945E0B8C0125
S1130270009709F4E0C28B85F801808344E150E0E3
S1130280B8018FED90E00E944F0B6CE270E0C80162
S11302900E94440B8C01BC016F5F7F4F42E050E031
S11302A0CE018D579F4F0E944F0BB8016D5F7F4F5A
S11302B042E050E0CE018A579F4F0E944F0B6801E5
S11302C0F5E0CF0ED11C42E050E0B601CE018757D5
S11302D09F4F0E944F0B06EA10E0D8018D919C912C
S11302E09093F4008093F300CE018D579F4F0E94AA
S11302F0FF0A7C01F8019183808308EA10E0D801A9
S11303008D919C919093F6008093F500CE018A57CD
S11303109F4F0E94FF0AF80191838083CE01875783
S11303209F4F0E94FF0A9093AB008093AA00F6E1CE
S1130330EF16F10444F422E0E20EF11CF092A7005F
S1130340E092A6000FC036E1E316F10429F41092FE
S1130350A7001092A60006C081E090E09093A70049
S11303608093A6006CE270E0C6010E94440BFC017D
S113037001962181213449F42093D60021E030E014
S11303803093D5002093D4000CC0263551F486E573
S11303908093D6001092D5001092D40080E090E0B3
S11303A0B1C26CE270E00E94440B7C018C010F5FCF
S11303B01F4FDC0111968C918C3209F4D0C042E0BD
S11303C050E0B801CE0101960E944F0B1B82CE0172
S11303D001960E941D0B9B01AC0160E876E988E957
S11303E090E00E94900A3B014C01B7016D5F7F4F82
S11303F042E050E0CE0101960E944F0B0B5F1F4F6D
S113040044E050E0B801CE0103960E944F0B1F82D6
S11304100F2EF4EBAF2EF0E0BF2EF02DF50180810E
S11304209181A281B3818093070190930801A093E5
S11304300901B0930A010F2EFCEA4F2EF0E05F2E63
S1130440F02DF20180819181A281B3818093FB0020
S11304509093FC00A093FD00B093FE00CE010196A2
S11304600E941D0B9B01AC01A2E3B0E00E94E10AD3
S113047023E030E040E050E00E94C20A69017A01C2
S11304802093B8003093B9004093BA005093BB0056
S1130490DA01C901860D971DA81DB91DF5018083D8
S11304A09183A283B383C401B30120EA36E841E017
S11304B050E00E94C20ACA01B9010E94A1094B017D
S11304C05C01C701B6010E949F092CE933E549ECA0
S11304D056E30E942D0A9B01AC01C501B4010E94A0
S11304E0A7080E9473096B017C01D2016D937D936F
S11304F08D939C93139724E630E040E050E00E94F3
S1130500A00A49015A0124E6289DC001299D900DA5
S11305101124AA2797FDA095BA2FA7019601281B9D
S1130520390B4A0B5B0BCA01B9010E949F0920E0F9
S113053030E040E752E40E940B090E947309AA24A8
S113054097FCA094BA2C860E971EA81EB91E809202
S1130550B0009092B100A092B200B092B3006CE2ED
S113056070E0C8010E94440B8C016C013FEFC31A78
S1130570D30ADC0111968C918C3259F1833509F040
S1130580BDC10F2EF0EBEF2EF0E0FF2EF02DF701A2
S113059060817181828193810E949F0990580E9499
S11305A07309D7016D937D938D939C931397F801F1
S11305B081818E3421F48EE48093BC000AC083359B
S11305C019F48093BC0005C08C3219F48FE2809337
S11305D0BC006CE270E0C6010E94440B7C018C01FB
S11305E00F5F1F4FDC0111968C918C3209F4D0C03F
S11305F043E050E0B801CE0101960E944F0B1C82EB
S1130600CE0101960E941D0B9B01AC0160E876E9C6
S113061088E990E00E94900A3B014C01B7016C5FAD
S11306207F4F42E050E0CE0101960E944F0B0A5FDB
S11306301F4F44E050E0B801CE0103960E944F0BD7
S11306401F820F2EF6ECAF2EF0E0BF2EF02DF50139
S113065080819181A281B3818093030190930401ED
S1130660A0930501B09306010F2EFEEB4F2EF0E090
S11306705F2EF02DF20180819181A281B38180935C
S1130680FF0090930001A0930101B0930201CE01F9
S113069001960E941D0B9B01AC01A2E3B0E00E94F5
S11306A0E10A23E030E040E050E00E94C20A690120
S11306B07A012093CA003093CB004093CC0050932E
S11306C0CD00DA01C901860D971DA81DB91DF501DC
S11306D080839183A283B383C401B30120EA36E803
S11306E041E050E00E94C20ACA01B9010E94A10976
S11306F04B015C01C701B6010E949F092CE933E557
S113070049EC56E30E942D0A9B01AC01C501B401DA
S11307100E94A7080E9473096B017C01D2016D93AA
S11307207D938D939C93139724E630E040E050E052
S11307300E94A00A49015A0124E6289DC001299D6E
S1130740900D1124AA2797FDA095BA2FA701960111
S1130750281B390B4A0B5B0BCA01B9010E949F0984
S113076020E030E040E752E40E940B090E94730944
S1130770AA2497FCA094BA2C860E971EA81EB91E14
S11307808092C2009092C300A092C400B092C500AF
S11307906CE270E0C8010E94440B8C010F5F1F4F94
S11307A0DC0111968C918735B1F40F2EF2ECEF2E0B
S11307B0F0E0FF2EF02DF701608171818281938139
S11307C00E949F0990580E947309D7016D937D93ED
S11307D08D939C9313976CE270E0C8010E94440BC4
S11307E08C010F5F1F4FFC0181818C3259F0C801CD
S11307F00E94FB0A6093D7007093D8008093D900BD
S11308009093DA006CE270E0C8010E94440BDC01B2
S113081011962C912C3209F46EC001960E94FB0AA9
S11308206093DB007093DC008093DD009093DE0026
S113083081E090E067C060919E0070919F0080917C
S1130840A0009091A1000E9473096093A20070938C
S1130850A3008093A4009093A5006091B4007091CC
S1130860B5008091B6009091B7000E949F096B017A
S11308707C016091070170910801809109019091B8
S11308800A010E949F099B01AC01C701B6010E94A5
S1130890A6086B017C016091C6007091C70080912D
S11308A0C8009091C9000E949F094B015C016091AE
S11308B003017091040180910501909106010E9449
S11308C09F099B01AC01C501B4010E94A6089B01CC
S11308D0AC01C701B6010E94A60860939A00709308
S11308E09B0080939C0090939D0081E090E00AC05F
S11308F081E090E007C081E090E004C08E3409F00C
S113090068CE59CEC557DF4F0FB6F894DEBF0FBE81
S1130910CDBFDF91CF911F910F91FF90EF90DF90AA
S1130920CF90BF90AF909F908F907F906F905F908B
S11309304F900895CF93DF93CDB7DEB7C857D10951
S11309400FB6F894DEBF0FBECDBF8CE00E940E063A
S11309500E94D30500E010E010C063E370E0802F34
S11309600E9448062FEF80E792E02150804090409B
S1130970E1F700C000000F5F1F4F0E94460690E0A1
S11309800817190754F378940F2EF6EDAF2EF0E004
S1130990BF2EF02D04EB10E00F2EF6ECCF2EF0E07E
S11309A0DF2EF02D0F2EF6EAEF2EF0E0FF2EF02DC5
S11309B00F2EF8EA8F2EF0E09F2EF02D0E94780083
S11309C0892B09F472C00E94D305F50180810E942D
S11309D0D705F80160817181828193812AE0AE019B
S11309E04F5F5F4F0E94830B0E94EC0562E080E042
S11309F00E94C905F60160817181828193812AE098
S1130A00AE014F5F5F4F0E94830B0E94EC0561E0D3
S1130A108BE00E94C9054AE0BE016F5F7F4FF7017A
S1130A20808191810E94780B0E94EC058AE30E94E8
S1130A30D7054AE0BE016F5F7F4FF4018081918149
S1130A400E94780B0E94EC05FFEF29E688E1F15043
S1130A5020408040E1F700C00000F8014080518050
S1130A606280738080E990E00E941D0B4616570651
S1130A706806790641F461E080E00E94C90584E5D6
S1130A8090E00E94FC050E94D3058FED90E00E9447
S1130A90EC05FFEF23ED80E3F15020408040E1F7C7
S1130AA000C000000E94D30589CF85E990E00E9430
S1130AB0EC0584CF979A00C097980895CF93C82FD8
S1130AC0662311F0959A01C095989698BC9ABD9AA0
S1130AD0BE9ABF9AC798C698C598C498CC230CF4FC
S1130AE0C79AC6FDC69AC5FDC59AC4FDC49A0E949C
S1130AF05A05C798C698C598C498C3FDC79AC2FD3D
S1130B00C69AC1FDC59AC0FDC49A0E945A05C49AEA
S1130B10C59AC69AC79ACF910895882311F0959AD9
S1130B2001C09598969ABC98BD98BE98BF98979A1C
S1130B3000C0B49902C080E001C080E1B599806230
S1130B40B6998064B7998068979800C0979A00C056
S1130B50B4998160B5998260B6998460B7998860C8
S1130B609798089580E00E948D058823DCF383E044
S1130B7090E00197F1F780E00E948D050895CF93EE
S1130B80C82F0E94B20560E08C2F0E945E05CF91B1
S1130B900895611104C080580E94BF0508958054CF
S1130BA00E94BF05089581E00E94BF050895CF9378
S1130BB0C82F0E94B205CA3049F4803410F480E48E
S1130BC001C080E080580E94BF0504C061E08C2F02
S1130BD00E945E05CF910895CF93DF93EC01219697
S1130BE0FC018081882329F00E94D7058991811115
S1130BF0FBCFDF91CF910895CF93DF93EC01219642
S1130C00FC018491882339F00E94D705FE01849168
S1130C1021968111F9CFDF91CF910895CF93C82FF9
S1130C208D9A8E9A8F9ABC9ABD9ABE9ABF9AE0E327
S1130C30F3E73197F1F7C59AC49A0E945A05E0EF99
S1130C40F3E23197F1F70E945A05E5E7F0E03197B6
S1130C50F1F70E945A05E5E7F0E03197F1F7C498FF
S1130C600E945A05E5E7F0E03197F1F788E20E9427
S1130C70BF0588E00E94BF050E94D30586E00E945C
S1130C80BF058C2F0E94BF05CF91089581E0089580
S1130C9081115EC0109215011092140110920C0182
S1130CA010920B0110920F0110920E01109211017B
S1130CB01092100181E0809313011092120180932D
S1130CC00D0110924601E0916B00F0916C0081E0FF
S1130CD090E0AC010090610002C0440F551F0A94DB
S1130CE0E2F79C010090600002C0220F331F0A94B7
S1130CF0E2F7242B2083E0916F00F0917000708361
S1130D00E0917100F09172006083E9E6F0E0A08167
S1130D10B1819C010090620002C0220F331F0A942B
S1130D20E2F72C930190F081E02D40819C0100902A
S1130D30630002C0220F331F0A94E2F7009064009C
S1130D4002C0880F991F0A94E2F7822B842B8083B8
S1130D50089581110EC04091140150911501209104
S1130D600B0130910C0181E04217530719F480E024
S1130D70089580E0089581116CC0809146018150EE
S1130D808093460180910D01811133C08091460109
S1130D90863078F5809112018111FCCF81E1809336
S1130DA0120181E080930D0180911301882309F1E0
S1130DB010921301E0916900F0916A00408181E092
S1130DC090E09C010090650002C0220F331F0A943A
S1130DD0E2F7242B2083E0916D00F0916E002081D6
S1130DE00090660002C0880F991F0A94E2F7822BD4
S1130DF08083209114013091150180910B01909111
S1130E000C012817390739F1E0911401F09115010B
S1130E10EA5EFE4F8081E0911401F0911501EA5ED3
S1130E20FE4F108220911401309115012F313105AC
S1130E3058F420911401309115012F5F3F4F3093E6
S1130E4015012093140108951092150110921401B4
S1130E50089580E0089580E00895CF93DF9390E0B3
S1130E609C01220F331FF901E55FFE4F4081518140
S1130E70280F391FD901AA0FBB1FAA0FBB1FA959DD
S1130E80BF4F0D90BC91A02D2C91DC01AA0FBB1F6C
S1130E90A295B295B07FBA27A07FBA27A40FB51F39
S1130EA0AA5EBE4F2C93208131812F31310560F42D
S1130EB0FC01EE0FFF1FE55FFE4F208131812F5FA4
S1130EC03F4F3183208307C0FC01EE0FFF1FE55F16
S1130ED0FE4F11821082FC01EA5BFE4F20812F5FDE
S1130EE02083FC01E35FFE4F2081213009F04DC0D7
S1130EF0FC01EA5BFE4F20812B3108F446C023E15C
S1130F00FC01EE5EFE4F2083FC01E35FFE4F108286
S1130F10FC01ED5EFE4F20812223B9F1FC01ED5E60
S1130F20FE4F1082FC01EE0FFF1FE80FF91FEE0FBA
S1130F30FF1FEE0FFF1FE959FF4FC281D381488184
S1130F40DC01AA0FBB1FAA0FBB1FAA0FBB1FA81B44
S1130F50B90BA05ABF4F81E090E09C0115960C900C
S1130F60159702C0220F331F0A94E2F7242B28831B
S1130F700680F781E02D208116960C9002C0880F20
S1130F80991F0A94E2F7822B8083DF91CF91089511
S1130F90CF93DF9390E0FC01EE5EFE4F208122238D
S1130FA0A1F0FC01EE0FFF1FE80FF91FEE0FFF1F6A
S1130FB0EE0FFF1FE959FF4FA081B181FC01EE5EE6
S1130FC0FE4F80818C93108274C09C01220F331FCA
S1130FD0F901E25FFE4F40815181F901E05FFE4F6C
S1130FE02081318142175307C1F1FC01EE0FFF1F2D
S1130FF0DF01A80FB91FAA0FBB1FAA0FBB1FA95956
S1131000BF4F0D90BC91A02DE25FFE4F2081318136
S1131010EC01C295D295D07FDC27C07FDC27C20FBC
S1131020D31FCA5CDE4F28812C93208131812F305D
S1131030310558F4FC01EE0FFF1FE25FFE4F808183
S1131040918101969183808334C0FC01EE0FFF1FD0
S1131050E25FFE4F118210822CC0FC01ED5EFE4F58
S113106021E02083FC01EE0FFF1FE80FF91FEE0FB4
S1131070FF1FEE0FFF1FE959FF4F0280F381E02DA0
S11310804081DC01AA0FBB1FAA0FBB1FAA0FBB1F05
S1131090A81BB90BA05ABF4F21E030E0C901159637
S11310A00C9002C0880F991F0A94E2F7809584235C
S11310B08083DF91CF9108951F920F920FB60F9204
S11310C011242F933F934F935F936F937F938F9349
S11310D09F93AF93BF93EF93FF9380E00E942D07FC
S11310E0FF91EF91BF91AF919F918F917F916F91FC
S11310F05F914F913F912F910F900FBE0F901F90D2
S113110018951F920F920FB60F9211242F933F93AD
S11311104F935F936F937F938F939F93AF93BF93FB
S1131120EF93FF9380E00E94C807FF91EF91BF9176
S1131130AF919F918F917F916F915F914F913F916B
S11311402F910F900FBE0F901F9018955058BB27EA
S1131150AA270ED048C139D130F03ED120F031F465
S11311609F3F11F41EF42EC10EF4E095E7FB24C159
S1131170E92F4AD180F3BA176207730784079507EA
S113118018F071F49EF562C10EF4E0950B2EBA2F9F
S1131190A02D0B01B90190010C01CA01A001112479
S11311A0FF27591B99F0593F50F4503E68F11A1625
S11311B0F040A22F232F342F4427585FF3CF4695B6
S11311C037952795A795F0405395C9F77EF41F16D8
S11311D0BA0B620B730B840BBAF09150A1F0FF0FA2
S11311E0BB1F661F771F881FC2F70EC0BA0F621F8E
S11311F0731F841F48F4879577956795B795F7957E
S11312009E3F08F0B3CF9395880F08F09927EE0F0F
S11312109795879508950CD0E6C0DED040F0D5D0E0
S113122030F021F45F3F19F0C7C0511110C1CAC09A
S1131230EBD098F39923C9F35523B1F3951B550BC0
S1131240BB27AA2762177307840738F09F5F5F4F95
S1131250220F331F441FAA1FA9F333D00E2E3AF0D6
S1131260E0E830D091505040E695001CCAF729D0F0
S1131270FE2F27D0660F771F881FBB1F261737073F
S11312804807AB07B0E809F0BB0B802DBF01FF276F
S113129093585F4F2AF09E3F510568F08DC0D7C028
S11312A05F3FECF3983EDCF3869577956795B795A9
S11312B0F7959F5FC9F7880F911D9695879597F9C4
S11312C00895E1E0660F771F881FBB1F621773073D
S11312D08407BA0720F0621B730B840BBA0BEE1F52
S11312E088F7E095089598D088F09F5790F0B92F2B
S11312F09927B751A0F0D1F0660F771F881F991F67
S11313001AF0BA95C9F712C0B13081F09FD0B1E09C
S113131008959CC0672F782F8827B85F39F0B93FAC
S1131320CCF3869577956795B395D9F73EF4909568
S11313308095709561957F4F8F4F9F4F0895E894E6
S113134009C097FB3EF490958095709561957F4F09
S11313508F4F9F4F9923A9F0F92F96E9BB279395B7
S1131360F695879577956795B795F111F8CFFAF4C7
S1131370BB0F11F460FF1BC06F5F7F4F8F4F9F4FF8
S113138016C0882311F096E911C0772321F09EE856
S1131390872F762F05C0662371F096E8862F70E0BC
S11313A060E02AF09A95660F771F881FDAF7880F96
S11313B09695879597F9089597F99F6780E870E067
S11313C060E008959FEF80EC089500240A941616B7
S11313D0170618060906089500240A94121613061F
S11313E0140605060895092E0394000C11F48823AD
S11313F052F0BB0F40F4BF2B11F460FF04C06F5FC9
S11314007F4F8F4F9F4F089557FD9058440F551F9E
S113141059F05F3F71F04795880F97FB991F61F072
S11314209F3F79F087950895121613061406551FE9
S1131430F2CF4695F1DF08C0161617061806991F55
S1131440F1CF86957105610508940895E894BB274A
S113145066277727CB0197F908950BD0C4CFB5DF62
S113146028F0BADF18F0952309F0A6CFABCF1124EA
S1131470EECFCADFA0F3959FD1F3950F50E0551F2F
S1131480629FF001729FBB27F00DB11D639FAA27D5
S1131490F00DB11DAA1F649F6627B00DA11D661F24
S11314A0829F2227B00DA11D621F739FB00DA11D45
S11314B0621F839FA00D611D221F749F3327A00DFF
S11314C0611D231F849F600D211D822F762F6A2F9B
S11314D011249F5750408AF0E1F088234AF0EE0F20
S11314E0FF1FBB1F661F771F881F91505040A9F72D
S11314F09E3F510570F060CFAACF5F3FECF3983E5A
S1131500DCF3869577956795B795F795E7959F5F93
S1131510C1F7FE2B880F911D9695879597F908952D
S1131520DB018F939F930E94E10ABF91AF91A29F29
S1131530800D911DA39F900DB29F900D11240895CD
S1131540A1E21A2EAA1BBB1BFD010DC0AA1FBB1FC3
S1131550EE1FFF1FA217B307E407F50720F0A21B35
S1131560B30BE40BF50B661F771F881F991F1A94A2
S113157069F760957095809590959B01AC01BD01CC
S1131580CF010895052E97FB1EF400940E94D90AFA
S113159057FD07D00E94A00A07FC03D04EF40C9418
S11315A0D90A50954095309521953F4F4F4F5F4F45
S11315B0089590958095709561957F4F8F4F9F4FBB
S11315C008950E94EC0AA59F900DB49F900DA49FCE
S11315D0800D911D11240895A29FB001B39FC001F5
S11315E0A39F700D811D1124911DB29F700D811D4B
S11315F01124911D0895662777270C94EB0BFC01A9
S113160088279927E89421912032E9F3293010F0B2
S11316102E30C8F32B3241F02D3239F4689404C0D3
S11316200E94A70B820F911D219120532A30C0F3F1
S11316301EF4909581959F4F08951F93FC0199275F
S11316408827BC01E89411911032E9F3193010F0A5
S11316501E30C8F31B3251F01D3249F4689406C0A1
S11316600E94920B610F711D811D911D11911053E8
S11316701A30B0F33EF490958095709561957F4F44
S11316808F4F9F4F1F910895FC018191861721F080
S11316908823D9F7992708953197CF010895FB013D
S11316A0DC014150504048F001900D920020C9F7F0
S11316B001C01D9241505040E0F70895FB01519143
S11316C05523A9F0BF01DC014D9145174111E1F704
S11316D059F4CD010190002049F04D91401541117C
S11316E0C9F3FB014111EFCF81E090E00197089528
S11316F0BB274A3031F4992322F4BDE290958195B9
S11317009F4F0C94D20BBB272A3051F4992342F4F7
S1131710BDE290958095709561957F4F8F4F9F4F57
S11317200C94B00B592F482F372F262F660F771F95
S1131730881F991F660F771F881F991F620F731FD9
S1131740841F951F660F771F881F991F08957AE0DD
S1131750979F902D879F802D910D11240895BB276D
S1131760FA01A62F6217710581059105330B30FB31
S113177066F0AA27660F771F881F991FAA1FA21752
S113178010F0A21B63953850A9F7A05DAA3308F0A6
S1131790A95DA19336F7B111B1931082CA010C94DB
S11317A06E0DBB27FB015527AA27880F991FAA1F77
S11317B0A41710F0A41B83955051B9F7A05DAA3368
S11317C008F0A95DA193009779F7B111B193119233
S11317D0CB010C946E0DA0E0B0E0E1EFFBE00C94C3
S11317E0AF0D8B016115710521F0DB018C9311960E
S11317F09C93EC015E01BFEFAB1ABB0A7501C88074
S11318008C2D90E00E944E0D892B11F0E501F2CF52
S1131810EDE2CE1208C07E01F2E0EF0EF11CC980A9
S1131820DD24D39409C02BE2C21205C07E0142E03C
S1131830E40EF11CC980D12CE701219743E050E06C
S11318406EE570E0CE010E94560D892BC1F42396FB
S113185045E050E069E570E0CE010E94560D892B09
S113186009F425960115110519F0D801CD93DC93DF
S1131870D11006C160E070E080E89FE70AC143E050
S113188050E066E570E0CE010E94560D892B59F4B4
S11318900115110509F4F9C0B2E0EB0EF11CF801D1
S11318A0F182E082F2C0F70160E070E0CB01C0E0B9
S11318B0D0E07F01A0EDAA2EAC0C29E02A1530F16E
S11318C04D2D4260B42E2D2D2870D2FE04C021115E
S11318D025C0219623C021112197A5E0B0E09B01EA
S11318E0AC010E94E10A660F771F881F991F6A0DD9
S11318F0711D811D911D6839A9E97A078A07A9E13B
S11319009A0760F0BD2DB660BB2E08C02EEFA21260
S11319100AC0D3FC50C04D2D4860B42E3196D70177
S1131920CC90DB2CC6CF2C2D2F7D253409F043C061
S1131930A081AD3241F4BD2DB061DB2E7F0122E0E8
S1131940E20EF11C0CC07F01AB3231F04FEFE41A10
S1131950F40A21E030E006C0A2E0EA0EF11CA18105
S113196022E030E0A053AA3018F0E21AF30A23C0B0
S1131970F70120E030E02038BCE03B075CF4A9012B
S1131980440F551F440F551F240F351F220F331FBB
S11319902A0F311DAF014F5F5F4F7A01A081A05321
S11319A0AA3010F4FA01E7CFD4FE03C03195219593
S11319B03109C20FD31FD1FE09C00115110531F041
S11319C0E1E0EE1AF108D801ED92FC920E949F0921
S11319D02D2D2370233019F04B015C0106C04B01FF
S11319E05C01B7FAB094B7F8B09420E030E0A901F4
S11319F0C501B4010E947E0D882309F43EC0D7FFBF
S1131A0006C0D195C195D10905E710E002C00DE8E3
S1131A1010E06801B8E1CB1AD10890E2E92EF12C6C
S1131A20CE15DF0574F0F801259135914591549157
S1131A30C501B4010E942D0A4B015C01CE19DF09D6
S1131A40EFCF04501109F594E7940C151D0541F7E7
S1131A508A2D880F8B2D881F8F3F49F020E030E0BE
S1131A60A901C501B4010E947E0D811106C082E264
S1131A7090E09093480180934701C501B40109C0E7
S1131A8060E070E080E89FEF04C060E070E080EC0C
S1131A909FE7CDB7DEB7ECE00C94CB0D911156C0A7
S1131AA0803219F089508550D0F70895FB01DC018C
S1131AB04150504088F08D9181341CF08B350CF4EA
S1131AC0805E659161341CF06B350CF4605E861B9E
S1131AD0611171F3990B0895881BFCCFDC01FC01A3
S1131AE0672F71917723E1F7329704C07C916D934E
S1131AF070836291AE17BF07C8F3089503D008F44A
S1131B0081E00895990F0008550FAA0BE0E8FEEF55
S1131B1016161706E807F907C0F012161306E407AD
S1131B20F50798F0621B730B840B950B39F40A26A6
S1131B3061F0232B242B252B21F408950A2609F484
S1131B40A140A6958FEF811D811D089599278827AF
S1131B5008952F923F924F925F926F927F928F924D
S1131B609F92AF92BF92CF92DF92EF92FF920F9328
S1131B701F93CF93DF93CDB7DEB7CA1BDB0B0FB632
S1131B80F894DEBF0FBECDBF09942A8839884888EF
S1131B905F846E847D848C849B84AA84B984C88485
S1131BA0DF80EE80FD800C811B81AA81B981CE0F7C
S1131BB0D11D0FB6F894DEBF0FBECDBFED01089561
S1071BC0F894FFCFC3
S1131BC4010207040305052C002A0040002B0040F1
S1131BD4002900244750474741002162616420637F
S1131BE46865636B2073756D00244750524D430040
S10D1BF4373831360062636D0000DB
S9030000FC
